{
  "contractName": "States",
  "abi": [
    {
      "anonymous": false,
      "inputs": [
        {
          "indexed": true,
          "internalType": "bytes32",
          "name": "role",
          "type": "bytes32"
        },
        {
          "indexed": true,
          "internalType": "bytes32",
          "name": "previousAdminRole",
          "type": "bytes32"
        },
        {
          "indexed": true,
          "internalType": "bytes32",
          "name": "newAdminRole",
          "type": "bytes32"
        }
      ],
      "name": "RoleAdminChanged",
      "type": "event"
    },
    {
      "anonymous": false,
      "inputs": [
        {
          "indexed": true,
          "internalType": "bytes32",
          "name": "role",
          "type": "bytes32"
        },
        {
          "indexed": true,
          "internalType": "address",
          "name": "account",
          "type": "address"
        },
        {
          "indexed": true,
          "internalType": "address",
          "name": "sender",
          "type": "address"
        }
      ],
      "name": "RoleGranted",
      "type": "event"
    },
    {
      "anonymous": false,
      "inputs": [
        {
          "indexed": true,
          "internalType": "bytes32",
          "name": "role",
          "type": "bytes32"
        },
        {
          "indexed": true,
          "internalType": "address",
          "name": "account",
          "type": "address"
        },
        {
          "indexed": true,
          "internalType": "address",
          "name": "sender",
          "type": "address"
        }
      ],
      "name": "RoleRevoked",
      "type": "event"
    },
    {
      "inputs": [],
      "name": "DEFAULT_ADMIN_ROLE",
      "outputs": [
        {
          "internalType": "bytes32",
          "name": "",
          "type": "bytes32"
        }
      ],
      "stateMutability": "view",
      "type": "function"
    },
    {
      "inputs": [
        {
          "internalType": "bytes32",
          "name": "role",
          "type": "bytes32"
        }
      ],
      "name": "getRoleAdmin",
      "outputs": [
        {
          "internalType": "bytes32",
          "name": "",
          "type": "bytes32"
        }
      ],
      "stateMutability": "view",
      "type": "function"
    },
    {
      "inputs": [
        {
          "internalType": "bytes32",
          "name": "role",
          "type": "bytes32"
        },
        {
          "internalType": "address",
          "name": "account",
          "type": "address"
        }
      ],
      "name": "grantRole",
      "outputs": [],
      "stateMutability": "nonpayable",
      "type": "function"
    },
    {
      "inputs": [
        {
          "internalType": "bytes32",
          "name": "role",
          "type": "bytes32"
        },
        {
          "internalType": "address",
          "name": "account",
          "type": "address"
        }
      ],
      "name": "hasRole",
      "outputs": [
        {
          "internalType": "bool",
          "name": "",
          "type": "bool"
        }
      ],
      "stateMutability": "view",
      "type": "function"
    },
    {
      "inputs": [
        {
          "internalType": "bytes32",
          "name": "role",
          "type": "bytes32"
        },
        {
          "internalType": "address",
          "name": "account",
          "type": "address"
        }
      ],
      "name": "renounceRole",
      "outputs": [],
      "stateMutability": "nonpayable",
      "type": "function"
    },
    {
      "inputs": [
        {
          "internalType": "bytes32",
          "name": "role",
          "type": "bytes32"
        },
        {
          "internalType": "address",
          "name": "account",
          "type": "address"
        }
      ],
      "name": "revokeRole",
      "outputs": [],
      "stateMutability": "nonpayable",
      "type": "function"
    },
    {
      "inputs": [
        {
          "internalType": "bytes4",
          "name": "interfaceId",
          "type": "bytes4"
        }
      ],
      "name": "supportsInterface",
      "outputs": [
        {
          "internalType": "bool",
          "name": "",
          "type": "bool"
        }
      ],
      "stateMutability": "view",
      "type": "function"
    }
  ],
  "bytecode": "0x608060405234801561001057600080fd5b50610ee7806100206000396000f3fe608060405234801561001057600080fd5b506004361061007d5760003560e01c806336568abe1161005b57806336568abe146100fe57806391d148541461011a578063a217fddf1461014a578063d547741f146101685761007d565b806301ffc9a714610082578063248a9ca3146100b25780632f2ff15d146100e2575b600080fd5b61009c600480360381019061009791906109d1565b610184565b6040516100a99190610be2565b60405180910390f35b6100cc60048036038101906100c7919061096c565b6101fe565b6040516100d99190610bfd565b60405180910390f35b6100fc60048036038101906100f79190610995565b61021d565b005b61011860048036038101906101139190610995565b610246565b005b610134600480360381019061012f9190610995565b6102c9565b6040516101419190610be2565b60405180910390f35b610152610333565b60405161015f9190610bfd565b60405180910390f35b610182600480360381019061017d9190610995565b61033a565b005b60007f7965db0b000000000000000000000000000000000000000000000000000000007bffffffffffffffffffffffffffffffffffffffffffffffffffffffff1916827bffffffffffffffffffffffffffffffffffffffffffffffffffffffff191614806101f757506101f682610363565b5b9050919050565b6000806000838152602001908152602001600020600101549050919050565b610226826101fe565b610237816102326103cd565b6103d5565b6102418383610472565b505050565b61024e6103cd565b73ffffffffffffffffffffffffffffffffffffffff168173ffffffffffffffffffffffffffffffffffffffff16146102bb576040517f08c379a00000000000000000000000000000000000000000000000000000000081526004016102b290610c5a565b60405180910390fd5b6102c58282610552565b5050565b600080600084815260200190815260200160002060000160008373ffffffffffffffffffffffffffffffffffffffff1673ffffffffffffffffffffffffffffffffffffffff16815260200190815260200160002060009054906101000a900460ff16905092915050565b6000801b81565b610343826101fe565b6103548161034f6103cd565b6103d5565b61035e8383610552565b505050565b60007f01ffc9a7000000000000000000000000000000000000000000000000000000007bffffffffffffffffffffffffffffffffffffffffffffffffffffffff1916827bffffffffffffffffffffffffffffffffffffffffffffffffffffffff1916149050919050565b600033905090565b6103df82826102c9565b61046e576104048173ffffffffffffffffffffffffffffffffffffffff166014610633565b6104128360001c6020610633565b604051602001610423929190610ba8565b6040516020818303038152906040526040517f08c379a00000000000000000000000000000000000000000000000000000000081526004016104659190610c18565b60405180910390fd5b5050565b61047c82826102c9565b61054e57600160008084815260200190815260200160002060000160008373ffffffffffffffffffffffffffffffffffffffff1673ffffffffffffffffffffffffffffffffffffffff16815260200190815260200160002060006101000a81548160ff0219169083151502179055506104f36103cd565b73ffffffffffffffffffffffffffffffffffffffff168173ffffffffffffffffffffffffffffffffffffffff16837f2f8788117e7eff1d82e926ec794901d17c78024a50270940304540a733656f0d60405160405180910390a45b5050565b61055c82826102c9565b1561062f57600080600084815260200190815260200160002060000160008373ffffffffffffffffffffffffffffffffffffffff1673ffffffffffffffffffffffffffffffffffffffff16815260200190815260200160002060006101000a81548160ff0219169083151502179055506105d46103cd565b73ffffffffffffffffffffffffffffffffffffffff168173ffffffffffffffffffffffffffffffffffffffff16837ff6391f5c32d9c69d2a47ea670b442974b53935d1edc7fd64eb21e047a839171b60405160405180910390a45b5050565b6060600060028360026106469190610cf7565b6106509190610ca1565b67ffffffffffffffff81111561068f577f4e487b7100000000000000000000000000000000000000000000000000000000600052604160045260246000fd5b6040519080825280601f01601f1916602001820160405280156106c15781602001600182028036833780820191505090505b5090507f30000000000000000000000000000000000000000000000000000000000000008160008151811061071f577f4e487b7100000000000000000000000000000000000000000000000000000000600052603260045260246000fd5b60200101907effffffffffffffffffffffffffffffffffffffffffffffffffffffffffffff1916908160001a9053507f7800000000000000000000000000000000000000000000000000000000000000816001815181106107a9577f4e487b7100000000000000000000000000000000000000000000000000000000600052603260045260246000fd5b60200101907effffffffffffffffffffffffffffffffffffffffffffffffffffffffffffff1916908160001a905350600060018460026107e99190610cf7565b6107f39190610ca1565b90505b60018111156108df577f3031323334353637383961626364656600000000000000000000000000000000600f86166010811061085b577f4e487b7100000000000000000000000000000000000000000000000000000000600052603260045260246000fd5b1a60f81b828281518110610898577f4e487b7100000000000000000000000000000000000000000000000000000000600052603260045260246000fd5b60200101907effffffffffffffffffffffffffffffffffffffffffffffffffffffffffffff1916908160001a905350600485901c9450806108d890610e02565b90506107f6565b5060008414610923576040517f08c379a000000000000000000000000000000000000000000000000000000000815260040161091a90610c3a565b60405180910390fd5b8091505092915050565b60008135905061093c81610e6c565b92915050565b60008135905061095181610e83565b92915050565b60008135905061096681610e9a565b92915050565b60006020828403121561097e57600080fd5b600061098c84828501610942565b91505092915050565b600080604083850312156109a857600080fd5b60006109b685828601610942565b92505060206109c78582860161092d565b9150509250929050565b6000602082840312156109e357600080fd5b60006109f184828501610957565b91505092915050565b610a0381610d63565b82525050565b610a1281610d6f565b82525050565b6000610a2382610c7a565b610a2d8185610c85565b9350610a3d818560208601610dcf565b610a4681610e5b565b840191505092915050565b6000610a5c82610c7a565b610a668185610c96565b9350610a76818560208601610dcf565b80840191505092915050565b6000610a8f602083610c85565b91507f537472696e67733a20686578206c656e67746820696e73756666696369656e746000830152602082019050919050565b6000610acf601783610c96565b91507f416363657373436f6e74726f6c3a206163636f756e74200000000000000000006000830152601782019050919050565b6000610b0f601183610c96565b91507f206973206d697373696e6720726f6c65200000000000000000000000000000006000830152601182019050919050565b6000610b4f602f83610c85565b91507f416363657373436f6e74726f6c3a2063616e206f6e6c792072656e6f756e636560008301527f20726f6c657320666f722073656c6600000000000000000000000000000000006020830152604082019050919050565b6000610bb382610ac2565b9150610bbf8285610a51565b9150610bca82610b02565b9150610bd68284610a51565b91508190509392505050565b6000602082019050610bf760008301846109fa565b92915050565b6000602082019050610c126000830184610a09565b92915050565b60006020820190508181036000830152610c328184610a18565b905092915050565b60006020820190508181036000830152610c5381610a82565b9050919050565b60006020820190508181036000830152610c7381610b42565b9050919050565b600081519050919050565b600082825260208201905092915050565b600081905092915050565b6000610cac82610dc5565b9150610cb783610dc5565b9250827fffffffffffffffffffffffffffffffffffffffffffffffffffffffffffffffff03821115610cec57610ceb610e2c565b5b828201905092915050565b6000610d0282610dc5565b9150610d0d83610dc5565b9250817fffffffffffffffffffffffffffffffffffffffffffffffffffffffffffffffff0483118215151615610d4657610d45610e2c565b5b828202905092915050565b6000610d5c82610da5565b9050919050565b60008115159050919050565b6000819050919050565b60007fffffffff0000000000000000000000000000000000000000000000000000000082169050919050565b600073ffffffffffffffffffffffffffffffffffffffff82169050919050565b6000819050919050565b60005b83811015610ded578082015181840152602081019050610dd2565b83811115610dfc576000848401525b50505050565b6000610e0d82610dc5565b91506000821415610e2157610e20610e2c565b5b600182039050919050565b7f4e487b7100000000000000000000000000000000000000000000000000000000600052601160045260246000fd5b6000601f19601f8301169050919050565b610e7581610d51565b8114610e8057600080fd5b50565b610e8c81610d6f565b8114610e9757600080fd5b50565b610ea381610d79565b8114610eae57600080fd5b5056fea2646970667358221220fa06d523622a2a13a11e1fc1b3f816812931abd1887bda72f28f2d5676dbad9564736f6c63430008000033",
  "immutableReferences": {},
  "source": "// SPDX-License-Identifier: UNLICENSED\npragma solidity ^0.8.0;\n\nimport \"../../node_modules/@openzeppelin/contracts/access/AccessControl.sol\";\n\ncontract States is AccessControl {\n    //\n}\n",
  "sourcePath": "/Users/ghostffcode/Documents/UpkitStudio/electx/contracts/subcontracts/States.sol",
  "compiler": {
    "name": "solc",
    "version": "0.8.0+commit.c7dfd78e.Emscripten.clang"
  },
  "schemaVersion": "3.4.1",
  "updatedAt": "2021-06-11T22:03:02.614Z",
  "devdoc": {
    "kind": "dev",
    "methods": {
      "getRoleAdmin(bytes32)": {
        "details": "Returns the admin role that controls `role`. See {grantRole} and {revokeRole}. To change a role's admin, use {_setRoleAdmin}."
      },
      "grantRole(bytes32,address)": {
        "details": "Grants `role` to `account`. If `account` had not been already granted `role`, emits a {RoleGranted} event. Requirements: - the caller must have ``role``'s admin role."
      },
      "hasRole(bytes32,address)": {
        "details": "Returns `true` if `account` has been granted `role`."
      },
      "renounceRole(bytes32,address)": {
        "details": "Revokes `role` from the calling account. Roles are often managed via {grantRole} and {revokeRole}: this function's purpose is to provide a mechanism for accounts to lose their privileges if they are compromised (such as when a trusted device is misplaced). If the calling account had been granted `role`, emits a {RoleRevoked} event. Requirements: - the caller must be `account`."
      },
      "revokeRole(bytes32,address)": {
        "details": "Revokes `role` from `account`. If `account` had been granted `role`, emits a {RoleRevoked} event. Requirements: - the caller must have ``role``'s admin role."
      },
      "supportsInterface(bytes4)": {
        "details": "See {IERC165-supportsInterface}."
      }
    },
    "version": 1
  },
  "userdoc": {
    "kind": "user",
    "methods": {},
    "version": 1
  }
}