{
  "contractName": "Candidates",
  "abi": [
    {
      "anonymous": false,
      "inputs": [
        {
          "indexed": true,
          "internalType": "bytes32",
          "name": "id",
          "type": "bytes32"
        },
        {
          "indexed": true,
          "internalType": "string",
          "name": "name",
          "type": "string"
        },
        {
          "indexed": true,
          "internalType": "string",
          "name": "party",
          "type": "string"
        },
        {
          "indexed": false,
          "internalType": "string",
          "name": "manifesto",
          "type": "string"
        },
        {
          "indexed": false,
          "internalType": "address",
          "name": "admin",
          "type": "address"
        }
      ],
      "name": "CandidateAdded",
      "type": "event"
    },
    {
      "inputs": [
        {
          "internalType": "bytes32",
          "name": "electionId",
          "type": "bytes32"
        }
      ],
      "name": "getCandidatesForElection",
      "outputs": [
        {
          "internalType": "bytes32[]",
          "name": "",
          "type": "bytes32[]"
        }
      ],
      "stateMutability": "view",
      "type": "function"
    },
    {
      "inputs": [
        {
          "internalType": "bytes32",
          "name": "electionId",
          "type": "bytes32"
        },
        {
          "internalType": "bytes32",
          "name": "candidateId",
          "type": "bytes32"
        }
      ],
      "name": "getCandidateById",
      "outputs": [
        {
          "internalType": "bytes32",
          "name": "id",
          "type": "bytes32"
        },
        {
          "internalType": "string",
          "name": "name",
          "type": "string"
        },
        {
          "internalType": "string",
          "name": "party",
          "type": "string"
        },
        {
          "internalType": "string",
          "name": "manifesto",
          "type": "string"
        },
        {
          "internalType": "uint256",
          "name": "votes",
          "type": "uint256"
        },
        {
          "internalType": "bool",
          "name": "disqualified",
          "type": "bool"
        }
      ],
      "stateMutability": "view",
      "type": "function"
    }
  ],
  "bytecode": "0x608060405234801561001057600080fd5b506107ea806100206000396000f3fe608060405234801561001057600080fd5b50600436106100365760003560e01c80635b9f2f921461003b578063a27116be14610070575b600080fd5b61005560048036038101906100509190610464565b6100a0565b604051610067969594939291906105ed565b60405180910390f35b61008a6004803603810190610085919061043b565b6103bb565b60405161009791906105cb565b60405180910390f35b6000606080606060008087878060008084815260200190815260200160002060008381526020019081526020016000206000015414610114576040517f08c379a000000000000000000000000000000000000000000000000000000000815260040161010b90610663565b60405180910390fd5b6000808b815260200190815260200160002060008a81526020019081526020016000206000015497506000808b815260200190815260200160002060008a8152602001908152602001600020600101805461016e9061072b565b80601f016020809104026020016040519081016040528092919081815260200182805461019a9061072b565b80156101e75780601f106101bc576101008083540402835291602001916101e7565b820191906000526020600020905b8154815290600101906020018083116101ca57829003601f168201915b505050505096506000808b815260200190815260200160002060008a8152602001908152602001600020600201805461021f9061072b565b80601f016020809104026020016040519081016040528092919081815260200182805461024b9061072b565b80156102985780601f1061026d57610100808354040283529160200191610298565b820191906000526020600020905b81548152906001019060200180831161027b57829003601f168201915b505050505095506000808b815260200190815260200160002060008a815260200190815260200160002060030180546102d09061072b565b80601f01602080910402602001604051908101604052809291908181526020018280546102fc9061072b565b80156103495780601f1061031e57610100808354040283529160200191610349565b820191906000526020600020905b81548152906001019060200180831161032c57829003601f168201915b505050505094506000808b815260200190815260200160002060008a81526020019081526020016000206004015493506000808b815260200190815260200160002060008a815260200190815260200160002060050160009054906101000a900460ff16925050509295509295509295565b60606001600083815260200190815260200160002080548060200260200160405190810160405280929190818152602001828054801561041a57602002820191906000526020600020905b815481526020019060010190808311610406575b50505050509050919050565b6000813590506104358161079d565b92915050565b60006020828403121561044d57600080fd5b600061045b84828501610426565b91505092915050565b6000806040838503121561047757600080fd5b600061048585828601610426565b925050602061049685828601610426565b9150509250929050565b60006104ac8383610525565b60208301905092915050565b60006104c382610693565b6104cd81856106b6565b93506104d883610683565b8060005b838110156105095781516104f088826104a0565b97506104fb836106a9565b9250506001810190506104dc565b5085935050505092915050565b61051f816106d8565b82525050565b61052e816106e4565b82525050565b61053d816106e4565b82525050565b600061054e8261069e565b61055881856106c7565b93506105688185602086016106f8565b6105718161078c565b840191505092915050565b60006105896011836106c7565b91507f496e76616c69642043616e6469646174650000000000000000000000000000006000830152602082019050919050565b6105c5816106ee565b82525050565b600060208201905081810360008301526105e581846104b8565b905092915050565b600060c0820190506106026000830189610534565b81810360208301526106148188610543565b905081810360408301526106288187610543565b9050818103606083015261063c8186610543565b905061064b60808301856105bc565b61065860a0830184610516565b979650505050505050565b6000602082019050818103600083015261067c8161057c565b9050919050565b6000819050602082019050919050565b600081519050919050565b600081519050919050565b6000602082019050919050565b600082825260208201905092915050565b600082825260208201905092915050565b60008115159050919050565b6000819050919050565b6000819050919050565b60005b838110156107165780820151818401526020810190506106fb565b83811115610725576000848401525b50505050565b6000600282049050600182168061074357607f821691505b602082108114156107575761075661075d565b5b50919050565b7f4e487b7100000000000000000000000000000000000000000000000000000000600052602260045260246000fd5b6000601f19601f8301169050919050565b6107a6816106e4565b81146107b157600080fd5b5056fea26469706673582212207b0ab34137a78e7056f12be8fad3364a3f0483c26d73465c68e274dd1a9c165664736f6c63430008000033",
  "immutableReferences": {},
  "source": "// SPDX-License-Identifier: UNLICENSED\npragma solidity ^0.8.0;\n\ncontract Candidates {\n    struct Candidate {\n        bytes32 id;\n        string name;\n        string party;\n        string manifesto;\n        uint256 votes;\n        bool disqualified;\n    }\n\n    mapping(bytes32 => mapping(bytes32 => Candidate))\n        private _electionCandidates;\n    mapping(bytes32 => bytes32[]) private candidatesID;\n\n    //events\n    event CandidateAdded(\n        bytes32 indexed id,\n        string indexed name,\n        string indexed party,\n        string manifesto,\n        address admin\n    );\n\n    // modifiers for validation\n    modifier isValidCandidate(bytes32 electionId, bytes32 candidateId) {\n        require(\n            _electionCandidates[electionId][candidateId].id == candidateId,\n            \"Invalid Candidate\"\n        );\n        _;\n    }\n\n    modifier candidateIsNotDisqualified(\n        bytes32 electionId,\n        bytes32 candidateId\n    ) {\n        require(\n            _electionCandidates[electionId][candidateId].disqualified == false,\n            \"This candidate was disqualified\"\n        );\n        _;\n    }\n\n    function _addCandidate(\n        bytes32 electionId,\n        string memory name,\n        string memory manifesto,\n        string memory party\n    ) internal {\n        bytes32 id = keccak256(abi.encodePacked(name, party));\n        Candidate memory newCandidate =\n            Candidate({\n                id: id,\n                name: name,\n                party: party,\n                manifesto: manifesto,\n                votes: 0,\n                disqualified: false\n            });\n        _electionCandidates[electionId][id] = newCandidate;\n        candidatesID[electionId].push(id);\n\n        emit CandidateAdded(id, name, party, manifesto, msg.sender);\n    }\n\n    function getCandidatesForElection(bytes32 electionId)\n        public\n        view\n        returns (bytes32[] memory)\n    {\n        return candidatesID[electionId];\n    }\n\n    function getCandidateById(bytes32 electionId, bytes32 candidateId)\n        public\n        view\n        isValidCandidate(electionId, candidateId)\n        returns (\n            bytes32 id,\n            string memory name,\n            string memory party,\n            string memory manifesto,\n            uint256 votes,\n            bool disqualified\n        )\n    {\n        id = _electionCandidates[electionId][candidateId].id;\n        name = _electionCandidates[electionId][candidateId].name;\n        party = _electionCandidates[electionId][candidateId].party;\n        manifesto = _electionCandidates[electionId][candidateId].manifesto;\n        votes = _electionCandidates[electionId][candidateId].votes;\n        disqualified = _electionCandidates[electionId][candidateId]\n            .disqualified;\n    }\n\n    function _voteCandidate(bytes32 electionId, bytes32 candidateId)\n        internal\n        candidateIsNotDisqualified(electionId, candidateId)\n    {\n        _electionCandidates[electionId][candidateId].votes += 1;\n    }\n\n    function _getCandidateVote(bytes32 electionId, bytes32 candidateId)\n        internal\n        view\n        isValidCandidate(electionId, candidateId)\n        returns (uint256 votes)\n    {\n        votes = _electionCandidates[electionId][candidateId].votes;\n    }\n\n    function _disqualifyCandidate(bytes32 electionId, bytes32 candidateId)\n        internal\n        isValidCandidate(electionId, candidateId)\n    {\n        _electionCandidates[electionId][candidateId].disqualified = true;\n    }\n}\n",
  "sourcePath": "/Users/ghostffcode/Documents/UpkitStudio/vhota/contracts/subcontracts/Candidates.sol",
  "compiler": {
    "name": "solc",
    "version": "0.8.0+commit.c7dfd78e.Emscripten.clang"
  },
  "schemaVersion": "3.4.1",
  "updatedAt": "2021-06-24T14:53:38.145Z",
  "devdoc": {
    "kind": "dev",
    "methods": {},
    "version": 1
  },
  "userdoc": {
    "kind": "user",
    "methods": {},
    "version": 1
  }
}