{
  "contractName": "Elections",
  "abi": [
    {
      "inputs": [
        {
          "internalType": "string",
          "name": "_name",
          "type": "string"
        },
        {
          "internalType": "string[2][]",
          "name": "_candidates",
          "type": "string[2][]"
        },
        {
          "internalType": "string",
          "name": "_description",
          "type": "string"
        },
        {
          "internalType": "uint256",
          "name": "start",
          "type": "uint256"
        },
        {
          "internalType": "uint256",
          "name": "end",
          "type": "uint256"
        }
      ],
      "name": "createElection",
      "outputs": [],
      "stateMutability": "nonpayable",
      "type": "function"
    },
    {
      "inputs": [
        {
          "internalType": "uint256",
          "name": "_electionId",
          "type": "uint256"
        },
        {
          "internalType": "bytes32",
          "name": "_candidateId",
          "type": "bytes32"
        }
      ],
      "name": "getCandidate",
      "outputs": [
        {
          "internalType": "string",
          "name": "name",
          "type": "string"
        },
        {
          "internalType": "string",
          "name": "party",
          "type": "string"
        },
        {
          "internalType": "uint256",
          "name": "votes",
          "type": "uint256"
        }
      ],
      "stateMutability": "view",
      "type": "function"
    }
  ],
  "bytecode": "0x60806040526000805534801561001457600080fd5b50610c28806100246000396000f3fe608060405234801561001057600080fd5b50600436106100365760003560e01c80632c7b1bd71461003b578063baed4cc91461006d575b600080fd5b61005560048036038101906100509190610807565b610089565b604051610064939291906108cb565b60405180910390f35b61008760048036038101906100829190610748565b61028d565b005b606080600084846000801b600160008481526020019081526020016000206005016000838152602001908152602001600020600001541415610100576040517f08c379a00000000000000000000000000000000000000000000000000000000081526004016100f790610910565b60405180910390fd5b60006001600089815260200190815260200160002060050160008881526020019081526020016000206040518060800160405290816000820154815260200160018201805461014e90610aab565b80601f016020809104026020016040519081016040528092919081815260200182805461017a90610aab565b80156101c75780601f1061019c576101008083540402835291602001916101c7565b820191906000526020600020905b8154815290600101906020018083116101aa57829003601f168201915b505050505081526020016002820180546101e090610aab565b80601f016020809104026020016040519081016040528092919081815260200182805461020c90610aab565b80156102595780601f1061022e57610100808354040283529160200191610259565b820191906000526020600020905b81548152906001019060200180831161023c57829003601f168201915b5050505050815260200160038201548152505090508060200151955080604001519450806060015193505050509250925092565b600160008082825461029f91906109ff565b9250508190555084600160008054815260200190815260200160002060000190805190602001906102d1929190610511565b5082600160008054815260200190815260200160002060010190805190602001906102fd929190610511565b50816001600080548152602001908152602001600020600201819055508060016000805481526020019081526020016000206003018190555060005b845181101561050957600085828151811061037d577f4e487b7100000000000000000000000000000000000000000000000000000000600052603260045260246000fd5b602002602001015190506000816000600281106103c3577f4e487b7100000000000000000000000000000000000000000000000000000000600052603260045260246000fd5b60200201519050600082600160028110610406577f4e487b7100000000000000000000000000000000000000000000000000000000600052603260045260246000fd5b602002015190506000828051906020012090506040518060800160405280828152602001848152602001838152602001600081525060016000805481526020019081526020016000206005016000838152602001908152602001600020600082015181600001556020820151816001019080519060200190610489929190610511565b5060408201518160020190805190602001906104a6929190610511565b5060608201518160030155905050600160008054815260200190815260200160002060040181908060018154018082558091505060019003906000526020600020016000909190919091505550505050808061050190610add565b915050610339565b505050505050565b82805461051d90610aab565b90600052602060002090601f01602090048101928261053f5760008555610586565b82601f1061055857805160ff1916838001178555610586565b82800160010185558215610586579182015b8281111561058557825182559160200191906001019061056a565b5b5090506105939190610597565b5090565b5b808211156105b0576000816000905550600101610598565b5090565b60006105c76105c284610961565b610930565b9050808382526020820190508260005b8581101561060757813585016105ed88826106cd565b8452602084019350602083019250506001810190506105d7565b5050509392505050565b600061062461061f8461098d565b610930565b9050808260005b8581101561065b57813585016106418882610709565b84526020840193506020830192505060018101905061062b565b5050509392505050565b6000610678610673846109b3565b610930565b90508281526020810184848401111561069057600080fd5b61069b848285610a69565b509392505050565b600082601f8301126106b457600080fd5b81356106c48482602086016105b4565b91505092915050565b600082601f8301126106de57600080fd5b60026106eb848285610611565b91505092915050565b60008135905061070381610bc4565b92915050565b600082601f83011261071a57600080fd5b813561072a848260208601610665565b91505092915050565b60008135905061074281610bdb565b92915050565b600080600080600060a0868803121561076057600080fd5b600086013567ffffffffffffffff81111561077a57600080fd5b61078688828901610709565b955050602086013567ffffffffffffffff8111156107a357600080fd5b6107af888289016106a3565b945050604086013567ffffffffffffffff8111156107cc57600080fd5b6107d888828901610709565b93505060606107e988828901610733565b92505060806107fa88828901610733565b9150509295509295909350565b6000806040838503121561081a57600080fd5b600061082885828601610733565b9250506020610839858286016106f4565b9150509250929050565b600061084e826109e3565b61085881856109ee565b9350610868818560208601610a78565b61087181610bb3565b840191505092915050565b60006108896018836109ee565b91507f43616e64696461746520646f6573206e6f7420657869737400000000000000006000830152602082019050919050565b6108c581610a5f565b82525050565b600060608201905081810360008301526108e58186610843565b905081810360208301526108f98185610843565b905061090860408301846108bc565b949350505050565b600060208201905081810360008301526109298161087c565b9050919050565b6000604051905081810181811067ffffffffffffffff8211171561095757610956610b84565b5b8060405250919050565b600067ffffffffffffffff82111561097c5761097b610b84565b5b602082029050602081019050919050565b600067ffffffffffffffff8211156109a8576109a7610b84565b5b602082029050919050565b600067ffffffffffffffff8211156109ce576109cd610b84565b5b601f19601f8301169050602081019050919050565b600081519050919050565b600082825260208201905092915050565b6000610a0a82610a5f565b9150610a1583610a5f565b9250827fffffffffffffffffffffffffffffffffffffffffffffffffffffffffffffffff03821115610a4a57610a49610b26565b5b828201905092915050565b6000819050919050565b6000819050919050565b82818337600083830152505050565b60005b83811015610a96578082015181840152602081019050610a7b565b83811115610aa5576000848401525b50505050565b60006002820490506001821680610ac357607f821691505b60208210811415610ad757610ad6610b55565b5b50919050565b6000610ae882610a5f565b91507fffffffffffffffffffffffffffffffffffffffffffffffffffffffffffffffff821415610b1b57610b1a610b26565b5b600182019050919050565b7f4e487b7100000000000000000000000000000000000000000000000000000000600052601160045260246000fd5b7f4e487b7100000000000000000000000000000000000000000000000000000000600052602260045260246000fd5b7f4e487b7100000000000000000000000000000000000000000000000000000000600052604160045260246000fd5b6000601f19601f8301169050919050565b610bcd81610a55565b8114610bd857600080fd5b50565b610be481610a5f565b8114610bef57600080fd5b5056fea26469706673582212201b9e80f74e72ddeabf2e325badd6ca20db68962b001c68c6a7b681b6f5862bae64736f6c63430008000033",
  "immutableReferences": {},
  "source": "pragma solidity ^0.8.0;\n\ncontract Elections {\n\n    struct Candidate {\n        bytes32 id;\n        string name;\n        string party;\n        uint256 votes;\n    }\n\n\tstruct Election {\n\t\tstring name;\n\t\tstring description;\n\t\tuint256 pollStart;\n\t\tuint256 pollEnd;\n    \tbytes32[] candidatesID;\n\t\tmapping(bytes32 => Candidate) candidatesMap;\n    \tmapping(address => bytes32) votesMap;\n\t}\n\n\t// variables\n\tuint elections = 0;\n\tmapping (uint => Election) electionsMap;\n    \n\n    modifier isValidCandidate(uint _electionId, bytes32 _candidateId) {\n        require(electionsMap[_electionId].candidatesMap[_candidateId].id != 0, \"Candidate does not exist\");\n        _;\n    }\n\n    modifier isWithinPollDate(uint _electionId) {\n        uint256 currentTime = block.timestamp;\n        require(\n            electionsMap[_electionId].pollStart < currentTime,\n            \"The polls are not yet open for this election\"\n        );\n        require(\n            currentTime > electionsMap[_electionId].pollEnd,\n            \"The polls have closed for this election\"\n        );\n        _;\n    }\n\n    function createElection (\n\t\tstring memory _name,\n        string[2][] memory _candidates,\n        string memory _description,\n        uint256 start,\n        uint256 end\n    ) public {\n\t\telections += 1;\n\t\t// generate unique ID for election\n\t\t// use ID to setup candidate\n\t\t// use ID to setup voters\n        // set poll start and end date\n\t\telectionsMap[elections].name = _name;\n        electionsMap[elections].description = _description;\n        electionsMap[elections].pollStart = start;\n        electionsMap[elections].pollEnd = end;\n        // loop through all the candidates [ [ name, party ] ]\n        for (uint256 i = 0; i < _candidates.length; i++) {\n            // get current candidate\n            string[2] memory thisCandidate = _candidates[i];\n            string memory candidateName = thisCandidate[0];\n            string memory candidateParty = thisCandidate[1];\n            // create unique ID for given candidate\n            bytes32 id = keccak256(bytes(candidateName));\n            // map candidate ID to candidate Information\n            electionsMap[elections].candidatesMap[id] = Candidate({\n                id: id,\n                name: candidateName,\n                party: candidateParty,\n                votes: 0\n            });\n            // store candidates ID for easy iteration\n            electionsMap[elections].candidatesID.push(id);\n        }\n    }\n\n    // fetch candidates\n    function getCandidate(uint _electionId, bytes32 _candidateId)\n        public\n        view\n        isValidCandidate(_electionId, _candidateId)\n        returns (string memory name, string memory party, uint256 votes)\n    {\n        Candidate memory currCandidate = electionsMap[_electionId].candidatesMap[_candidateId];\n        name = currCandidate.name;\n\t\tparty = currCandidate.party;\n        votes = currCandidate.votes;\n    }\n\n    // addVote\n}",
  "sourcePath": "/Users/ghostffcode/Documents/UpkitStudio/electx/contracts/subcontracts/Election.sol",
  "compiler": {
    "name": "solc",
    "version": "0.8.0+commit.c7dfd78e.Emscripten.clang"
  },
  "schemaVersion": "3.4.1",
  "updatedAt": "2021-06-15T17:59:27.441Z",
  "devdoc": {
    "kind": "dev",
    "methods": {},
    "version": 1
  },
  "userdoc": {
    "kind": "user",
    "methods": {},
    "version": 1
  }
}