{
  "contractName": "ElectX",
  "abi": [
    {
      "inputs": [
        {
          "internalType": "string[2][]",
          "name": "_candidates",
          "type": "string[2][]"
        },
        {
          "internalType": "string",
          "name": "_description",
          "type": "string"
        },
        {
          "internalType": "uint256",
          "name": "start",
          "type": "uint256"
        },
        {
          "internalType": "uint256",
          "name": "end",
          "type": "uint256"
        }
      ],
      "stateMutability": "nonpayable",
      "type": "constructor"
    },
    {
      "inputs": [
        {
          "internalType": "bytes32",
          "name": "_id",
          "type": "bytes32"
        }
      ],
      "name": "getCandidate",
      "outputs": [
        {
          "internalType": "string",
          "name": "name",
          "type": "string"
        },
        {
          "internalType": "uint256",
          "name": "votes",
          "type": "uint256"
        }
      ],
      "stateMutability": "view",
      "type": "function"
    }
  ],
  "bytecode": "0x60806040523480156200001157600080fd5b5060405162000bac38038062000bac83398181016040528101906200003791906200046d565b60005b8451811015620001ea57600085828151811062000080577f4e487b7100000000000000000000000000000000000000000000000000000000600052603260045260246000fd5b60200260200101519050600081600060028110620000c7577f4e487b7100000000000000000000000000000000000000000000000000000000600052603260045260246000fd5b602002015190506000826001600281106200010b577f4e487b7100000000000000000000000000000000000000000000000000000000600052603260045260246000fd5b60200201519050600082805190602001209050604051806080016040528082815260200184815260200183815260200160008152506000808381526020019081526020016000206000820151816000015560208201518160010190805190602001906200017a9291906200021c565b506040820151816002019080519060200190620001999291906200021c565b50606082015181600301559050506004819080600181540180825580915050600190039060005260206000200160009091909190915055505050508080620001e19062000640565b9150506200003a565b5081600281905550806003819055508260059080519060200190620002119291906200021c565b505050505062000735565b8280546200022a906200060a565b90600052602060002090601f0160209004810192826200024e57600085556200029a565b82601f106200026957805160ff19168380011785556200029a565b828001600101855582156200029a579182015b82811115620002995782518255916020019190600101906200027c565b5b509050620002a99190620002ad565b5090565b5b80821115620002c8576000816000905550600101620002ae565b5090565b6000620002e3620002dd846200053f565b6200050b565b9050808382526020820190508260005b858110156200032757815185016200030c8882620003ff565b845260208401935060208301925050600181019050620002f3565b5050509392505050565b60006200034862000342846200056e565b6200050b565b9050808260005b8581101562000383578151850162000368888262000429565b8452602084019350602083019250506001810190506200034f565b5050509392505050565b6000620003a46200039e8462000597565b6200050b565b905082815260208101848484011115620003bd57600080fd5b620003ca848285620005d4565b509392505050565b600082601f830112620003e457600080fd5b8151620003f6848260208601620002cc565b91505092915050565b600082601f8301126200041157600080fd5b60026200042084828562000331565b91505092915050565b600082601f8301126200043b57600080fd5b81516200044d8482602086016200038d565b91505092915050565b60008151905062000467816200071b565b92915050565b600080600080608085870312156200048457600080fd5b600085015167ffffffffffffffff8111156200049f57600080fd5b620004ad87828801620003d2565b945050602085015167ffffffffffffffff811115620004cb57600080fd5b620004d98782880162000429565b9350506040620004ec8782880162000456565b9250506060620004ff8782880162000456565b91505092959194509250565b6000604051905081810181811067ffffffffffffffff82111715620005355762000534620006ec565b5b8060405250919050565b600067ffffffffffffffff8211156200055d576200055c620006ec565b5b602082029050602081019050919050565b600067ffffffffffffffff8211156200058c576200058b620006ec565b5b602082029050919050565b600067ffffffffffffffff821115620005b557620005b4620006ec565b5b601f19601f8301169050602081019050919050565b6000819050919050565b60005b83811015620005f4578082015181840152602081019050620005d7565b8381111562000604576000848401525b50505050565b600060028204905060018216806200062357607f821691505b602082108114156200063a5762000639620006bd565b5b50919050565b60006200064d82620005ca565b91507fffffffffffffffffffffffffffffffffffffffffffffffffffffffffffffffff8214156200068357620006826200068e565b5b600182019050919050565b7f4e487b7100000000000000000000000000000000000000000000000000000000600052601160045260246000fd5b7f4e487b7100000000000000000000000000000000000000000000000000000000600052602260045260246000fd5b7f4e487b7100000000000000000000000000000000000000000000000000000000600052604160045260246000fd5b6200072681620005ca565b81146200073257600080fd5b50565b61046780620007456000396000f3fe608060405234801561001057600080fd5b506004361061002b5760003560e01c8063dfb6419f14610030575b600080fd5b61004a60048036038101906100459190610244565b610061565b6040516100589291906102f5565b60405180910390f35b60606000826000801b6000808381526020019081526020016000206000015414156100c1576040517f08c379a00000000000000000000000000000000000000000000000000000000081526004016100b890610325565b60405180910390fd5b6000806000868152602001908152602001600020604051806080016040529081600082015481526020016001820180546100fa906103a8565b80601f0160208091040260200160405190810160405280929190818152602001828054610126906103a8565b80156101735780601f1061014857610100808354040283529160200191610173565b820191906000526020600020905b81548152906001019060200180831161015657829003601f168201915b5050505050815260200160028201805461018c906103a8565b80601f01602080910402602001604051908101604052809291908181526020018280546101b8906103a8565b80156102055780601f106101da57610100808354040283529160200191610205565b820191906000526020600020905b8154815290600101906020018083116101e857829003601f168201915b50505050508152602001600382015481525050905080602001519350806060015192505050915091565b60008135905061023e8161041a565b92915050565b60006020828403121561025657600080fd5b60006102648482850161022f565b91505092915050565b600061027882610345565b6102828185610350565b9350610292818560208601610375565b61029b81610409565b840191505092915050565b60006102b3601883610350565b91507f43616e64696461746520646f6573206e6f7420657869737400000000000000006000830152602082019050919050565b6102ef8161036b565b82525050565b6000604082019050818103600083015261030f818561026d565b905061031e60208301846102e6565b9392505050565b6000602082019050818103600083015261033e816102a6565b9050919050565b600081519050919050565b600082825260208201905092915050565b6000819050919050565b6000819050919050565b60005b83811015610393578082015181840152602081019050610378565b838111156103a2576000848401525b50505050565b600060028204905060018216806103c057607f821691505b602082108114156103d4576103d36103da565b5b50919050565b7f4e487b7100000000000000000000000000000000000000000000000000000000600052602260045260246000fd5b6000601f19601f8301169050919050565b61042381610361565b811461042e57600080fd5b5056fea26469706673582212205f66da493cfd314b10464e2a3c8e85acb5f5d3230ad74cfa485e78551e0e990b64736f6c63430008000033",
  "immutableReferences": {},
  "source": "// SPDX-License-Identifier: UNLICENSED\npragma solidity ^0.8.0;\n\ncontract ElectX {\n    struct Candidate {\n        bytes32 id;\n        string name;\n        string party;\n        uint256 votes;\n    }\n\n    mapping(bytes32 => Candidate) candidatesMap;\n    mapping(address => bytes32) votesMap;\n    uint256 pollStart;\n    uint256 pollEnd;\n    bytes32[] candidatesID;\n    string description;\n\n    modifier isValidCandidate(bytes32 _id) {\n        require(candidatesMap[_id].id != 0, \"Candidate does not exist\");\n        _;\n    }\n\n    modifier isWithinPollDate() {\n        uint256 currentTime = block.timestamp;\n        require(\n            pollStart < currentTime,\n            \"The polls are not yet open for this election\"\n        );\n        require(\n            currentTime > pollEnd,\n            \"The polls have closed for this election\"\n        );\n        _;\n    }\n\n    constructor(\n        string[2][] memory _candidates,\n        string memory _description,\n        uint256 start,\n        uint256 end\n    ) {\n        // loop through all the candidates [ [ name, party ] ]\n        for (uint256 i = 0; i < _candidates.length; i++) {\n            // get current candidate\n            string[2] memory thisCandidate = _candidates[i];\n            string memory candidateName = thisCandidate[0];\n            string memory candidateParty = thisCandidate[1];\n            // create unique ID for given candidate\n            bytes32 id = keccak256(bytes(candidateName));\n            // map candidate ID to candidate Information\n            candidatesMap[id] = Candidate({\n                id: id,\n                name: candidateName,\n                party: candidateParty,\n                votes: 0\n            });\n            // store candidates ID for easy iteration\n            candidatesID.push(id);\n        }\n\n        // set poll start and end date\n        pollStart = start;\n        pollEnd = end;\n        description = _description;\n    }\n\n    // fetch candidates\n    function getCandidate(bytes32 _id)\n        public\n        view\n        isValidCandidate(_id)\n        returns (string memory name, uint256 votes)\n    {\n        Candidate memory currentCandidate = candidatesMap[_id];\n        name = currentCandidate.name;\n        votes = currentCandidate.votes;\n    }\n\n    // addVote\n}\n",
  "sourcePath": "/Users/ghostffcode/Documents/UpkitStudio/electx/contracts/Vhota.sol",
  "compiler": {
    "name": "solc",
    "version": "0.8.0+commit.c7dfd78e.Emscripten.clang"
  },
  "schemaVersion": "3.4.1",
  "updatedAt": "2021-06-15T17:59:27.436Z",
  "devdoc": {
    "kind": "dev",
    "methods": {},
    "version": 1
  },
  "userdoc": {
    "kind": "user",
    "methods": {},
    "version": 1
  }
}