{
  "contractName": "Roles",
  "abi": [
    {
      "anonymous": false,
      "inputs": [
        {
          "indexed": true,
          "internalType": "bytes32",
          "name": "election",
          "type": "bytes32"
        },
        {
          "indexed": true,
          "internalType": "address",
          "name": "newAdmin",
          "type": "address"
        },
        {
          "indexed": true,
          "internalType": "address",
          "name": "sender",
          "type": "address"
        }
      ],
      "name": "AdminAdded",
      "type": "event"
    },
    {
      "inputs": [
        {
          "internalType": "bytes32",
          "name": "electionId",
          "type": "bytes32"
        }
      ],
      "name": "getRoleForElection",
      "outputs": [
        {
          "internalType": "uint256",
          "name": "role",
          "type": "uint256"
        }
      ],
      "stateMutability": "view",
      "type": "function"
    },
    {
      "inputs": [
        {
          "internalType": "bytes32",
          "name": "electionId",
          "type": "bytes32"
        }
      ],
      "name": "requestStateValidatorRole",
      "outputs": [
        {
          "internalType": "bytes32",
          "name": "id",
          "type": "bytes32"
        }
      ],
      "stateMutability": "nonpayable",
      "type": "function"
    },
    {
      "inputs": [
        {
          "internalType": "bytes32",
          "name": "electionId",
          "type": "bytes32"
        }
      ],
      "name": "requestZoneValidatorRole",
      "outputs": [
        {
          "internalType": "bytes32",
          "name": "id",
          "type": "bytes32"
        }
      ],
      "stateMutability": "nonpayable",
      "type": "function"
    },
    {
      "inputs": [
        {
          "internalType": "bytes32",
          "name": "electionId",
          "type": "bytes32"
        }
      ],
      "name": "requestVoterRole",
      "outputs": [
        {
          "internalType": "bytes32",
          "name": "id",
          "type": "bytes32"
        }
      ],
      "stateMutability": "nonpayable",
      "type": "function"
    },
    {
      "inputs": [
        {
          "internalType": "bytes32",
          "name": "electionId",
          "type": "bytes32"
        }
      ],
      "name": "getRoleRequest",
      "outputs": [
        {
          "internalType": "uint256",
          "name": "role",
          "type": "uint256"
        }
      ],
      "stateMutability": "view",
      "type": "function"
    },
    {
      "inputs": [
        {
          "internalType": "bytes32",
          "name": "electionId",
          "type": "bytes32"
        }
      ],
      "name": "revokeRoleRequest",
      "outputs": [],
      "stateMutability": "nonpayable",
      "type": "function"
    }
  ],
  "bytecode": "0x608060405234801561001057600080fd5b50610695806100206000396000f3fe608060405234801561001057600080fd5b50600436106100625760003560e01c806339b476081461006757806348b24c9c146100975780635fa14578146100c7578063910dcf71146100f7578063a7cd35f514610113578063ab7c734314610143575b600080fd5b610081600480360381019061007c91906104f0565b610173565b60405161008e91906105ac565b60405180910390f35b6100b160048036038101906100ac91906104f0565b610218565b6040516100be9190610591565b60405180910390f35b6100e160048036038101906100dc91906104f0565b610236565b6040516100ee9190610591565b60405180910390f35b610111600480360381019061010c91906104f0565b610254565b005b61012d600480360381019061012891906104f0565b6102ce565b60405161013a91906105ac565b60405180910390f35b61015d600480360381019061015891906104f0565b610350565b60405161016a9190610591565b60405180910390f35b60006001600083815260200190815260200160002060050160003373ffffffffffffffffffffffffffffffffffffffff1673ffffffffffffffffffffffffffffffffffffffff16815260200190815260200160002060010160149054906101000a900460ff166004811115610211577f4e487b7100000000000000000000000000000000000000000000000000000000600052602160045260246000fd5b9050919050565b60006102238261036e565b9050610231828260026103a0565b919050565b60006102418261036e565b905061024f828260016103a0565b919050565b600061025f8261036e565b905060008083815260200190815260200160002060008281526020019081526020016000206000808201600090556001820160006101000a81549073ffffffffffffffffffffffffffffffffffffffff02191690556001820160146101000a81549060ff021916905550505050565b6000806102da8361036e565b9050600080848152602001908152602001600020600082815260200190815260200160002060010160149054906101000a900460ff166004811115610348577f4e487b7100000000000000000000000000000000000000000000000000000000600052602160045260246000fd5b915050919050565b600061035b8261036e565b9050610369828260036103a0565b919050565b60008133604051602001610383929190610565565b604051602081830303815290604052805190602001209050919050565b60405180606001604052808381526020013373ffffffffffffffffffffffffffffffffffffffff168152602001826004811115610406577f4e487b7100000000000000000000000000000000000000000000000000000000600052602160045260246000fd5b81525060008085815260200190815260200160002060008481526020019081526020016000206000820151816000015560208201518160010160006101000a81548173ffffffffffffffffffffffffffffffffffffffff021916908373ffffffffffffffffffffffffffffffffffffffff16021790555060408201518160010160146101000a81548160ff021916908360048111156104ce577f4e487b7100000000000000000000000000000000000000000000000000000000600052602160045260246000fd5b0217905550905050505050565b6000813590506104ea81610648565b92915050565b60006020828403121561050257600080fd5b6000610510848285016104db565b91505092915050565b61052a610525826105c7565b61060d565b82525050565b610539816105d9565b82525050565b61055061054b826105d9565b61061f565b82525050565b61055f81610603565b82525050565b6000610571828561053f565b6020820191506105818284610519565b6014820191508190509392505050565b60006020820190506105a66000830184610530565b92915050565b60006020820190506105c16000830184610556565b92915050565b60006105d2826105e3565b9050919050565b6000819050919050565b600073ffffffffffffffffffffffffffffffffffffffff82169050919050565b6000819050919050565b600061061882610629565b9050919050565b6000819050919050565b60006106348261063b565b9050919050565b60008160601b9050919050565b610651816105d9565b811461065c57600080fd5b5056fea2646970667358221220a7eb8244e88b5d45e9131e9dcf9ba08cdb235f966f416ab0b9c9031fb091e8cc64736f6c63430008000033",
  "immutableReferences": {},
  "source": "// SPDX-License-Identifier: UNLICENSED\npragma solidity ^0.8.0;\n\ncontract Roles {\n    enum RoleStates {nonuser, voter, zone, state, federal}\n\n    struct User {\n        address user;\n        bool canVote;\n        address validator;\n        RoleStates role;\n    }\n\n    struct RolesData {\n        uint256 adminsCount;\n        uint256 stateValidatorsCount;\n        uint256 zoneValidatorsCount;\n        uint256 votersCount;\n        uint256 adminLimit;\n        mapping(address => User) members;\n    }\n\n    struct RequestData {\n        bytes32 id;\n        address user;\n        RoleStates requestType;\n    }\n\n    // electionId -> uniqueRequestId -> User Address\n    mapping(bytes32 => mapping(bytes32 => RequestData)) private _roleRequests;\n    // electionId\n    mapping(bytes32 => RolesData) private _electionRoles;\n\n    // events\n    event AdminAdded(\n        bytes32 indexed election,\n        address indexed newAdmin,\n        address indexed sender\n    );\n\n    // modifiers\n    modifier isElectionAdmin(bytes32 electionId) {\n        require(\n            _electionRoles[electionId].members[msg.sender].role ==\n                RoleStates.federal,\n            \"You're not admin for this election\"\n        );\n        _;\n    }\n\n    modifier isCorrectValidator(bytes32 electionId, RoleStates role) {\n        require(_electionRoles[electionId].members[msg.sender].role == role);\n        _;\n    }\n\n    modifier isValidVoter(bytes32 electionId) {\n        require(\n            _electionRoles[electionId].members[msg.sender].canVote,\n            \"You're not a verified voter for this election\"\n        );\n        _;\n    }\n\n    modifier isValidRoleRequest(bytes32 electionId, bytes32 requestId) {\n        require(\n            _roleRequests[electionId][requestId].user != address(0),\n            \"Invalid role request\"\n        );\n        _;\n    }\n\n    modifier canValidateRoleRequest(bytes32 electionId, bytes32 requestId) {\n        uint256 requestState =\n            uint256(_roleRequests[electionId][requestId].requestType);\n        uint256 requiredApproverRole = requestState + 1;\n        require(\n            uint256(_electionRoles[electionId].members[msg.sender].role) ==\n                requiredApproverRole,\n            \"You don't have the required role to approve this request.\"\n        );\n        _;\n    }\n\n    // functions\n    function _setupRolesForElection(bytes32 electionId, uint256 _adminLimit)\n        internal\n    {\n        _electionRoles[electionId].members[msg.sender] = User({\n            user: msg.sender,\n            canVote: true,\n            validator: address(0),\n            role: RoleStates.federal\n        });\n        _electionRoles[electionId].adminLimit = _adminLimit;\n        _electionRoles[electionId].adminsCount += 1;\n    }\n\n    function getRoleForElection(bytes32 electionId)\n        public\n        view\n        returns (uint256 role)\n    {\n        role = uint256(_electionRoles[electionId].members[msg.sender].role);\n    }\n\n    function _addElectionAdmin(bytes32 electionId, address _newAdmin)\n        internal\n        isElectionAdmin(electionId)\n    {\n        _electionRoles[electionId].members[_newAdmin] = User({\n            user: _newAdmin,\n            canVote: true,\n            validator: msg.sender,\n            role: RoleStates.federal\n        });\n        emit AdminAdded(electionId, _newAdmin, msg.sender);\n    }\n\n    function requestStateValidatorRole(bytes32 electionId)\n        public\n        returns (bytes32 id)\n    {\n        id = _getRequestIdForRole(electionId);\n        _requestRole(electionId, id, RoleStates.state);\n    }\n\n    function requestZoneValidatorRole(bytes32 electionId)\n        public\n        returns (bytes32 id)\n    {\n        id = _getRequestIdForRole(electionId);\n        _requestRole(electionId, id, RoleStates.zone);\n    }\n\n    function requestVoterRole(bytes32 electionId) public returns (bytes32 id) {\n        id = _getRequestIdForRole(electionId);\n        _requestRole(electionId, id, RoleStates.voter);\n    }\n\n    function getRoleRequest(bytes32 electionId)\n        public\n        view\n        returns (uint256 role)\n    {\n        bytes32 id = _getRequestIdForRole(electionId);\n        role = uint256(_roleRequests[electionId][id].requestType);\n    }\n\n    function revokeRoleRequest(bytes32 electionId) public {\n        bytes32 id = _getRequestIdForRole(electionId);\n        delete _roleRequests[electionId][id];\n    }\n\n    function _requestRole(\n        bytes32 electionId,\n        bytes32 id,\n        RoleStates requestType\n    ) private {\n        _roleRequests[electionId][id] = RequestData({\n            id: id,\n            user: msg.sender,\n            requestType: requestType\n        });\n    }\n\n    function _approveValidatorRequest(bytes32 electionId, bytes32 requestId)\n        internal\n    {\n        RequestData memory userRequest = _roleRequests[electionId][requestId];\n        _electionRoles[electionId].members[userRequest.user] = User({\n            user: userRequest.user,\n            canVote: true,\n            validator: msg.sender,\n            role: userRequest.requestType\n        });\n    }\n\n    function _getRequestIdForRole(bytes32 electionId)\n        internal\n        view\n        returns (bytes32 id)\n    {\n        id = keccak256(abi.encodePacked(electionId, msg.sender));\n    }\n}\n",
  "sourcePath": "/Users/ghostffcode/Documents/UpkitStudio/vhota/contracts/subcontracts/Roles.sol",
  "compiler": {
    "name": "solc",
    "version": "0.8.0+commit.c7dfd78e.Emscripten.clang"
  },
  "schemaVersion": "3.4.1",
  "updatedAt": "2021-06-22T00:01:10.722Z",
  "devdoc": {
    "kind": "dev",
    "methods": {},
    "version": 1
  },
  "userdoc": {
    "kind": "user",
    "methods": {},
    "version": 1
  }
}