{
  "contractName": "Roles",
  "abi": [
    {
      "anonymous": false,
      "inputs": [
        {
          "indexed": true,
          "internalType": "bytes32",
          "name": "election",
          "type": "bytes32"
        },
        {
          "indexed": true,
          "internalType": "address",
          "name": "newAdmin",
          "type": "address"
        },
        {
          "indexed": true,
          "internalType": "address",
          "name": "sender",
          "type": "address"
        }
      ],
      "name": "AdminAdded",
      "type": "event"
    },
    {
      "anonymous": false,
      "inputs": [
        {
          "indexed": false,
          "internalType": "bytes32",
          "name": "election",
          "type": "bytes32"
        },
        {
          "indexed": false,
          "internalType": "bytes32",
          "name": "requestId",
          "type": "bytes32"
        },
        {
          "indexed": false,
          "internalType": "address",
          "name": "approver",
          "type": "address"
        }
      ],
      "name": "RoleRequestApproved",
      "type": "event"
    },
    {
      "inputs": [
        {
          "internalType": "bytes32",
          "name": "electionId",
          "type": "bytes32"
        }
      ],
      "name": "getRoleForElection",
      "outputs": [
        {
          "internalType": "uint256",
          "name": "role",
          "type": "uint256"
        }
      ],
      "stateMutability": "view",
      "type": "function"
    },
    {
      "inputs": [
        {
          "internalType": "bytes32",
          "name": "electionId",
          "type": "bytes32"
        }
      ],
      "name": "requestStateValidatorRole",
      "outputs": [
        {
          "internalType": "bytes32",
          "name": "id",
          "type": "bytes32"
        }
      ],
      "stateMutability": "nonpayable",
      "type": "function"
    },
    {
      "inputs": [
        {
          "internalType": "bytes32",
          "name": "electionId",
          "type": "bytes32"
        }
      ],
      "name": "requestZoneValidatorRole",
      "outputs": [
        {
          "internalType": "bytes32",
          "name": "id",
          "type": "bytes32"
        }
      ],
      "stateMutability": "nonpayable",
      "type": "function"
    },
    {
      "inputs": [
        {
          "internalType": "bytes32",
          "name": "electionId",
          "type": "bytes32"
        }
      ],
      "name": "requestVoterRole",
      "outputs": [
        {
          "internalType": "bytes32",
          "name": "id",
          "type": "bytes32"
        }
      ],
      "stateMutability": "nonpayable",
      "type": "function"
    },
    {
      "inputs": [
        {
          "internalType": "bytes32",
          "name": "electionId",
          "type": "bytes32"
        }
      ],
      "name": "getRoleRequest",
      "outputs": [
        {
          "internalType": "bytes32",
          "name": "id",
          "type": "bytes32"
        },
        {
          "internalType": "uint256",
          "name": "role",
          "type": "uint256"
        }
      ],
      "stateMutability": "view",
      "type": "function"
    },
    {
      "inputs": [
        {
          "internalType": "bytes32",
          "name": "electionId",
          "type": "bytes32"
        }
      ],
      "name": "revokeRoleRequest",
      "outputs": [],
      "stateMutability": "nonpayable",
      "type": "function"
    },
    {
      "inputs": [
        {
          "internalType": "bytes32",
          "name": "electionId",
          "type": "bytes32"
        },
        {
          "internalType": "bytes32",
          "name": "requestId",
          "type": "bytes32"
        }
      ],
      "name": "approveRoleRequest",
      "outputs": [],
      "stateMutability": "nonpayable",
      "type": "function"
    }
  ],
  "bytecode": "0x608060405234801561001057600080fd5b50610ee1806100206000396000f3fe608060405234801561001057600080fd5b506004361061007d5760003560e01c8063910dcf711161005b578063910dcf7114610112578063a7cd35f51461012e578063ab7c73431461015f578063bc5c419f1461018f5761007d565b806339b476081461008257806348b24c9c146100b25780635fa14578146100e2575b600080fd5b61009c60048036038101906100979190610aef565b6101ab565b6040516100a99190610d62565b60405180910390f35b6100cc60048036038101906100c79190610aef565b610250565b6040516100d99190610ca7565b60405180910390f35b6100fc60048036038101906100f79190610aef565b61026e565b6040516101099190610ca7565b60405180910390f35b61012c60048036038101906101279190610aef565b61028c565b005b61014860048036038101906101439190610aef565b6103ba565b604051610156929190610cf9565b60405180910390f35b61017960048036038101906101749190610aef565b61043b565b6040516101869190610ca7565b60405180910390f35b6101a960048036038101906101a49190610b18565b610459565b005b60006001600083815260200190815260200160002060050160003373ffffffffffffffffffffffffffffffffffffffff1673ffffffffffffffffffffffffffffffffffffffff16815260200190815260200160002060010160149054906101000a900460ff166004811115610249577f4e487b7100000000000000000000000000000000000000000000000000000000600052602160045260246000fd5b9050919050565b600061025b8261096d565b90506102698282600261099f565b919050565b60006102798261096d565b90506102878282600161099f565b919050565b60006102978261096d565b90503373ffffffffffffffffffffffffffffffffffffffff16600080848152602001908152602001600020600083815260200190815260200160002060010160009054906101000a900473ffffffffffffffffffffffffffffffffffffffff1673ffffffffffffffffffffffffffffffffffffffff161461034d576040517f08c379a000000000000000000000000000000000000000000000000000000000815260040161034490610d42565b60405180910390fd5b60008083815260200190815260200160002060008281526020019081526020016000206000808201600090556001820160006101000a81549073ffffffffffffffffffffffffffffffffffffffff02191690556001820160146101000a81549060ff021916905550505050565b6000806103c68361096d565b9150600080848152602001908152602001600020600083815260200190815260200160002060010160149054906101000a900460ff166004811115610434577f4e487b7100000000000000000000000000000000000000000000000000000000600052602160045260246000fd5b9050915091565b60006104468261096d565b90506104548282600361099f565b919050565b81816000806000848152602001908152602001600020600083815260200190815260200160002060010160149054906101000a900460ff1660048111156104c9577f4e487b7100000000000000000000000000000000000000000000000000000000600052602160045260246000fd5b905060006001826104da9190610d8e565b9050806001600086815260200190815260200160002060050160003373ffffffffffffffffffffffffffffffffffffffff1673ffffffffffffffffffffffffffffffffffffffff16815260200190815260200160002060010160149054906101000a900460ff166004811115610579577f4e487b7100000000000000000000000000000000000000000000000000000000600052602160045260246000fd5b146105b9576040517f08c379a00000000000000000000000000000000000000000000000000000000081526004016105b090610d22565b60405180910390fd5b60008060008881526020019081526020016000206000878152602001908152602001600020604051806060016040529081600082015481526020016001820160009054906101000a900473ffffffffffffffffffffffffffffffffffffffff1673ffffffffffffffffffffffffffffffffffffffff1673ffffffffffffffffffffffffffffffffffffffff1681526020016001820160149054906101000a900460ff166004811115610694577f4e487b7100000000000000000000000000000000000000000000000000000000600052602160045260246000fd5b60048111156106cc577f4e487b7100000000000000000000000000000000000000000000000000000000600052602160045260246000fd5b8152505090506040518060800160405280826020015173ffffffffffffffffffffffffffffffffffffffff1681526020016001151581526020013373ffffffffffffffffffffffffffffffffffffffff1681526020018260400151600481111561075f577f4e487b7100000000000000000000000000000000000000000000000000000000600052602160045260246000fd5b815250600160008981526020019081526020016000206005016000836020015173ffffffffffffffffffffffffffffffffffffffff1673ffffffffffffffffffffffffffffffffffffffff16815260200190815260200160002060008201518160000160006101000a81548173ffffffffffffffffffffffffffffffffffffffff021916908373ffffffffffffffffffffffffffffffffffffffff16021790555060208201518160000160146101000a81548160ff02191690831515021790555060408201518160010160006101000a81548173ffffffffffffffffffffffffffffffffffffffff021916908373ffffffffffffffffffffffffffffffffffffffff16021790555060608201518160010160146101000a81548160ff021916908360048111156108b8577f4e487b7100000000000000000000000000000000000000000000000000000000600052602160045260246000fd5b021790555090505060008088815260200190815260200160002060008781526020019081526020016000206000808201600090556001820160006101000a81549073ffffffffffffffffffffffffffffffffffffffff02191690556001820160146101000a81549060ff021916905550507f07a86bec772f80c85af9f5b3a3828575039ed0dff22ac50306c72c2fdfbc125187873360405161095c93929190610cc2565b60405180910390a150505050505050565b60008133604051602001610982929190610c7b565b604051602081830303815290604052805190602001209050919050565b60405180606001604052808381526020013373ffffffffffffffffffffffffffffffffffffffff168152602001826004811115610a05577f4e487b7100000000000000000000000000000000000000000000000000000000600052602160045260246000fd5b81525060008085815260200190815260200160002060008481526020019081526020016000206000820151816000015560208201518160010160006101000a81548173ffffffffffffffffffffffffffffffffffffffff021916908373ffffffffffffffffffffffffffffffffffffffff16021790555060408201518160010160146101000a81548160ff02191690836004811115610acd577f4e487b7100000000000000000000000000000000000000000000000000000000600052602160045260246000fd5b0217905550905050505050565b600081359050610ae981610e94565b92915050565b600060208284031215610b0157600080fd5b6000610b0f84828501610ada565b91505092915050565b60008060408385031215610b2b57600080fd5b6000610b3985828601610ada565b9250506020610b4a85828601610ada565b9150509250929050565b610b5d81610de4565b82525050565b610b74610b6f82610de4565b610e2a565b82525050565b610b8381610df6565b82525050565b610b9a610b9582610df6565b610e3c565b82525050565b6000610bad603983610d7d565b91507f596f7520646f6e277420686176652074686520726571756972656420726f6c6560008301527f20746f20617070726f7665207468697320726571756573742e000000000000006020830152604082019050919050565b6000610c13603383610d7d565b91507f596f752063616e2774207265766f6b65206120726f6c6520726571756573742060008301527f796f7520646f6e27742068617665207965742e000000000000000000000000006020830152604082019050919050565b610c7581610e20565b82525050565b6000610c878285610b89565b602082019150610c978284610b63565b6014820191508190509392505050565b6000602082019050610cbc6000830184610b7a565b92915050565b6000606082019050610cd76000830186610b7a565b610ce46020830185610b7a565b610cf16040830184610b54565b949350505050565b6000604082019050610d0e6000830185610b7a565b610d1b6020830184610c6c565b9392505050565b60006020820190508181036000830152610d3b81610ba0565b9050919050565b60006020820190508181036000830152610d5b81610c06565b9050919050565b6000602082019050610d776000830184610c6c565b92915050565b600082825260208201905092915050565b6000610d9982610e20565b9150610da483610e20565b9250827fffffffffffffffffffffffffffffffffffffffffffffffffffffffffffffffff03821115610dd957610dd8610e58565b5b828201905092915050565b6000610def82610e00565b9050919050565b6000819050919050565b600073ffffffffffffffffffffffffffffffffffffffff82169050919050565b6000819050919050565b6000610e3582610e46565b9050919050565b6000819050919050565b6000610e5182610e87565b9050919050565b7f4e487b7100000000000000000000000000000000000000000000000000000000600052601160045260246000fd5b60008160601b9050919050565b610e9d81610df6565b8114610ea857600080fd5b5056fea264697066735822122084af24a7f912caead340156f21a022c1900b389d73a9f6cfa281fafadd54a82364736f6c63430008000033",
  "immutableReferences": {},
  "source": "// SPDX-License-Identifier: UNLICENSED\npragma solidity ^0.8.0;\n\ncontract Roles {\n    enum RoleStates {nonuser, voter, zone, state, federal}\n\n    struct User {\n        address user;\n        bool canVote;\n        address validator;\n        RoleStates role;\n    }\n\n    struct RolesData {\n        uint256 adminsCount;\n        uint256 stateValidatorsCount;\n        uint256 zoneValidatorsCount;\n        uint256 votersCount;\n        uint256 adminLimit;\n        mapping(address => User) members;\n    }\n\n    struct RequestData {\n        bytes32 id;\n        address user;\n        RoleStates requestType;\n    }\n\n    // electionId -> uniqueRequestId -> User Address\n    mapping(bytes32 => mapping(bytes32 => RequestData)) private _roleRequests;\n    // electionId\n    mapping(bytes32 => RolesData) private _electionRoles;\n\n    // events\n    event AdminAdded(\n        bytes32 indexed election,\n        address indexed newAdmin,\n        address indexed sender\n    );\n\n    event RoleRequestApproved(\n        bytes32 election,\n        bytes32 requestId,\n        address approver\n    );\n\n    // modifiers\n    modifier isElectionAdmin(bytes32 electionId) {\n        require(\n            _electionRoles[electionId].members[msg.sender].role ==\n                RoleStates.federal,\n            \"You're not admin for this election\"\n        );\n        _;\n    }\n\n    modifier isCorrectValidator(bytes32 electionId, RoleStates role) {\n        require(_electionRoles[electionId].members[msg.sender].role == role);\n        _;\n    }\n\n    modifier isValidVoter(bytes32 electionId) {\n        require(\n            _electionRoles[electionId].members[msg.sender].canVote,\n            \"You're not a verified voter for this election\"\n        );\n        _;\n    }\n\n    modifier isValidRoleRequest(bytes32 electionId, bytes32 requestId) {\n        require(\n            _roleRequests[electionId][requestId].user != address(0),\n            \"Invalid role request\"\n        );\n        _;\n    }\n\n    modifier canValidateRoleRequest(bytes32 electionId, bytes32 requestId) {\n        uint256 requestState =\n            uint256(_roleRequests[electionId][requestId].requestType);\n        uint256 requiredApproverRole = requestState + 1;\n        require(\n            uint256(_electionRoles[electionId].members[msg.sender].role) ==\n                requiredApproverRole,\n            \"You don't have the required role to approve this request.\"\n        );\n        _;\n    }\n\n    // functions\n    function _setupRolesForElection(bytes32 electionId, uint256 _adminLimit)\n        internal\n    {\n        _electionRoles[electionId].members[msg.sender] = User({\n            user: msg.sender,\n            canVote: true,\n            validator: address(0),\n            role: RoleStates.federal\n        });\n        _electionRoles[electionId].adminLimit = _adminLimit;\n        _electionRoles[electionId].adminsCount += 1;\n    }\n\n    function getRoleForElection(bytes32 electionId)\n        public\n        view\n        returns (uint256 role)\n    {\n        role = uint256(_electionRoles[electionId].members[msg.sender].role);\n    }\n\n    function _addElectionAdmin(bytes32 electionId, address _newAdmin)\n        internal\n        isElectionAdmin(electionId)\n    {\n        _electionRoles[electionId].members[_newAdmin] = User({\n            user: _newAdmin,\n            canVote: true,\n            validator: msg.sender,\n            role: RoleStates.federal\n        });\n        emit AdminAdded(electionId, _newAdmin, msg.sender);\n    }\n\n    function requestStateValidatorRole(bytes32 electionId)\n        public\n        returns (bytes32 id)\n    {\n        id = _getRequestIdForRole(electionId);\n        _requestRole(electionId, id, RoleStates.state);\n    }\n\n    function requestZoneValidatorRole(bytes32 electionId)\n        public\n        returns (bytes32 id)\n    {\n        id = _getRequestIdForRole(electionId);\n        _requestRole(electionId, id, RoleStates.zone);\n    }\n\n    function requestVoterRole(bytes32 electionId) public returns (bytes32 id) {\n        id = _getRequestIdForRole(electionId);\n        _requestRole(electionId, id, RoleStates.voter);\n    }\n\n    function getRoleRequest(bytes32 electionId)\n        public\n        view\n        returns (bytes32 id, uint256 role)\n    {\n        id = _getRequestIdForRole(electionId);\n        role = uint256(_roleRequests[electionId][id].requestType);\n    }\n\n    function revokeRoleRequest(bytes32 electionId) public {\n        bytes32 id = _getRequestIdForRole(electionId);\n        require(\n            _roleRequests[electionId][id].user == msg.sender,\n            \"You can't revoke a role request you don't have yet.\"\n        );\n        delete _roleRequests[electionId][id];\n    }\n\n    function _requestRole(\n        bytes32 electionId,\n        bytes32 id,\n        RoleStates requestType\n    ) private {\n        _roleRequests[electionId][id] = RequestData({\n            id: id,\n            user: msg.sender,\n            requestType: requestType\n        });\n    }\n\n    function approveRoleRequest(bytes32 electionId, bytes32 requestId)\n        public\n        canValidateRoleRequest(electionId, requestId)\n    {\n        RequestData memory userRequest = _roleRequests[electionId][requestId];\n        _electionRoles[electionId].members[userRequest.user] = User({\n            user: userRequest.user,\n            canVote: true,\n            validator: msg.sender,\n            role: userRequest.requestType\n        });\n        delete _roleRequests[electionId][requestId];\n        emit RoleRequestApproved(electionId, requestId, msg.sender);\n    }\n\n    function _getRequestIdForRole(bytes32 electionId)\n        internal\n        view\n        returns (bytes32 id)\n    {\n        id = keccak256(abi.encodePacked(electionId, msg.sender));\n    }\n}\n",
  "sourcePath": "/Users/ghostffcode/Documents/UpkitStudio/vhota/contracts/subcontracts/Roles.sol",
  "compiler": {
    "name": "solc",
    "version": "0.8.0+commit.c7dfd78e.Emscripten.clang"
  },
  "schemaVersion": "3.4.1",
  "updatedAt": "2021-06-24T10:16:56.947Z",
  "devdoc": {
    "kind": "dev",
    "methods": {},
    "version": 1
  },
  "userdoc": {
    "kind": "user",
    "methods": {},
    "version": 1
  }
}