{
  "contractName": "Roles",
  "abi": [
    {
      "anonymous": false,
      "inputs": [
        {
          "indexed": true,
          "internalType": "bytes32",
          "name": "election",
          "type": "bytes32"
        },
        {
          "indexed": true,
          "internalType": "address",
          "name": "newAdmin",
          "type": "address"
        },
        {
          "indexed": true,
          "internalType": "address",
          "name": "sender",
          "type": "address"
        }
      ],
      "name": "AdminAdded",
      "type": "event"
    },
    {
      "inputs": [
        {
          "internalType": "bytes32",
          "name": "electionId",
          "type": "bytes32"
        }
      ],
      "name": "getRoleForElection",
      "outputs": [
        {
          "internalType": "uint256",
          "name": "role",
          "type": "uint256"
        }
      ],
      "stateMutability": "view",
      "type": "function"
    },
    {
      "inputs": [
        {
          "internalType": "bytes32",
          "name": "electionId",
          "type": "bytes32"
        }
      ],
      "name": "requestStateValidatorRole",
      "outputs": [
        {
          "internalType": "bytes32",
          "name": "id",
          "type": "bytes32"
        }
      ],
      "stateMutability": "nonpayable",
      "type": "function"
    },
    {
      "inputs": [
        {
          "internalType": "bytes32",
          "name": "electionId",
          "type": "bytes32"
        }
      ],
      "name": "requestZoneValidatorRole",
      "outputs": [
        {
          "internalType": "bytes32",
          "name": "id",
          "type": "bytes32"
        }
      ],
      "stateMutability": "nonpayable",
      "type": "function"
    },
    {
      "inputs": [
        {
          "internalType": "bytes32",
          "name": "electionId",
          "type": "bytes32"
        }
      ],
      "name": "requestVoterRole",
      "outputs": [
        {
          "internalType": "bytes32",
          "name": "id",
          "type": "bytes32"
        }
      ],
      "stateMutability": "nonpayable",
      "type": "function"
    },
    {
      "inputs": [
        {
          "internalType": "bytes32",
          "name": "electionId",
          "type": "bytes32"
        }
      ],
      "name": "getRoleRequest",
      "outputs": [
        {
          "internalType": "bytes32",
          "name": "id",
          "type": "bytes32"
        },
        {
          "internalType": "uint256",
          "name": "role",
          "type": "uint256"
        }
      ],
      "stateMutability": "view",
      "type": "function"
    },
    {
      "inputs": [
        {
          "internalType": "bytes32",
          "name": "electionId",
          "type": "bytes32"
        }
      ],
      "name": "revokeRoleRequest",
      "outputs": [],
      "stateMutability": "nonpayable",
      "type": "function"
    },
    {
      "inputs": [
        {
          "internalType": "bytes32",
          "name": "electionId",
          "type": "bytes32"
        },
        {
          "internalType": "bytes32",
          "name": "requestId",
          "type": "bytes32"
        }
      ],
      "name": "approveRoleRequest",
      "outputs": [],
      "stateMutability": "nonpayable",
      "type": "function"
    }
  ],
  "bytecode": "0x608060405234801561001057600080fd5b50610d26806100206000396000f3fe608060405234801561001057600080fd5b506004361061007d5760003560e01c8063910dcf711161005b578063910dcf7114610112578063a7cd35f51461012e578063ab7c73431461015f578063bc5c419f1461018f5761007d565b806339b476081461008257806348b24c9c146100b25780635fa14578146100e2575b600080fd5b61009c60048036038101906100979190610a00565b6101ab565b6040516100a99190610ba7565b60405180910390f35b6100cc60048036038101906100c79190610a00565b610250565b6040516100d99190610b43565b60405180910390f35b6100fc60048036038101906100f79190610a00565b61026e565b6040516101099190610b43565b60405180910390f35b61012c60048036038101906101279190610a00565b61028c565b005b61014860048036038101906101439190610a00565b610306565b604051610156929190610b5e565b60405180910390f35b61017960048036038101906101749190610a00565b610387565b6040516101869190610b43565b60405180910390f35b6101a960048036038101906101a49190610a29565b6103a5565b005b60006001600083815260200190815260200160002060050160003373ffffffffffffffffffffffffffffffffffffffff1673ffffffffffffffffffffffffffffffffffffffff16815260200190815260200160002060010160149054906101000a900460ff166004811115610249577f4e487b7100000000000000000000000000000000000000000000000000000000600052602160045260246000fd5b9050919050565b600061025b8261087e565b9050610269828260026108b0565b919050565b60006102798261087e565b9050610287828260016108b0565b919050565b60006102978261087e565b905060008083815260200190815260200160002060008281526020019081526020016000206000808201600090556001820160006101000a81549073ffffffffffffffffffffffffffffffffffffffff02191690556001820160146101000a81549060ff021916905550505050565b6000806103128361087e565b9150600080848152602001908152602001600020600083815260200190815260200160002060010160149054906101000a900460ff166004811115610380577f4e487b7100000000000000000000000000000000000000000000000000000000600052602160045260246000fd5b9050915091565b60006103928261087e565b90506103a0828260036108b0565b919050565b81816000806000848152602001908152602001600020600083815260200190815260200160002060010160149054906101000a900460ff166004811115610415577f4e487b7100000000000000000000000000000000000000000000000000000000600052602160045260246000fd5b905060006001826104269190610bd3565b9050806001600086815260200190815260200160002060050160003373ffffffffffffffffffffffffffffffffffffffff1673ffffffffffffffffffffffffffffffffffffffff16815260200190815260200160002060010160149054906101000a900460ff1660048111156104c5577f4e487b7100000000000000000000000000000000000000000000000000000000600052602160045260246000fd5b14610505576040517f08c379a00000000000000000000000000000000000000000000000000000000081526004016104fc90610b87565b60405180910390fd5b60008060008881526020019081526020016000206000878152602001908152602001600020604051806060016040529081600082015481526020016001820160009054906101000a900473ffffffffffffffffffffffffffffffffffffffff1673ffffffffffffffffffffffffffffffffffffffff1673ffffffffffffffffffffffffffffffffffffffff1681526020016001820160149054906101000a900460ff1660048111156105e0577f4e487b7100000000000000000000000000000000000000000000000000000000600052602160045260246000fd5b6004811115610618577f4e487b7100000000000000000000000000000000000000000000000000000000600052602160045260246000fd5b8152505090506040518060800160405280826020015173ffffffffffffffffffffffffffffffffffffffff1681526020016001151581526020013373ffffffffffffffffffffffffffffffffffffffff168152602001826040015160048111156106ab577f4e487b7100000000000000000000000000000000000000000000000000000000600052602160045260246000fd5b815250600160008981526020019081526020016000206005016000836020015173ffffffffffffffffffffffffffffffffffffffff1673ffffffffffffffffffffffffffffffffffffffff16815260200190815260200160002060008201518160000160006101000a81548173ffffffffffffffffffffffffffffffffffffffff021916908373ffffffffffffffffffffffffffffffffffffffff16021790555060208201518160000160146101000a81548160ff02191690831515021790555060408201518160010160006101000a81548173ffffffffffffffffffffffffffffffffffffffff021916908373ffffffffffffffffffffffffffffffffffffffff16021790555060608201518160010160146101000a81548160ff02191690836004811115610804577f4e487b7100000000000000000000000000000000000000000000000000000000600052602160045260246000fd5b021790555090505060008088815260200190815260200160002060008781526020019081526020016000206000808201600090556001820160006101000a81549073ffffffffffffffffffffffffffffffffffffffff02191690556001820160146101000a81549060ff0219169055505050505050505050565b60008133604051602001610893929190610b17565b604051602081830303815290604052805190602001209050919050565b60405180606001604052808381526020013373ffffffffffffffffffffffffffffffffffffffff168152602001826004811115610916577f4e487b7100000000000000000000000000000000000000000000000000000000600052602160045260246000fd5b81525060008085815260200190815260200160002060008481526020019081526020016000206000820151816000015560208201518160010160006101000a81548173ffffffffffffffffffffffffffffffffffffffff021916908373ffffffffffffffffffffffffffffffffffffffff16021790555060408201518160010160146101000a81548160ff021916908360048111156109de577f4e487b7100000000000000000000000000000000000000000000000000000000600052602160045260246000fd5b0217905550905050505050565b6000813590506109fa81610cd9565b92915050565b600060208284031215610a1257600080fd5b6000610a20848285016109eb565b91505092915050565b60008060408385031215610a3c57600080fd5b6000610a4a858286016109eb565b9250506020610a5b858286016109eb565b9150509250929050565b610a76610a7182610c29565b610c6f565b82525050565b610a8581610c3b565b82525050565b610a9c610a9782610c3b565b610c81565b82525050565b6000610aaf603983610bc2565b91507f596f7520646f6e277420686176652074686520726571756972656420726f6c6560008301527f20746f20617070726f7665207468697320726571756573742e000000000000006020830152604082019050919050565b610b1181610c65565b82525050565b6000610b238285610a8b565b602082019150610b338284610a65565b6014820191508190509392505050565b6000602082019050610b586000830184610a7c565b92915050565b6000604082019050610b736000830185610a7c565b610b806020830184610b08565b9392505050565b60006020820190508181036000830152610ba081610aa2565b9050919050565b6000602082019050610bbc6000830184610b08565b92915050565b600082825260208201905092915050565b6000610bde82610c65565b9150610be983610c65565b9250827fffffffffffffffffffffffffffffffffffffffffffffffffffffffffffffffff03821115610c1e57610c1d610c9d565b5b828201905092915050565b6000610c3482610c45565b9050919050565b6000819050919050565b600073ffffffffffffffffffffffffffffffffffffffff82169050919050565b6000819050919050565b6000610c7a82610c8b565b9050919050565b6000819050919050565b6000610c9682610ccc565b9050919050565b7f4e487b7100000000000000000000000000000000000000000000000000000000600052601160045260246000fd5b60008160601b9050919050565b610ce281610c3b565b8114610ced57600080fd5b5056fea26469706673582212208aa99ad5576397fe32cf6ae1d17547a4eae2a14f079bb46ed59818650dfe072d64736f6c63430008000033",
  "immutableReferences": {},
  "source": "// SPDX-License-Identifier: UNLICENSED\npragma solidity ^0.8.0;\n\ncontract Roles {\n    enum RoleStates {nonuser, voter, zone, state, federal}\n\n    struct User {\n        address user;\n        bool canVote;\n        address validator;\n        RoleStates role;\n    }\n\n    struct RolesData {\n        uint256 adminsCount;\n        uint256 stateValidatorsCount;\n        uint256 zoneValidatorsCount;\n        uint256 votersCount;\n        uint256 adminLimit;\n        mapping(address => User) members;\n    }\n\n    struct RequestData {\n        bytes32 id;\n        address user;\n        RoleStates requestType;\n    }\n\n    // electionId -> uniqueRequestId -> User Address\n    mapping(bytes32 => mapping(bytes32 => RequestData)) private _roleRequests;\n    // electionId\n    mapping(bytes32 => RolesData) private _electionRoles;\n\n    // events\n    event AdminAdded(\n        bytes32 indexed election,\n        address indexed newAdmin,\n        address indexed sender\n    );\n\n    // modifiers\n    modifier isElectionAdmin(bytes32 electionId) {\n        require(\n            _electionRoles[electionId].members[msg.sender].role ==\n                RoleStates.federal,\n            \"You're not admin for this election\"\n        );\n        _;\n    }\n\n    modifier isCorrectValidator(bytes32 electionId, RoleStates role) {\n        require(_electionRoles[electionId].members[msg.sender].role == role);\n        _;\n    }\n\n    modifier isValidVoter(bytes32 electionId) {\n        require(\n            _electionRoles[electionId].members[msg.sender].canVote,\n            \"You're not a verified voter for this election\"\n        );\n        _;\n    }\n\n    modifier isValidRoleRequest(bytes32 electionId, bytes32 requestId) {\n        require(\n            _roleRequests[electionId][requestId].user != address(0),\n            \"Invalid role request\"\n        );\n        _;\n    }\n\n    modifier canValidateRoleRequest(bytes32 electionId, bytes32 requestId) {\n        uint256 requestState =\n            uint256(_roleRequests[electionId][requestId].requestType);\n        uint256 requiredApproverRole = requestState + 1;\n        require(\n            uint256(_electionRoles[electionId].members[msg.sender].role) ==\n                requiredApproverRole,\n            \"You don't have the required role to approve this request.\"\n        );\n        _;\n    }\n\n    // functions\n    function _setupRolesForElection(bytes32 electionId, uint256 _adminLimit)\n        internal\n    {\n        _electionRoles[electionId].members[msg.sender] = User({\n            user: msg.sender,\n            canVote: true,\n            validator: address(0),\n            role: RoleStates.federal\n        });\n        _electionRoles[electionId].adminLimit = _adminLimit;\n        _electionRoles[electionId].adminsCount += 1;\n    }\n\n    function getRoleForElection(bytes32 electionId)\n        public\n        view\n        returns (uint256 role)\n    {\n        role = uint256(_electionRoles[electionId].members[msg.sender].role);\n    }\n\n    function _addElectionAdmin(bytes32 electionId, address _newAdmin)\n        internal\n        isElectionAdmin(electionId)\n    {\n        _electionRoles[electionId].members[_newAdmin] = User({\n            user: _newAdmin,\n            canVote: true,\n            validator: msg.sender,\n            role: RoleStates.federal\n        });\n        emit AdminAdded(electionId, _newAdmin, msg.sender);\n    }\n\n    function requestStateValidatorRole(bytes32 electionId)\n        public\n        returns (bytes32 id)\n    {\n        id = _getRequestIdForRole(electionId);\n        _requestRole(electionId, id, RoleStates.state);\n    }\n\n    function requestZoneValidatorRole(bytes32 electionId)\n        public\n        returns (bytes32 id)\n    {\n        id = _getRequestIdForRole(electionId);\n        _requestRole(electionId, id, RoleStates.zone);\n    }\n\n    function requestVoterRole(bytes32 electionId) public returns (bytes32 id) {\n        id = _getRequestIdForRole(electionId);\n        _requestRole(electionId, id, RoleStates.voter);\n    }\n\n    function getRoleRequest(bytes32 electionId)\n        public\n        view\n        returns (bytes32 id, uint256 role)\n    {\n        id = _getRequestIdForRole(electionId);\n        role = uint256(_roleRequests[electionId][id].requestType);\n    }\n\n    function revokeRoleRequest(bytes32 electionId) public {\n        bytes32 id = _getRequestIdForRole(electionId);\n        delete _roleRequests[electionId][id];\n    }\n\n    function _requestRole(\n        bytes32 electionId,\n        bytes32 id,\n        RoleStates requestType\n    ) private {\n        _roleRequests[electionId][id] = RequestData({\n            id: id,\n            user: msg.sender,\n            requestType: requestType\n        });\n    }\n\n    function approveRoleRequest(bytes32 electionId, bytes32 requestId)\n        public\n        canValidateRoleRequest(electionId, requestId)\n    {\n        RequestData memory userRequest = _roleRequests[electionId][requestId];\n        _electionRoles[electionId].members[userRequest.user] = User({\n            user: userRequest.user,\n            canVote: true,\n            validator: msg.sender,\n            role: userRequest.requestType\n        });\n        delete _roleRequests[electionId][requestId];\n    }\n\n    function _getRequestIdForRole(bytes32 electionId)\n        internal\n        view\n        returns (bytes32 id)\n    {\n        id = keccak256(abi.encodePacked(electionId, msg.sender));\n    }\n}\n",
  "sourcePath": "/Users/ghostffcode/Documents/UpkitStudio/vhota/contracts/subcontracts/Roles.sol",
  "compiler": {
    "name": "solc",
    "version": "0.8.0+commit.c7dfd78e.Emscripten.clang"
  },
  "schemaVersion": "3.4.1",
  "updatedAt": "2021-06-24T03:44:49.727Z",
  "devdoc": {
    "kind": "dev",
    "methods": {},
    "version": 1
  },
  "userdoc": {
    "kind": "user",
    "methods": {},
    "version": 1
  }
}