{
  "contractName": "Vhota",
  "abi": [
    {
      "anonymous": false,
      "inputs": [
        {
          "indexed": true,
          "internalType": "bytes32",
          "name": "election",
          "type": "bytes32"
        },
        {
          "indexed": true,
          "internalType": "address",
          "name": "newAdmin",
          "type": "address"
        },
        {
          "indexed": true,
          "internalType": "address",
          "name": "sender",
          "type": "address"
        }
      ],
      "name": "AdminAdded",
      "type": "event"
    },
    {
      "anonymous": false,
      "inputs": [
        {
          "indexed": true,
          "internalType": "bytes32",
          "name": "id",
          "type": "bytes32"
        },
        {
          "indexed": true,
          "internalType": "string",
          "name": "name",
          "type": "string"
        },
        {
          "indexed": true,
          "internalType": "string",
          "name": "party",
          "type": "string"
        },
        {
          "indexed": false,
          "internalType": "string",
          "name": "manifesto",
          "type": "string"
        },
        {
          "indexed": false,
          "internalType": "address",
          "name": "admin",
          "type": "address"
        }
      ],
      "name": "CandidateAdded",
      "type": "event"
    },
    {
      "anonymous": false,
      "inputs": [
        {
          "indexed": false,
          "internalType": "bytes32",
          "name": "id",
          "type": "bytes32"
        },
        {
          "indexed": false,
          "internalType": "address",
          "name": "sender",
          "type": "address"
        }
      ],
      "name": "ElectionCreated",
      "type": "event"
    },
    {
      "inputs": [
        {
          "internalType": "bytes32",
          "name": "electionId",
          "type": "bytes32"
        },
        {
          "internalType": "bytes32",
          "name": "requestId",
          "type": "bytes32"
        }
      ],
      "name": "approveRoleRequest",
      "outputs": [],
      "stateMutability": "nonpayable",
      "type": "function"
    },
    {
      "inputs": [
        {
          "internalType": "bytes32",
          "name": "electionId",
          "type": "bytes32"
        },
        {
          "internalType": "bytes32",
          "name": "candidateId",
          "type": "bytes32"
        }
      ],
      "name": "getCandidateById",
      "outputs": [
        {
          "internalType": "bytes32",
          "name": "id",
          "type": "bytes32"
        },
        {
          "internalType": "string",
          "name": "name",
          "type": "string"
        },
        {
          "internalType": "string",
          "name": "party",
          "type": "string"
        },
        {
          "internalType": "string",
          "name": "manifesto",
          "type": "string"
        },
        {
          "internalType": "uint256",
          "name": "votes",
          "type": "uint256"
        },
        {
          "internalType": "bool",
          "name": "disqualified",
          "type": "bool"
        }
      ],
      "stateMutability": "view",
      "type": "function",
      "constant": true
    },
    {
      "inputs": [
        {
          "internalType": "bytes32",
          "name": "electionId",
          "type": "bytes32"
        }
      ],
      "name": "getCandidatesForElection",
      "outputs": [
        {
          "internalType": "bytes32[]",
          "name": "",
          "type": "bytes32[]"
        }
      ],
      "stateMutability": "view",
      "type": "function",
      "constant": true
    },
    {
      "inputs": [
        {
          "internalType": "bytes32",
          "name": "electionId",
          "type": "bytes32"
        }
      ],
      "name": "getRoleForElection",
      "outputs": [
        {
          "internalType": "uint256",
          "name": "role",
          "type": "uint256"
        }
      ],
      "stateMutability": "view",
      "type": "function",
      "constant": true
    },
    {
      "inputs": [
        {
          "internalType": "bytes32",
          "name": "electionId",
          "type": "bytes32"
        }
      ],
      "name": "getRoleRequest",
      "outputs": [
        {
          "internalType": "bytes32",
          "name": "id",
          "type": "bytes32"
        },
        {
          "internalType": "uint256",
          "name": "role",
          "type": "uint256"
        }
      ],
      "stateMutability": "view",
      "type": "function",
      "constant": true
    },
    {
      "inputs": [
        {
          "internalType": "bytes32",
          "name": "electionId",
          "type": "bytes32"
        }
      ],
      "name": "requestStateValidatorRole",
      "outputs": [
        {
          "internalType": "bytes32",
          "name": "id",
          "type": "bytes32"
        }
      ],
      "stateMutability": "nonpayable",
      "type": "function"
    },
    {
      "inputs": [
        {
          "internalType": "bytes32",
          "name": "electionId",
          "type": "bytes32"
        }
      ],
      "name": "requestVoterRole",
      "outputs": [
        {
          "internalType": "bytes32",
          "name": "id",
          "type": "bytes32"
        }
      ],
      "stateMutability": "nonpayable",
      "type": "function"
    },
    {
      "inputs": [
        {
          "internalType": "bytes32",
          "name": "electionId",
          "type": "bytes32"
        }
      ],
      "name": "requestZoneValidatorRole",
      "outputs": [
        {
          "internalType": "bytes32",
          "name": "id",
          "type": "bytes32"
        }
      ],
      "stateMutability": "nonpayable",
      "type": "function"
    },
    {
      "inputs": [
        {
          "internalType": "bytes32",
          "name": "electionId",
          "type": "bytes32"
        }
      ],
      "name": "revokeRoleRequest",
      "outputs": [],
      "stateMutability": "nonpayable",
      "type": "function"
    },
    {
      "inputs": [
        {
          "internalType": "string",
          "name": "_name",
          "type": "string"
        },
        {
          "internalType": "string",
          "name": "_description",
          "type": "string"
        },
        {
          "internalType": "uint256",
          "name": "start",
          "type": "uint256"
        },
        {
          "internalType": "uint256",
          "name": "end",
          "type": "uint256"
        },
        {
          "internalType": "uint256",
          "name": "_adminLimit",
          "type": "uint256"
        }
      ],
      "name": "createElection",
      "outputs": [
        {
          "internalType": "bytes32",
          "name": "id",
          "type": "bytes32"
        }
      ],
      "stateMutability": "nonpayable",
      "type": "function"
    },
    {
      "inputs": [
        {
          "internalType": "bytes32",
          "name": "electionId",
          "type": "bytes32"
        },
        {
          "internalType": "address",
          "name": "_newAdmin",
          "type": "address"
        }
      ],
      "name": "addElectionAdmin",
      "outputs": [],
      "stateMutability": "nonpayable",
      "type": "function"
    },
    {
      "inputs": [
        {
          "internalType": "bytes32",
          "name": "id",
          "type": "bytes32"
        }
      ],
      "name": "getElectionById",
      "outputs": [
        {
          "internalType": "bytes32",
          "name": "_id",
          "type": "bytes32"
        },
        {
          "internalType": "string",
          "name": "name",
          "type": "string"
        },
        {
          "internalType": "string",
          "name": "description",
          "type": "string"
        },
        {
          "internalType": "uint256",
          "name": "pollStart",
          "type": "uint256"
        },
        {
          "internalType": "uint256",
          "name": "pollEnd",
          "type": "uint256"
        },
        {
          "internalType": "address",
          "name": "creator",
          "type": "address"
        }
      ],
      "stateMutability": "view",
      "type": "function",
      "constant": true
    },
    {
      "inputs": [
        {
          "internalType": "bytes32",
          "name": "electionId",
          "type": "bytes32"
        },
        {
          "internalType": "string",
          "name": "name",
          "type": "string"
        },
        {
          "internalType": "string",
          "name": "manifesto",
          "type": "string"
        },
        {
          "internalType": "string",
          "name": "party",
          "type": "string"
        }
      ],
      "name": "addCandidateToElection",
      "outputs": [],
      "stateMutability": "nonpayable",
      "type": "function"
    },
    {
      "inputs": [
        {
          "internalType": "bytes32",
          "name": "election",
          "type": "bytes32"
        },
        {
          "internalType": "bytes32",
          "name": "candidate",
          "type": "bytes32"
        }
      ],
      "name": "voteElectionCandidate",
      "outputs": [],
      "stateMutability": "nonpayable",
      "type": "function"
    }
  ],
  "bytecode": "0x6080604052600060045534801561001557600080fd5b506129ab806100256000396000f3fe608060405234801561001057600080fd5b50600436106100ea5760003560e01c8063a7cd35f51161008c578063bca5bd7811610066578063bca5bd7814610299578063f2578fd8146102b5578063fef4f3d7146102d1578063ff50e12f14610306576100ea565b8063a7cd35f51461021c578063ab7c73431461024d578063bc5c419f1461027d576100ea565b80635b9f2f92116100c85780635b9f2f921461016b5780635fa14578146101a0578063910dcf71146101d0578063a27116be146101ec576100ea565b8063033c2857146100ef57806339b476081461010b57806348b24c9c1461013b575b600080fd5b61010960048036038101906101049190611e78565b610336565b005b61012560048036038101906101209190611e4f565b61039e565b6040516101329190612655565b60405180910390f35b61015560048036038101906101509190611e4f565b610443565b6040516101629190612433565b60405180910390f35b61018560048036038101906101809190611eb4565b610461565b60405161019796959493929190612477565b60405180910390f35b6101ba60048036038101906101b59190611e4f565b610783565b6040516101c79190612433565b60405180910390f35b6101ea60048036038101906101e59190611e4f565b6107a1565b005b61020660048036038101906102019190611e4f565b61081b565b6040516102139190612411565b60405180910390f35b61023660048036038101906102319190611e4f565b610886565b60405161024492919061255c565b60405180910390f35b61026760048036038101906102629190611e4f565b610907565b6040516102749190612433565b60405180910390f35b61029760048036038101906102929190611eb4565b610925565b005b6102b360048036038101906102ae9190611eb4565b610dfe565b005b6102cf60048036038101906102ca9190611ef0565b610e02565b005b6102eb60048036038101906102e69190611e4f565b610fdf565b6040516102fd969594939291906124ed565b60405180910390f35b610320600480360381019061031b9190611f9b565b6111a2565b60405161032d9190612433565b60405180910390f35b818060056000838152602001908152602001600020600001541461038f576040517f08c379a0000000000000000000000000000000000000000000000000000000008152600401610386906125d5565b60405180910390fd5b6103998383611454565b505050565b60006001600083815260200190815260200160002060050160003373ffffffffffffffffffffffffffffffffffffffff1673ffffffffffffffffffffffffffffffffffffffff16815260200190815260200160002060010160149054906101000a900460ff16600481111561043c577f4e487b7100000000000000000000000000000000000000000000000000000000600052602160045260246000fd5b9050919050565b600061044e826117ac565b905061045c828260026117de565b919050565b6000606080606060008087878060026000848152602001908152602001600020600083815260200190815260200160002060000154146104d6576040517f08c379a00000000000000000000000000000000000000000000000000000000081526004016104cd906125f5565b60405180910390fd5b600260008b815260200190815260200160002060008a8152602001908152602001600020600001549750600260008b815260200190815260200160002060008a815260200190815260200160002060010180546105329061281b565b80601f016020809104026020016040519081016040528092919081815260200182805461055e9061281b565b80156105ab5780601f10610580576101008083540402835291602001916105ab565b820191906000526020600020905b81548152906001019060200180831161058e57829003601f168201915b50505050509650600260008b815260200190815260200160002060008a815260200190815260200160002060020180546105e49061281b565b80601f01602080910402602001604051908101604052809291908181526020018280546106109061281b565b801561065d5780601f106106325761010080835404028352916020019161065d565b820191906000526020600020905b81548152906001019060200180831161064057829003601f168201915b50505050509550600260008b815260200190815260200160002060008a815260200190815260200160002060030180546106969061281b565b80601f01602080910402602001604051908101604052809291908181526020018280546106c29061281b565b801561070f5780601f106106e45761010080835404028352916020019161070f565b820191906000526020600020905b8154815290600101906020018083116106f257829003601f168201915b50505050509450600260008b815260200190815260200160002060008a8152602001908152602001600020600401549350600260008b815260200190815260200160002060008a815260200190815260200160002060050160009054906101000a900460ff16925050509295509295509295565b600061078e826117ac565b905061079c828260016117de565b919050565b60006107ac826117ac565b905060008083815260200190815260200160002060008281526020019081526020016000206000808201600090556001820160006101000a81549073ffffffffffffffffffffffffffffffffffffffff02191690556001820160146101000a81549060ff021916905550505050565b60606003600083815260200190815260200160002080548060200260200160405190810160405280929190818152602001828054801561087a57602002820191906000526020600020905b815481526020019060010190808311610866575b50505050509050919050565b600080610892836117ac565b9150600080848152602001908152602001600020600083815260200190815260200160002060010160149054906101000a900460ff166004811115610900577f4e487b7100000000000000000000000000000000000000000000000000000000600052602160045260246000fd5b9050915091565b6000610912826117ac565b9050610920828260036117de565b919050565b81816000806000848152602001908152602001600020600083815260200190815260200160002060010160149054906101000a900460ff166004811115610995577f4e487b7100000000000000000000000000000000000000000000000000000000600052602160045260246000fd5b905060006001826109a69190612731565b9050806001600086815260200190815260200160002060050160003373ffffffffffffffffffffffffffffffffffffffff1673ffffffffffffffffffffffffffffffffffffffff16815260200190815260200160002060010160149054906101000a900460ff166004811115610a45577f4e487b7100000000000000000000000000000000000000000000000000000000600052602160045260246000fd5b14610a85576040517f08c379a0000000000000000000000000000000000000000000000000000000008152600401610a7c90612615565b60405180910390fd5b60008060008881526020019081526020016000206000878152602001908152602001600020604051806060016040529081600082015481526020016001820160009054906101000a900473ffffffffffffffffffffffffffffffffffffffff1673ffffffffffffffffffffffffffffffffffffffff1673ffffffffffffffffffffffffffffffffffffffff1681526020016001820160149054906101000a900460ff166004811115610b60577f4e487b7100000000000000000000000000000000000000000000000000000000600052602160045260246000fd5b6004811115610b98577f4e487b7100000000000000000000000000000000000000000000000000000000600052602160045260246000fd5b8152505090506040518060800160405280826020015173ffffffffffffffffffffffffffffffffffffffff1681526020016001151581526020013373ffffffffffffffffffffffffffffffffffffffff16815260200182604001516004811115610c2b577f4e487b7100000000000000000000000000000000000000000000000000000000600052602160045260246000fd5b815250600160008981526020019081526020016000206005016000836020015173ffffffffffffffffffffffffffffffffffffffff1673ffffffffffffffffffffffffffffffffffffffff16815260200190815260200160002060008201518160000160006101000a81548173ffffffffffffffffffffffffffffffffffffffff021916908373ffffffffffffffffffffffffffffffffffffffff16021790555060208201518160000160146101000a81548160ff02191690831515021790555060408201518160010160006101000a81548173ffffffffffffffffffffffffffffffffffffffff021916908373ffffffffffffffffffffffffffffffffffffffff16021790555060608201518160010160146101000a81548160ff02191690836004811115610d84577f4e487b7100000000000000000000000000000000000000000000000000000000600052602160045260246000fd5b021790555090505060008088815260200190815260200160002060008781526020019081526020016000206000808201600090556001820160006101000a81549073ffffffffffffffffffffffffffffffffffffffff02191690556001820160146101000a81549060ff0219169055505050505050505050565b5050565b8380600560008381526020019081526020016000206000015414610e5b576040517f08c379a0000000000000000000000000000000000000000000000000000000008152600401610e52906125d5565b60405180910390fd5b8442600560008381526020019081526020016000206004015411610eb4576040517f08c379a0000000000000000000000000000000000000000000000000000000008152600401610eab90612635565b60405180910390fd5b85600480811115610eee577f4e487b7100000000000000000000000000000000000000000000000000000000600052602160045260246000fd5b6001600083815260200190815260200160002060050160003373ffffffffffffffffffffffffffffffffffffffff1673ffffffffffffffffffffffffffffffffffffffff16815260200190815260200160002060010160149054906101000a900460ff166004811115610f8a577f4e487b7100000000000000000000000000000000000000000000000000000000600052602160045260246000fd5b14610fca576040517f08c379a0000000000000000000000000000000000000000000000000000000008152600401610fc1906125b5565b60405180910390fd5b610fd687878787611919565b50505050505050565b6000606080600080600086955060056000888152602001908152602001600020600201805461100d9061281b565b80601f01602080910402602001604051908101604052809291908181526020018280546110399061281b565b80156110865780601f1061105b57610100808354040283529160200191611086565b820191906000526020600020905b81548152906001019060200180831161106957829003601f168201915b505050505094506005600088815260200190815260200160002060030180546110ae9061281b565b80601f01602080910402602001604051908101604052809291908181526020018280546110da9061281b565b80156111275780601f106110fc57610100808354040283529160200191611127565b820191906000526020600020905b81548152906001019060200180831161110a57829003601f168201915b5050505050935060056000888152602001908152602001600020600401549250600560008881526020019081526020016000206005015491506005600088815260200190815260200160002060060160009054906101000a900473ffffffffffffffffffffffffffffffffffffffff16905091939550919395565b60006001600460008282546111b79190612731565b925050819055508585336004546040516020016111d794939291906123cb565b6040516020818303038152906040528051906020012090506040518060e0016040528082815260200160045481526020018781526020018681526020018581526020018481526020013373ffffffffffffffffffffffffffffffffffffffff16815250600560008381526020019081526020016000206000820151816000015560208201518160010155604082015181600201908051906020019061127d929190611d05565b50606082015181600301908051906020019061129a929190611d05565b506080820151816004015560a0820151816005015560c08201518160060160006101000a81548173ffffffffffffffffffffffffffffffffffffffff021916908373ffffffffffffffffffffffffffffffffffffffff160217905550905050600660405180604001604052803373ffffffffffffffffffffffffffffffffffffffff16815260200183815250908060018154018082558091505060019003906000526020600020906002020160009091909190915060008201518160000160006101000a81548173ffffffffffffffffffffffffffffffffffffffff021916908373ffffffffffffffffffffffffffffffffffffffff160217905550602082015181600101555050600760003373ffffffffffffffffffffffffffffffffffffffff1673ffffffffffffffffffffffffffffffffffffffff1681526020019081526020016000208190806001815401808255809150506001900390600052602060002001600090919091909150556114128183611ad6565b7f159534d44b7c1bfbdf7a96279a1568348c83a4ac59986f77bff620465adec7e6813360405161144392919061244e565b60405180910390a195945050505050565b8160048081111561148e577f4e487b7100000000000000000000000000000000000000000000000000000000600052602160045260246000fd5b6001600083815260200190815260200160002060050160003373ffffffffffffffffffffffffffffffffffffffff1673ffffffffffffffffffffffffffffffffffffffff16815260200190815260200160002060010160149054906101000a900460ff16600481111561152a577f4e487b7100000000000000000000000000000000000000000000000000000000600052602160045260246000fd5b1461156a576040517f08c379a0000000000000000000000000000000000000000000000000000000008152600401611561906125b5565b60405180910390fd5b60405180608001604052808373ffffffffffffffffffffffffffffffffffffffff1681526020016001151581526020013373ffffffffffffffffffffffffffffffffffffffff1681526020016004808111156115ef577f4e487b7100000000000000000000000000000000000000000000000000000000600052602160045260246000fd5b8152506001600085815260200190815260200160002060050160008473ffffffffffffffffffffffffffffffffffffffff1673ffffffffffffffffffffffffffffffffffffffff16815260200190815260200160002060008201518160000160006101000a81548173ffffffffffffffffffffffffffffffffffffffff021916908373ffffffffffffffffffffffffffffffffffffffff16021790555060208201518160000160146101000a81548160ff02191690831515021790555060408201518160010160006101000a81548173ffffffffffffffffffffffffffffffffffffffff021916908373ffffffffffffffffffffffffffffffffffffffff16021790555060608201518160010160146101000a81548160ff02191690836004811115611744577f4e487b7100000000000000000000000000000000000000000000000000000000600052602160045260246000fd5b02179055509050503373ffffffffffffffffffffffffffffffffffffffff168273ffffffffffffffffffffffffffffffffffffffff16847fd2cc3869a0e939546bd9d2ee07f7ec4521c404a0949b04f5105668e282e1522460405160405180910390a4505050565b600081336040516020016117c1929190612364565b604051602081830303815290604052805190602001209050919050565b60405180606001604052808381526020013373ffffffffffffffffffffffffffffffffffffffff168152602001826004811115611844577f4e487b7100000000000000000000000000000000000000000000000000000000600052602160045260246000fd5b81525060008085815260200190815260200160002060008481526020019081526020016000206000820151816000015560208201518160010160006101000a81548173ffffffffffffffffffffffffffffffffffffffff021916908373ffffffffffffffffffffffffffffffffffffffff16021790555060408201518160010160146101000a81548160ff0219169083600481111561190c577f4e487b7100000000000000000000000000000000000000000000000000000000600052602160045260246000fd5b0217905550905050505050565b6000838260405160200161192e9291906123a7565b60405160208183030381529060405280519060200120905060006040518060c0016040528083815260200186815260200184815260200185815260200160008152602001600015158152509050806002600088815260200190815260200160002060008481526020019081526020016000206000820151816000015560208201518160010190805190602001906119c6929190611d05565b5060408201518160020190805190602001906119e3929190611d05565b506060820151816003019080519060200190611a00929190611d05565b506080820151816004015560a08201518160050160006101000a81548160ff0219169083151502179055509050506003600087815260200190815260200160002082908060018154018082558091505060019003906000526020600020016000909190919091505582604051611a769190612390565b604051809103902085604051611a8c9190612390565b6040518091039020837f04298c5512631ee205d05a28c5771d775e13286906989f78f4f5bc7e841813dd8733604051611ac6929190612585565b60405180910390a4505050505050565b60405180608001604052803373ffffffffffffffffffffffffffffffffffffffff168152602001600115158152602001600073ffffffffffffffffffffffffffffffffffffffff168152602001600480811115611b5c577f4e487b7100000000000000000000000000000000000000000000000000000000600052602160045260246000fd5b8152506001600084815260200190815260200160002060050160003373ffffffffffffffffffffffffffffffffffffffff1673ffffffffffffffffffffffffffffffffffffffff16815260200190815260200160002060008201518160000160006101000a81548173ffffffffffffffffffffffffffffffffffffffff021916908373ffffffffffffffffffffffffffffffffffffffff16021790555060208201518160000160146101000a81548160ff02191690831515021790555060408201518160010160006101000a81548173ffffffffffffffffffffffffffffffffffffffff021916908373ffffffffffffffffffffffffffffffffffffffff16021790555060608201518160010160146101000a81548160ff02191690836004811115611cb1577f4e487b7100000000000000000000000000000000000000000000000000000000600052602160045260246000fd5b021790555090505080600160008481526020019081526020016000206004018190555060018060008481526020019081526020016000206000016000828254611cfa9190612731565b925050819055505050565b828054611d119061281b565b90600052602060002090601f016020900481019282611d335760008555611d7a565b82601f10611d4c57805160ff1916838001178555611d7a565b82800160010185558215611d7a579182015b82811115611d79578251825591602001919060010190611d5e565b5b509050611d879190611d8b565b5090565b5b80821115611da4576000816000905550600101611d8c565b5090565b6000611dbb611db6846126a1565b612670565b905082815260208101848484011115611dd357600080fd5b611dde8482856127d9565b509392505050565b600081359050611df581612930565b92915050565b600081359050611e0a81612947565b92915050565b600082601f830112611e2157600080fd5b8135611e31848260208601611da8565b91505092915050565b600081359050611e498161295e565b92915050565b600060208284031215611e6157600080fd5b6000611e6f84828501611dfb565b91505092915050565b60008060408385031215611e8b57600080fd5b6000611e9985828601611dfb565b9250506020611eaa85828601611de6565b9150509250929050565b60008060408385031215611ec757600080fd5b6000611ed585828601611dfb565b9250506020611ee685828601611dfb565b9150509250929050565b60008060008060808587031215611f0657600080fd5b6000611f1487828801611dfb565b945050602085013567ffffffffffffffff811115611f3157600080fd5b611f3d87828801611e10565b935050604085013567ffffffffffffffff811115611f5a57600080fd5b611f6687828801611e10565b925050606085013567ffffffffffffffff811115611f8357600080fd5b611f8f87828801611e10565b91505092959194509250565b600080600080600060a08688031215611fb357600080fd5b600086013567ffffffffffffffff811115611fcd57600080fd5b611fd988828901611e10565b955050602086013567ffffffffffffffff811115611ff657600080fd5b61200288828901611e10565b945050604061201388828901611e3a565b935050606061202488828901611e3a565b925050608061203588828901611e3a565b9150509295509295909350565b600061204e83836120ed565b60208301905092915050565b61206381612787565b82525050565b61207a61207582612787565b61284d565b82525050565b600061208b826126e1565b6120958185612704565b93506120a0836126d1565b8060005b838110156120d15781516120b88882612042565b97506120c3836126f7565b9250506001810190506120a4565b5085935050505092915050565b6120e781612799565b82525050565b6120f6816127a5565b82525050565b612105816127a5565b82525050565b61211c612117826127a5565b61285f565b82525050565b600061212d826126ec565b6121378185612715565b93506121478185602086016127e8565b61215081612912565b840191505092915050565b6000612166826126ec565b6121708185612726565b93506121808185602086016127e8565b80840191505092915050565b6000612199602283612715565b91507f596f75277265206e6f742061646d696e20666f72207468697320656c6563746960008301527f6f6e0000000000000000000000000000000000000000000000000000000000006020830152604082019050919050565b60006121ff601a83612715565b91507f496e76616c696420656c656374696f6e2073656c656374696f6e0000000000006000830152602082019050919050565b600061223f601183612715565b91507f496e76616c69642043616e6469646174650000000000000000000000000000006000830152602082019050919050565b600061227f603983612715565b91507f596f7520646f6e277420686176652074686520726571756972656420726f6c6560008301527f20746f20617070726f7665207468697320726571756573742e000000000000006020830152604082019050919050565b60006122e5603083612715565b91507f596f752063616e27742061646420612063616e64696461746520746f20616e2060008301527f6f6e676f696e6720656c656374696f6e000000000000000000000000000000006020830152604082019050919050565b612347816127cf565b82525050565b61235e612359826127cf565b61287b565b82525050565b6000612370828561210b565b6020820191506123808284612069565b6014820191508190509392505050565b600061239c828461215b565b915081905092915050565b60006123b3828561215b565b91506123bf828461215b565b91508190509392505050565b60006123d7828761215b565b91506123e3828661215b565b91506123ef8285612069565b6014820191506123ff828461234d565b60208201915081905095945050505050565b6000602082019050818103600083015261242b8184612080565b905092915050565b600060208201905061244860008301846120fc565b92915050565b600060408201905061246360008301856120fc565b612470602083018461205a565b9392505050565b600060c08201905061248c60008301896120fc565b818103602083015261249e8188612122565b905081810360408301526124b28187612122565b905081810360608301526124c68186612122565b90506124d5608083018561233e565b6124e260a08301846120de565b979650505050505050565b600060c08201905061250260008301896120fc565b81810360208301526125148188612122565b905081810360408301526125288187612122565b9050612537606083018661233e565b612544608083018561233e565b61255160a083018461205a565b979650505050505050565b600060408201905061257160008301856120fc565b61257e602083018461233e565b9392505050565b6000604082019050818103600083015261259f8185612122565b90506125ae602083018461205a565b9392505050565b600060208201905081810360008301526125ce8161218c565b9050919050565b600060208201905081810360008301526125ee816121f2565b9050919050565b6000602082019050818103600083015261260e81612232565b9050919050565b6000602082019050818103600083015261262e81612272565b9050919050565b6000602082019050818103600083015261264e816122d8565b9050919050565b600060208201905061266a600083018461233e565b92915050565b6000604051905081810181811067ffffffffffffffff82111715612697576126966128e3565b5b8060405250919050565b600067ffffffffffffffff8211156126bc576126bb6128e3565b5b601f19601f8301169050602081019050919050565b6000819050602082019050919050565b600081519050919050565b600081519050919050565b6000602082019050919050565b600082825260208201905092915050565b600082825260208201905092915050565b600081905092915050565b600061273c826127cf565b9150612747836127cf565b9250827fffffffffffffffffffffffffffffffffffffffffffffffffffffffffffffffff0382111561277c5761277b612885565b5b828201905092915050565b6000612792826127af565b9050919050565b60008115159050919050565b6000819050919050565b600073ffffffffffffffffffffffffffffffffffffffff82169050919050565b6000819050919050565b82818337600083830152505050565b60005b838110156128065780820151818401526020810190506127eb565b83811115612815576000848401525b50505050565b6000600282049050600182168061283357607f821691505b60208210811415612847576128466128b4565b5b50919050565b600061285882612869565b9050919050565b6000819050919050565b600061287482612923565b9050919050565b6000819050919050565b7f4e487b7100000000000000000000000000000000000000000000000000000000600052601160045260246000fd5b7f4e487b7100000000000000000000000000000000000000000000000000000000600052602260045260246000fd5b7f4e487b7100000000000000000000000000000000000000000000000000000000600052604160045260246000fd5b6000601f19601f8301169050919050565b60008160601b9050919050565b61293981612787565b811461294457600080fd5b50565b612950816127a5565b811461295b57600080fd5b50565b612967816127cf565b811461297257600080fd5b5056fea2646970667358221220bf8ddfb6d99db773dfa98d227d7257d85a441e18abe840b0671a38b2c16fe1d464736f6c63430008000033",
  "immutableReferences": {},
  "source": "// SPDX-License-Identifier: UNLICENSED\npragma solidity ^0.8.0;\n\nimport \"./subcontracts/Candidates.sol\";\nimport \"./subcontracts/Roles.sol\";\n\ncontract Vhota is Roles, Candidates {\n    struct Election {\n        bytes32 id;\n        uint256 index;\n        string name;\n        string description;\n        uint256 pollStart;\n        uint256 pollEnd;\n        address creator;\n    }\n\n    struct ElectionMeta {\n        address creator;\n        bytes32 id;\n    }\n\n    // variables\n    uint256 elections = 0;\n    mapping(bytes32 => Election) electionsMap;\n    ElectionMeta[] electionsList;\n    mapping(address => bytes32[]) electionsByUsers;\n    // mapping(address => bytes32[]) associatedElections;\n\n    event ElectionCreated(bytes32 id, address sender);\n\n    modifier isValidElection(bytes32 electionId) {\n        require(\n            electionsMap[electionId].id == electionId,\n            \"Invalid election selection\"\n        );\n        _;\n    }\n\n    modifier isBeforeElectionStart(bytes32 _electionId) {\n        require(\n            electionsMap[_electionId].pollStart > block.timestamp,\n            \"You can't add a candidate to an ongoing election\"\n        );\n        _;\n    }\n\n    modifier isWithinPollDate(bytes32 _electionId) {\n        uint256 currentTime = block.timestamp;\n        require(\n            electionsMap[_electionId].pollStart < currentTime,\n            \"The polls are not yet open for this election\"\n        );\n        require(\n            currentTime > electionsMap[_electionId].pollEnd,\n            \"The polls have closed for this election\"\n        );\n        _;\n    }\n\n    function createElection(\n        string memory _name,\n        string memory _description,\n        uint256 start,\n        uint256 end,\n        uint256 _adminLimit\n    ) public returns (bytes32 id) {\n        elections += 1;\n        // generate unique ID for election\n        // use ID to setup candidate\n        // use ID to setup voters\n        // set poll start and end date\n        id = keccak256(\n            abi.encodePacked(_name, _description, msg.sender, elections)\n        );\n        electionsMap[id] = Election({\n            id: id,\n            index: elections,\n            name: _name,\n            description: _description,\n            pollStart: start,\n            pollEnd: end,\n            creator: msg.sender\n        });\n        electionsList.push(ElectionMeta({creator: msg.sender, id: id}));\n        electionsByUsers[msg.sender].push(id);\n        // add admin roles as needed\n        _setupRolesForElection(id, _adminLimit);\n\n        emit ElectionCreated(id, msg.sender);\n    }\n\n    function addElectionAdmin(bytes32 electionId, address _newAdmin)\n        public\n        isValidElection(electionId)\n    {\n        _addElectionAdmin(electionId, _newAdmin);\n    }\n\n    function getElectionById(bytes32 id)\n        public\n        view\n        returns (\n            bytes32 _id,\n            string memory name,\n            string memory description,\n            uint256 pollStart,\n            uint256 pollEnd,\n            address creator\n        )\n    {\n        _id = id;\n        name = electionsMap[id].name;\n        description = electionsMap[id].description;\n        pollStart = electionsMap[id].pollStart;\n        pollEnd = electionsMap[id].pollEnd;\n        creator = electionsMap[id].creator;\n    }\n\n    function addCandidateToElection(\n        bytes32 electionId,\n        string memory name,\n        string memory manifesto,\n        string memory party\n    )\n        public\n        isValidElection(electionId)\n        isBeforeElectionStart(electionId)\n        isElectionAdmin(electionId)\n    {\n        _addCandidate(electionId, name, manifesto, party);\n    }\n\n    function voteElectionCandidate(bytes32 election, bytes32 candidate) public {\n        //\n    }\n}\n",
  "sourcePath": "/Users/ghostffcode/Documents/UpkitStudio/vhota/contracts/Vhota.sol",
  "compiler": {
    "name": "solc",
    "version": "0.8.0+commit.c7dfd78e.Emscripten.clang"
  },
  "schemaVersion": "3.4.1",
  "updatedAt": "2021-06-24T03:44:55.125Z",
  "networkType": "ethereum",
  "devdoc": {
    "kind": "dev",
    "methods": {},
    "version": 1
  },
  "userdoc": {
    "kind": "user",
    "methods": {},
    "version": 1
  }
}