{
  "contractName": "Vhota",
  "abi": [
    {
      "anonymous": false,
      "inputs": [
        {
          "indexed": true,
          "internalType": "bytes32",
          "name": "election",
          "type": "bytes32"
        },
        {
          "indexed": true,
          "internalType": "address",
          "name": "newAdmin",
          "type": "address"
        },
        {
          "indexed": true,
          "internalType": "address",
          "name": "sender",
          "type": "address"
        }
      ],
      "name": "AdminAdded",
      "type": "event"
    },
    {
      "anonymous": false,
      "inputs": [
        {
          "indexed": true,
          "internalType": "bytes32",
          "name": "id",
          "type": "bytes32"
        },
        {
          "indexed": true,
          "internalType": "string",
          "name": "name",
          "type": "string"
        },
        {
          "indexed": true,
          "internalType": "string",
          "name": "party",
          "type": "string"
        },
        {
          "indexed": false,
          "internalType": "string",
          "name": "manifesto",
          "type": "string"
        },
        {
          "indexed": false,
          "internalType": "address",
          "name": "admin",
          "type": "address"
        }
      ],
      "name": "CandidateAdded",
      "type": "event"
    },
    {
      "anonymous": false,
      "inputs": [
        {
          "indexed": false,
          "internalType": "bytes32",
          "name": "id",
          "type": "bytes32"
        },
        {
          "indexed": false,
          "internalType": "address",
          "name": "sender",
          "type": "address"
        }
      ],
      "name": "ElectionCreated",
      "type": "event"
    },
    {
      "anonymous": false,
      "inputs": [
        {
          "indexed": false,
          "internalType": "bytes32",
          "name": "election",
          "type": "bytes32"
        },
        {
          "indexed": false,
          "internalType": "bytes32",
          "name": "requestId",
          "type": "bytes32"
        },
        {
          "indexed": false,
          "internalType": "address",
          "name": "approver",
          "type": "address"
        }
      ],
      "name": "RoleRequestApproved",
      "type": "event"
    },
    {
      "inputs": [
        {
          "internalType": "bytes32",
          "name": "electionId",
          "type": "bytes32"
        },
        {
          "internalType": "bytes32",
          "name": "requestId",
          "type": "bytes32"
        }
      ],
      "name": "approveRoleRequest",
      "outputs": [],
      "stateMutability": "nonpayable",
      "type": "function"
    },
    {
      "inputs": [
        {
          "internalType": "bytes32",
          "name": "electionId",
          "type": "bytes32"
        },
        {
          "internalType": "bytes32",
          "name": "candidateId",
          "type": "bytes32"
        }
      ],
      "name": "getCandidateById",
      "outputs": [
        {
          "internalType": "bytes32",
          "name": "id",
          "type": "bytes32"
        },
        {
          "internalType": "string",
          "name": "name",
          "type": "string"
        },
        {
          "internalType": "string",
          "name": "party",
          "type": "string"
        },
        {
          "internalType": "string",
          "name": "manifesto",
          "type": "string"
        },
        {
          "internalType": "uint256",
          "name": "votes",
          "type": "uint256"
        },
        {
          "internalType": "bool",
          "name": "disqualified",
          "type": "bool"
        }
      ],
      "stateMutability": "view",
      "type": "function",
      "constant": true
    },
    {
      "inputs": [
        {
          "internalType": "bytes32",
          "name": "electionId",
          "type": "bytes32"
        }
      ],
      "name": "getCandidatesForElection",
      "outputs": [
        {
          "internalType": "bytes32[]",
          "name": "",
          "type": "bytes32[]"
        }
      ],
      "stateMutability": "view",
      "type": "function",
      "constant": true
    },
    {
      "inputs": [
        {
          "internalType": "bytes32",
          "name": "electionId",
          "type": "bytes32"
        }
      ],
      "name": "getRoleForElection",
      "outputs": [
        {
          "internalType": "uint256",
          "name": "role",
          "type": "uint256"
        }
      ],
      "stateMutability": "view",
      "type": "function",
      "constant": true
    },
    {
      "inputs": [
        {
          "internalType": "bytes32",
          "name": "electionId",
          "type": "bytes32"
        }
      ],
      "name": "getRoleRequest",
      "outputs": [
        {
          "internalType": "bytes32",
          "name": "id",
          "type": "bytes32"
        },
        {
          "internalType": "uint256",
          "name": "role",
          "type": "uint256"
        }
      ],
      "stateMutability": "view",
      "type": "function",
      "constant": true
    },
    {
      "inputs": [
        {
          "internalType": "bytes32",
          "name": "electionId",
          "type": "bytes32"
        }
      ],
      "name": "requestStateValidatorRole",
      "outputs": [
        {
          "internalType": "bytes32",
          "name": "id",
          "type": "bytes32"
        }
      ],
      "stateMutability": "nonpayable",
      "type": "function"
    },
    {
      "inputs": [
        {
          "internalType": "bytes32",
          "name": "electionId",
          "type": "bytes32"
        }
      ],
      "name": "requestVoterRole",
      "outputs": [
        {
          "internalType": "bytes32",
          "name": "id",
          "type": "bytes32"
        }
      ],
      "stateMutability": "nonpayable",
      "type": "function"
    },
    {
      "inputs": [
        {
          "internalType": "bytes32",
          "name": "electionId",
          "type": "bytes32"
        }
      ],
      "name": "requestZoneValidatorRole",
      "outputs": [
        {
          "internalType": "bytes32",
          "name": "id",
          "type": "bytes32"
        }
      ],
      "stateMutability": "nonpayable",
      "type": "function"
    },
    {
      "inputs": [
        {
          "internalType": "bytes32",
          "name": "electionId",
          "type": "bytes32"
        }
      ],
      "name": "revokeRoleRequest",
      "outputs": [],
      "stateMutability": "nonpayable",
      "type": "function"
    },
    {
      "inputs": [
        {
          "internalType": "string",
          "name": "_name",
          "type": "string"
        },
        {
          "internalType": "string",
          "name": "_description",
          "type": "string"
        },
        {
          "internalType": "uint256",
          "name": "start",
          "type": "uint256"
        },
        {
          "internalType": "uint256",
          "name": "end",
          "type": "uint256"
        },
        {
          "internalType": "uint256",
          "name": "_adminLimit",
          "type": "uint256"
        }
      ],
      "name": "createElection",
      "outputs": [
        {
          "internalType": "bytes32",
          "name": "id",
          "type": "bytes32"
        }
      ],
      "stateMutability": "nonpayable",
      "type": "function"
    },
    {
      "inputs": [
        {
          "internalType": "bytes32",
          "name": "electionId",
          "type": "bytes32"
        },
        {
          "internalType": "address",
          "name": "_newAdmin",
          "type": "address"
        }
      ],
      "name": "addElectionAdmin",
      "outputs": [],
      "stateMutability": "nonpayable",
      "type": "function"
    },
    {
      "inputs": [
        {
          "internalType": "bytes32",
          "name": "id",
          "type": "bytes32"
        }
      ],
      "name": "getElectionById",
      "outputs": [
        {
          "internalType": "bytes32",
          "name": "_id",
          "type": "bytes32"
        },
        {
          "internalType": "string",
          "name": "name",
          "type": "string"
        },
        {
          "internalType": "string",
          "name": "description",
          "type": "string"
        },
        {
          "internalType": "uint256",
          "name": "pollStart",
          "type": "uint256"
        },
        {
          "internalType": "uint256",
          "name": "pollEnd",
          "type": "uint256"
        },
        {
          "internalType": "address",
          "name": "creator",
          "type": "address"
        }
      ],
      "stateMutability": "view",
      "type": "function",
      "constant": true
    },
    {
      "inputs": [
        {
          "internalType": "bytes32",
          "name": "electionId",
          "type": "bytes32"
        },
        {
          "internalType": "string",
          "name": "name",
          "type": "string"
        },
        {
          "internalType": "string",
          "name": "manifesto",
          "type": "string"
        },
        {
          "internalType": "string",
          "name": "party",
          "type": "string"
        }
      ],
      "name": "addCandidateToElection",
      "outputs": [],
      "stateMutability": "nonpayable",
      "type": "function"
    },
    {
      "inputs": [
        {
          "internalType": "bytes32",
          "name": "electionId",
          "type": "bytes32"
        }
      ],
      "name": "userHasVotedForElection",
      "outputs": [
        {
          "internalType": "bool",
          "name": "voted",
          "type": "bool"
        },
        {
          "internalType": "bytes32",
          "name": "candidate",
          "type": "bytes32"
        }
      ],
      "stateMutability": "view",
      "type": "function",
      "constant": true
    },
    {
      "inputs": [
        {
          "internalType": "bytes32",
          "name": "_electionId",
          "type": "bytes32"
        },
        {
          "internalType": "bytes32",
          "name": "_candidateId",
          "type": "bytes32"
        }
      ],
      "name": "voteElectionCandidate",
      "outputs": [],
      "stateMutability": "nonpayable",
      "type": "function"
    }
  ],
  "bytecode": "0x6080604052600060045534801561001557600080fd5b50613292806100256000396000f3fe608060405234801561001057600080fd5b50600436106100f55760003560e01c8063a7cd35f511610097578063bca5bd7811610066578063bca5bd78146102d5578063f2578fd8146102f1578063fef4f3d71461030d578063ff50e12f14610342576100f5565b8063a7cd35f514610227578063ab7c734314610258578063b5c7919b14610288578063bc5c419f146102b9576100f5565b80635b9f2f92116100d35780635b9f2f92146101765780635fa14578146101ab578063910dcf71146101db578063a27116be146101f7576100f5565b8063033c2857146100fa57806339b476081461011657806348b24c9c14610146575b600080fd5b610114600480360381019061010f9190612427565b610372565b005b610130600480360381019061012b91906123fe565b6103da565b60405161013d9190612edc565b60405180910390f35b610160600480360381019061015b91906123fe565b61047f565b60405161016d9190612be3565b60405180910390f35b610190600480360381019061018b9190612463565b61049d565b6040516101a296959493929190612c5e565b60405180910390f35b6101c560048036038101906101c091906123fe565b6107bf565b6040516101d29190612be3565b60405180910390f35b6101f560048036038101906101f091906123fe565b6107dd565b005b610211600480360381019061020c91906123fe565b61090b565b60405161021e9190612b98565b60405180910390f35b610241600480360381019061023c91906123fe565b610976565b60405161024f929190612d43565b60405180910390f35b610272600480360381019061026d91906123fe565b6109f7565b60405161027f9190612be3565b60405180910390f35b6102a2600480360381019061029d91906123fe565b610a15565b6040516102b0929190612bba565b60405180910390f35b6102d360048036038101906102ce9190612463565b610b36565b005b6102ef60048036038101906102ea9190612463565b61104a565b005b61030b6004803603810190610306919061249f565b6112d3565b005b610327600480360381019061032291906123fe565b6114bd565b60405161033996959493929190612cd4565b60405180910390f35b61035c6004803603810190610357919061254a565b611680565b6040516103699190612be3565b60405180910390f35b81806005600083815260200190815260200160002060000154146103cb576040517f08c379a00000000000000000000000000000000000000000000000000000000081526004016103c290612dfc565b60405180910390fd5b6103d58383611941565b505050565b60006001600083815260200190815260200160002060050160003373ffffffffffffffffffffffffffffffffffffffff1673ffffffffffffffffffffffffffffffffffffffff16815260200190815260200160002060010160149054906101000a900460ff166004811115610478577f4e487b7100000000000000000000000000000000000000000000000000000000600052602160045260246000fd5b9050919050565b600061048a82611c99565b905061049882826002611ccb565b919050565b600060608060606000808787806002600084815260200190815260200160002060008381526020019081526020016000206000015414610512576040517f08c379a000000000000000000000000000000000000000000000000000000000815260040161050990612e5c565b60405180910390fd5b600260008b815260200190815260200160002060008a8152602001908152602001600020600001549750600260008b815260200190815260200160002060008a8152602001908152602001600020600101805461056e906130d3565b80601f016020809104026020016040519081016040528092919081815260200182805461059a906130d3565b80156105e75780601f106105bc576101008083540402835291602001916105e7565b820191906000526020600020905b8154815290600101906020018083116105ca57829003601f168201915b50505050509650600260008b815260200190815260200160002060008a81526020019081526020016000206002018054610620906130d3565b80601f016020809104026020016040519081016040528092919081815260200182805461064c906130d3565b80156106995780601f1061066e57610100808354040283529160200191610699565b820191906000526020600020905b81548152906001019060200180831161067c57829003601f168201915b50505050509550600260008b815260200190815260200160002060008a815260200190815260200160002060030180546106d2906130d3565b80601f01602080910402602001604051908101604052809291908181526020018280546106fe906130d3565b801561074b5780601f106107205761010080835404028352916020019161074b565b820191906000526020600020905b81548152906001019060200180831161072e57829003601f168201915b50505050509450600260008b815260200190815260200160002060008a8152602001908152602001600020600401549350600260008b815260200190815260200160002060008a815260200190815260200160002060050160009054906101000a900460ff16925050509295509295509295565b60006107ca82611c99565b90506107d882826001611ccb565b919050565b60006107e882611c99565b90503373ffffffffffffffffffffffffffffffffffffffff16600080848152602001908152602001600020600083815260200190815260200160002060010160009054906101000a900473ffffffffffffffffffffffffffffffffffffffff1673ffffffffffffffffffffffffffffffffffffffff161461089e576040517f08c379a000000000000000000000000000000000000000000000000000000000815260040161089590612ebc565b60405180910390fd5b60008083815260200190815260200160002060008281526020019081526020016000206000808201600090556001820160006101000a81549073ffffffffffffffffffffffffffffffffffffffff02191690556001820160146101000a81549060ff021916905550505050565b60606003600083815260200190815260200160002080548060200260200160405190810160405280929190818152602001828054801561096a57602002820191906000526020600020905b815481526020019060010190808311610956575b50505050509050919050565b60008061098283611c99565b9150600080848152602001908152602001600020600083815260200190815260200160002060010160149054906101000a900460ff1660048111156109f0577f4e487b7100000000000000000000000000000000000000000000000000000000600052602160045260246000fd5b9050915091565b6000610a0282611c99565b9050610a1082826003611ccb565b919050565b6000808280600560008381526020019081526020016000206000015414610a71576040517f08c379a0000000000000000000000000000000000000000000000000000000008152600401610a6890612dfc565b60405180910390fd5b6005600085815260200190815260200160002060070160003373ffffffffffffffffffffffffffffffffffffffff1673ffffffffffffffffffffffffffffffffffffffff16815260200190815260200160002060020160009054906101000a900460ff1692506005600085815260200190815260200160002060070160003373ffffffffffffffffffffffffffffffffffffffff1673ffffffffffffffffffffffffffffffffffffffff16815260200190815260200160002060010154915050915091565b81816000806000848152602001908152602001600020600083815260200190815260200160002060010160149054906101000a900460ff166004811115610ba6577f4e487b7100000000000000000000000000000000000000000000000000000000600052602160045260246000fd5b90506000600182610bb79190612fb8565b9050806001600086815260200190815260200160002060050160003373ffffffffffffffffffffffffffffffffffffffff1673ffffffffffffffffffffffffffffffffffffffff16815260200190815260200160002060010160149054906101000a900460ff166004811115610c56577f4e487b7100000000000000000000000000000000000000000000000000000000600052602160045260246000fd5b14610c96576040517f08c379a0000000000000000000000000000000000000000000000000000000008152600401610c8d90612e7c565b60405180910390fd5b60008060008881526020019081526020016000206000878152602001908152602001600020604051806060016040529081600082015481526020016001820160009054906101000a900473ffffffffffffffffffffffffffffffffffffffff1673ffffffffffffffffffffffffffffffffffffffff1673ffffffffffffffffffffffffffffffffffffffff1681526020016001820160149054906101000a900460ff166004811115610d71577f4e487b7100000000000000000000000000000000000000000000000000000000600052602160045260246000fd5b6004811115610da9577f4e487b7100000000000000000000000000000000000000000000000000000000600052602160045260246000fd5b8152505090506040518060800160405280826020015173ffffffffffffffffffffffffffffffffffffffff1681526020016001151581526020013373ffffffffffffffffffffffffffffffffffffffff16815260200182604001516004811115610e3c577f4e487b7100000000000000000000000000000000000000000000000000000000600052602160045260246000fd5b815250600160008981526020019081526020016000206005016000836020015173ffffffffffffffffffffffffffffffffffffffff1673ffffffffffffffffffffffffffffffffffffffff16815260200190815260200160002060008201518160000160006101000a81548173ffffffffffffffffffffffffffffffffffffffff021916908373ffffffffffffffffffffffffffffffffffffffff16021790555060208201518160000160146101000a81548160ff02191690831515021790555060408201518160010160006101000a81548173ffffffffffffffffffffffffffffffffffffffff021916908373ffffffffffffffffffffffffffffffffffffffff16021790555060608201518160010160146101000a81548160ff02191690836004811115610f95577f4e487b7100000000000000000000000000000000000000000000000000000000600052602160045260246000fd5b021790555090505060008088815260200190815260200160002060008781526020019081526020016000206000808201600090556001820160006101000a81549073ffffffffffffffffffffffffffffffffffffffff02191690556001820160146101000a81549060ff021916905550507f07a86bec772f80c85af9f5b3a3828575039ed0dff22ac50306c72c2fdfbc125187873360405161103993929190612c27565b60405180910390a150505050505050565b81600015156005600083815260200190815260200160002060070160003373ffffffffffffffffffffffffffffffffffffffff1673ffffffffffffffffffffffffffffffffffffffff16815260200190815260200160002060020160009054906101000a900460ff161515146110f5576040517f08c379a00000000000000000000000000000000000000000000000000000000081526004016110ec90612d9c565b60405180910390fd5b826000429050806103e86005600085815260200190815260200160002060040154611120919061300e565b1115611161576040517f08c379a000000000000000000000000000000000000000000000000000000000815260040161115890612e1c565b60405180910390fd5b6103e86005600084815260200190815260200160002060050154611185919061300e565b8111156111c7576040517f08c379a00000000000000000000000000000000000000000000000000000000081526004016111be90612dbc565b60405180910390fd5b60405180606001604052803373ffffffffffffffffffffffffffffffffffffffff168152602001858152602001600115158152506005600087815260200190815260200160002060070160003373ffffffffffffffffffffffffffffffffffffffff1673ffffffffffffffffffffffffffffffffffffffff16815260200190815260200160002060008201518160000160006101000a81548173ffffffffffffffffffffffffffffffffffffffff021916908373ffffffffffffffffffffffffffffffffffffffff1602179055506020820151816001015560408201518160020160006101000a81548160ff0219169083151502179055509050506112cc8585611e06565b5050505050565b838060056000838152602001908152602001600020600001541461132c576040517f08c379a000000000000000000000000000000000000000000000000000000000815260040161132390612dfc565b60405180910390fd5b84426103e86005600084815260200190815260200160002060040154611352919061300e565b11611392576040517f08c379a000000000000000000000000000000000000000000000000000000000815260040161138990612e9c565b60405180910390fd5b856004808111156113cc577f4e487b7100000000000000000000000000000000000000000000000000000000600052602160045260246000fd5b6001600083815260200190815260200160002060050160003373ffffffffffffffffffffffffffffffffffffffff1673ffffffffffffffffffffffffffffffffffffffff16815260200190815260200160002060010160149054906101000a900460ff166004811115611468577f4e487b7100000000000000000000000000000000000000000000000000000000600052602160045260246000fd5b146114a8576040517f08c379a000000000000000000000000000000000000000000000000000000000815260040161149f90612ddc565b60405180910390fd5b6114b487878787611ec8565b50505050505050565b600060608060008060008695506005600088815260200190815260200160002060020180546114eb906130d3565b80601f0160208091040260200160405190810160405280929190818152602001828054611517906130d3565b80156115645780601f1061153957610100808354040283529160200191611564565b820191906000526020600020905b81548152906001019060200180831161154757829003601f168201915b5050505050945060056000888152602001908152602001600020600301805461158c906130d3565b80601f01602080910402602001604051908101604052809291908181526020018280546115b8906130d3565b80156116055780601f106115da57610100808354040283529160200191611605565b820191906000526020600020905b8154815290600101906020018083116115e857829003601f168201915b5050505050935060056000888152602001908152602001600020600401549250600560008881526020019081526020016000206005015491506005600088815260200190815260200160002060060160009054906101000a900473ffffffffffffffffffffffffffffffffffffffff16905091939550919395565b60006001600460008282546116959190612fb8565b925050819055508585336004546040516020016116b59493929190612b52565b60405160208183030381529060405280519060200120905080600560008381526020019081526020016000206000018190555060045460056000838152602001908152602001600020600101819055508560056000838152602001908152602001600020600201908051906020019061172f9291906122b4565b508460056000838152602001908152602001600020600301908051906020019061175a9291906122b4565b50836005600083815260200190815260200160002060040181905550826005600083815260200190815260200160002060050181905550336005600083815260200190815260200160002060060160006101000a81548173ffffffffffffffffffffffffffffffffffffffff021916908373ffffffffffffffffffffffffffffffffffffffff160217905550600660405180604001604052803373ffffffffffffffffffffffffffffffffffffffff16815260200183815250908060018154018082558091505060019003906000526020600020906002020160009091909190915060008201518160000160006101000a81548173ffffffffffffffffffffffffffffffffffffffff021916908373ffffffffffffffffffffffffffffffffffffffff160217905550602082015181600101555050600760003373ffffffffffffffffffffffffffffffffffffffff1673ffffffffffffffffffffffffffffffffffffffff1681526020019081526020016000208190806001815401808255809150506001900390600052602060002001600090919091909150556118ff8183612085565b7f159534d44b7c1bfbdf7a96279a1568348c83a4ac59986f77bff620465adec7e68133604051611930929190612bfe565b60405180910390a195945050505050565b8160048081111561197b577f4e487b7100000000000000000000000000000000000000000000000000000000600052602160045260246000fd5b6001600083815260200190815260200160002060050160003373ffffffffffffffffffffffffffffffffffffffff1673ffffffffffffffffffffffffffffffffffffffff16815260200190815260200160002060010160149054906101000a900460ff166004811115611a17577f4e487b7100000000000000000000000000000000000000000000000000000000600052602160045260246000fd5b14611a57576040517f08c379a0000000000000000000000000000000000000000000000000000000008152600401611a4e90612ddc565b60405180910390fd5b60405180608001604052808373ffffffffffffffffffffffffffffffffffffffff1681526020016001151581526020013373ffffffffffffffffffffffffffffffffffffffff168152602001600480811115611adc577f4e487b7100000000000000000000000000000000000000000000000000000000600052602160045260246000fd5b8152506001600085815260200190815260200160002060050160008473ffffffffffffffffffffffffffffffffffffffff1673ffffffffffffffffffffffffffffffffffffffff16815260200190815260200160002060008201518160000160006101000a81548173ffffffffffffffffffffffffffffffffffffffff021916908373ffffffffffffffffffffffffffffffffffffffff16021790555060208201518160000160146101000a81548160ff02191690831515021790555060408201518160010160006101000a81548173ffffffffffffffffffffffffffffffffffffffff021916908373ffffffffffffffffffffffffffffffffffffffff16021790555060608201518160010160146101000a81548160ff02191690836004811115611c31577f4e487b7100000000000000000000000000000000000000000000000000000000600052602160045260246000fd5b02179055509050503373ffffffffffffffffffffffffffffffffffffffff168273ffffffffffffffffffffffffffffffffffffffff16847fd2cc3869a0e939546bd9d2ee07f7ec4521c404a0949b04f5105668e282e1522460405160405180910390a4505050565b60008133604051602001611cae929190612aeb565b604051602081830303815290604052805190602001209050919050565b60405180606001604052808381526020013373ffffffffffffffffffffffffffffffffffffffff168152602001826004811115611d31577f4e487b7100000000000000000000000000000000000000000000000000000000600052602160045260246000fd5b81525060008085815260200190815260200160002060008481526020019081526020016000206000820151816000015560208201518160010160006101000a81548173ffffffffffffffffffffffffffffffffffffffff021916908373ffffffffffffffffffffffffffffffffffffffff16021790555060408201518160010160146101000a81548160ff02191690836004811115611df9577f4e487b7100000000000000000000000000000000000000000000000000000000600052602160045260246000fd5b0217905550905050505050565b81816000151560026000848152602001908152602001600020600083815260200190815260200160002060050160009054906101000a900460ff16151514611e83576040517f08c379a0000000000000000000000000000000000000000000000000000000008152600401611e7a90612e3c565b60405180910390fd5b60016002600086815260200190815260200160002060008581526020019081526020016000206004016000828254611ebb9190612fb8565b9250508190555050505050565b60008382604051602001611edd929190612b2e565b60405160208183030381529060405280519060200120905060006040518060c001604052808381526020018681526020018481526020018581526020016000815260200160001515815250905080600260008881526020019081526020016000206000848152602001908152602001600020600082015181600001556020820151816001019080519060200190611f759291906122b4565b506040820151816002019080519060200190611f929291906122b4565b506060820151816003019080519060200190611faf9291906122b4565b506080820151816004015560a08201518160050160006101000a81548160ff02191690831515021790555090505060036000878152602001908152602001600020829080600181540180825580915050600190039060005260206000200160009091909190915055826040516120259190612b17565b60405180910390208560405161203b9190612b17565b6040518091039020837f04298c5512631ee205d05a28c5771d775e13286906989f78f4f5bc7e841813dd8733604051612075929190612d6c565b60405180910390a4505050505050565b60405180608001604052803373ffffffffffffffffffffffffffffffffffffffff168152602001600115158152602001600073ffffffffffffffffffffffffffffffffffffffff16815260200160048081111561210b577f4e487b7100000000000000000000000000000000000000000000000000000000600052602160045260246000fd5b8152506001600084815260200190815260200160002060050160003373ffffffffffffffffffffffffffffffffffffffff1673ffffffffffffffffffffffffffffffffffffffff16815260200190815260200160002060008201518160000160006101000a81548173ffffffffffffffffffffffffffffffffffffffff021916908373ffffffffffffffffffffffffffffffffffffffff16021790555060208201518160000160146101000a81548160ff02191690831515021790555060408201518160010160006101000a81548173ffffffffffffffffffffffffffffffffffffffff021916908373ffffffffffffffffffffffffffffffffffffffff16021790555060608201518160010160146101000a81548160ff02191690836004811115612260577f4e487b7100000000000000000000000000000000000000000000000000000000600052602160045260246000fd5b0217905550905050806001600084815260200190815260200160002060040181905550600180600084815260200190815260200160002060000160008282546122a99190612fb8565b925050819055505050565b8280546122c0906130d3565b90600052602060002090601f0160209004810192826122e25760008555612329565b82601f106122fb57805160ff1916838001178555612329565b82800160010185558215612329579182015b8281111561232857825182559160200191906001019061230d565b5b509050612336919061233a565b5090565b5b8082111561235357600081600090555060010161233b565b5090565b600061236a61236584612f28565b612ef7565b90508281526020810184848401111561238257600080fd5b61238d848285613091565b509392505050565b6000813590506123a481613217565b92915050565b6000813590506123b98161322e565b92915050565b600082601f8301126123d057600080fd5b81356123e0848260208601612357565b91505092915050565b6000813590506123f881613245565b92915050565b60006020828403121561241057600080fd5b600061241e848285016123aa565b91505092915050565b6000806040838503121561243a57600080fd5b6000612448858286016123aa565b925050602061245985828601612395565b9150509250929050565b6000806040838503121561247657600080fd5b6000612484858286016123aa565b9250506020612495858286016123aa565b9150509250929050565b600080600080608085870312156124b557600080fd5b60006124c3878288016123aa565b945050602085013567ffffffffffffffff8111156124e057600080fd5b6124ec878288016123bf565b935050604085013567ffffffffffffffff81111561250957600080fd5b612515878288016123bf565b925050606085013567ffffffffffffffff81111561253257600080fd5b61253e878288016123bf565b91505092959194509250565b600080600080600060a0868803121561256257600080fd5b600086013567ffffffffffffffff81111561257c57600080fd5b612588888289016123bf565b955050602086013567ffffffffffffffff8111156125a557600080fd5b6125b1888289016123bf565b94505060406125c2888289016123e9565b93505060606125d3888289016123e9565b92505060806125e4888289016123e9565b9150509295509295909350565b60006125fd838361269c565b60208301905092915050565b6126128161303f565b82525050565b6126296126248261303f565b613105565b82525050565b600061263a82612f68565b6126448185612f8b565b935061264f83612f58565b8060005b8381101561268057815161266788826125f1565b975061267283612f7e565b925050600181019050612653565b5085935050505092915050565b61269681613051565b82525050565b6126a58161305d565b82525050565b6126b48161305d565b82525050565b6126cb6126c68261305d565b613117565b82525050565b60006126dc82612f73565b6126e68185612f9c565b93506126f68185602086016130a0565b6126ff816131f9565b840191505092915050565b600061271582612f73565b61271f8185612fad565b935061272f8185602086016130a0565b80840191505092915050565b6000612748602783612f9c565b91507f596f75206861766520616c726561647920766f74656420696e2074686973206560008301527f6c656374696f6e000000000000000000000000000000000000000000000000006020830152604082019050919050565b60006127ae602783612f9c565b91507f54686520706f6c6c73206861766520636c6f73656420666f722074686973206560008301527f6c656374696f6e000000000000000000000000000000000000000000000000006020830152604082019050919050565b6000612814602283612f9c565b91507f596f75277265206e6f742061646d696e20666f72207468697320656c6563746960008301527f6f6e0000000000000000000000000000000000000000000000000000000000006020830152604082019050919050565b600061287a601a83612f9c565b91507f496e76616c696420656c656374696f6e2073656c656374696f6e0000000000006000830152602082019050919050565b60006128ba602c83612f9c565b91507f54686520706f6c6c7320617265206e6f7420796574206f70656e20666f72207460008301527f68697320656c656374696f6e00000000000000000000000000000000000000006020830152604082019050919050565b6000612920601f83612f9c565b91507f546869732063616e64696461746520776173206469737175616c6966696564006000830152602082019050919050565b6000612960601183612f9c565b91507f496e76616c69642043616e6469646174650000000000000000000000000000006000830152602082019050919050565b60006129a0603983612f9c565b91507f596f7520646f6e277420686176652074686520726571756972656420726f6c6560008301527f20746f20617070726f7665207468697320726571756573742e000000000000006020830152604082019050919050565b6000612a06603083612f9c565b91507f596f752063616e27742061646420612063616e64696461746520746f20616e2060008301527f6f6e676f696e6720656c656374696f6e000000000000000000000000000000006020830152604082019050919050565b6000612a6c603383612f9c565b91507f596f752063616e2774207265766f6b65206120726f6c6520726571756573742060008301527f796f7520646f6e27742068617665207965742e000000000000000000000000006020830152604082019050919050565b612ace81613087565b82525050565b612ae5612ae082613087565b613133565b82525050565b6000612af782856126ba565b602082019150612b078284612618565b6014820191508190509392505050565b6000612b23828461270a565b915081905092915050565b6000612b3a828561270a565b9150612b46828461270a565b91508190509392505050565b6000612b5e828761270a565b9150612b6a828661270a565b9150612b768285612618565b601482019150612b868284612ad4565b60208201915081905095945050505050565b60006020820190508181036000830152612bb2818461262f565b905092915050565b6000604082019050612bcf600083018561268d565b612bdc60208301846126ab565b9392505050565b6000602082019050612bf860008301846126ab565b92915050565b6000604082019050612c1360008301856126ab565b612c206020830184612609565b9392505050565b6000606082019050612c3c60008301866126ab565b612c4960208301856126ab565b612c566040830184612609565b949350505050565b600060c082019050612c7360008301896126ab565b8181036020830152612c8581886126d1565b90508181036040830152612c9981876126d1565b90508181036060830152612cad81866126d1565b9050612cbc6080830185612ac5565b612cc960a083018461268d565b979650505050505050565b600060c082019050612ce960008301896126ab565b8181036020830152612cfb81886126d1565b90508181036040830152612d0f81876126d1565b9050612d1e6060830186612ac5565b612d2b6080830185612ac5565b612d3860a0830184612609565b979650505050505050565b6000604082019050612d5860008301856126ab565b612d656020830184612ac5565b9392505050565b60006040820190508181036000830152612d8681856126d1565b9050612d956020830184612609565b9392505050565b60006020820190508181036000830152612db58161273b565b9050919050565b60006020820190508181036000830152612dd5816127a1565b9050919050565b60006020820190508181036000830152612df581612807565b9050919050565b60006020820190508181036000830152612e158161286d565b9050919050565b60006020820190508181036000830152612e35816128ad565b9050919050565b60006020820190508181036000830152612e5581612913565b9050919050565b60006020820190508181036000830152612e7581612953565b9050919050565b60006020820190508181036000830152612e9581612993565b9050919050565b60006020820190508181036000830152612eb5816129f9565b9050919050565b60006020820190508181036000830152612ed581612a5f565b9050919050565b6000602082019050612ef16000830184612ac5565b92915050565b6000604051905081810181811067ffffffffffffffff82111715612f1e57612f1d6131ca565b5b8060405250919050565b600067ffffffffffffffff821115612f4357612f426131ca565b5b601f19601f8301169050602081019050919050565b6000819050602082019050919050565b600081519050919050565b600081519050919050565b6000602082019050919050565b600082825260208201905092915050565b600082825260208201905092915050565b600081905092915050565b6000612fc382613087565b9150612fce83613087565b9250827fffffffffffffffffffffffffffffffffffffffffffffffffffffffffffffffff038211156130035761300261313d565b5b828201905092915050565b600061301982613087565b915061302483613087565b9250826130345761303361316c565b5b828204905092915050565b600061304a82613067565b9050919050565b60008115159050919050565b6000819050919050565b600073ffffffffffffffffffffffffffffffffffffffff82169050919050565b6000819050919050565b82818337600083830152505050565b60005b838110156130be5780820151818401526020810190506130a3565b838111156130cd576000848401525b50505050565b600060028204905060018216806130eb57607f821691505b602082108114156130ff576130fe61319b565b5b50919050565b600061311082613121565b9050919050565b6000819050919050565b600061312c8261320a565b9050919050565b6000819050919050565b7f4e487b7100000000000000000000000000000000000000000000000000000000600052601160045260246000fd5b7f4e487b7100000000000000000000000000000000000000000000000000000000600052601260045260246000fd5b7f4e487b7100000000000000000000000000000000000000000000000000000000600052602260045260246000fd5b7f4e487b7100000000000000000000000000000000000000000000000000000000600052604160045260246000fd5b6000601f19601f8301169050919050565b60008160601b9050919050565b6132208161303f565b811461322b57600080fd5b50565b6132378161305d565b811461324257600080fd5b50565b61324e81613087565b811461325957600080fd5b5056fea2646970667358221220fa1f4717d28e397c4f0c63fb1986f1e391b825dc88ddd83aa410dd1ca291db9864736f6c63430008000033",
  "immutableReferences": {},
  "source": "// SPDX-License-Identifier: UNLICENSED\npragma solidity ^0.8.0;\n\nimport \"./subcontracts/Candidates.sol\";\nimport \"./subcontracts/Roles.sol\";\n\ncontract Vhota is Roles, Candidates {\n    struct Vote {\n        address user;\n        bytes32 candidate;\n        bool voted;\n    }\n\n    struct Election {\n        bytes32 id;\n        uint256 index;\n        string name;\n        string description;\n        uint256 pollStart;\n        uint256 pollEnd;\n        address creator;\n        mapping(address => Vote) voted;\n    }\n\n    struct ElectionMeta {\n        address creator;\n        bytes32 id;\n    }\n\n    // variables\n    uint256 elections = 0;\n    mapping(bytes32 => Election) electionsMap;\n    ElectionMeta[] electionsList;\n    mapping(address => bytes32[]) electionsByUsers;\n\n    event ElectionCreated(bytes32 id, address sender);\n\n    modifier isValidElection(bytes32 electionId) {\n        require(\n            electionsMap[electionId].id == electionId,\n            \"Invalid election selection\"\n        );\n        _;\n    }\n\n    modifier isBeforeElectionStart(bytes32 _electionId) {\n        require(\n            (electionsMap[_electionId].pollStart / 1000) > block.timestamp,\n            \"You can't add a candidate to an ongoing election\"\n        );\n        _;\n    }\n\n    modifier isWithinPollDate(bytes32 _electionId) {\n        uint256 currentTime = block.timestamp;\n        require(\n            (electionsMap[_electionId].pollStart / 1000) <= currentTime,\n            \"The polls are not yet open for this election\"\n        );\n        require(\n            currentTime <= (electionsMap[_electionId].pollEnd / 1000),\n            \"The polls have closed for this election\"\n        );\n        _;\n    }\n\n    modifier hasNotVoted(bytes32 _electionId) {\n        require(\n            electionsMap[_electionId].voted[msg.sender].voted == false,\n            \"You have already voted in this election\"\n        );\n        _;\n    }\n\n    function createElection(\n        string memory _name,\n        string memory _description,\n        uint256 start,\n        uint256 end,\n        uint256 _adminLimit\n    ) public returns (bytes32 id) {\n        elections += 1;\n        id = keccak256(\n            abi.encodePacked(_name, _description, msg.sender, elections)\n        );\n        electionsMap[id].id = id;\n        electionsMap[id].index = elections;\n        electionsMap[id].name = _name;\n        electionsMap[id].description = _description;\n        electionsMap[id].pollStart = start;\n        electionsMap[id].pollEnd = end;\n        electionsMap[id].creator = msg.sender;\n        electionsList.push(ElectionMeta({creator: msg.sender, id: id}));\n        electionsByUsers[msg.sender].push(id);\n        // add admin roles as needed\n        _setupRolesForElection(id, _adminLimit);\n\n        emit ElectionCreated(id, msg.sender);\n    }\n\n    function addElectionAdmin(bytes32 electionId, address _newAdmin)\n        public\n        isValidElection(electionId)\n    {\n        _addElectionAdmin(electionId, _newAdmin);\n    }\n\n    function getElectionById(bytes32 id)\n        public\n        view\n        returns (\n            bytes32 _id,\n            string memory name,\n            string memory description,\n            uint256 pollStart,\n            uint256 pollEnd,\n            address creator\n        )\n    {\n        _id = id;\n        name = electionsMap[id].name;\n        description = electionsMap[id].description;\n        pollStart = electionsMap[id].pollStart;\n        pollEnd = electionsMap[id].pollEnd;\n        creator = electionsMap[id].creator;\n    }\n\n    function addCandidateToElection(\n        bytes32 electionId,\n        string memory name,\n        string memory manifesto,\n        string memory party\n    )\n        public\n        isValidElection(electionId)\n        isBeforeElectionStart(electionId)\n        isElectionAdmin(electionId)\n    {\n        _addCandidate(electionId, name, manifesto, party);\n    }\n\n    function userHasVotedForElection(bytes32 electionId)\n        public\n        view\n        isValidElection(electionId)\n        returns (bool voted, bytes32 candidate)\n    {\n        voted = electionsMap[electionId].voted[msg.sender].voted;\n        candidate = electionsMap[electionId].voted[msg.sender].candidate;\n    }\n\n    function voteElectionCandidate(bytes32 _electionId, bytes32 _candidateId)\n        public\n        hasNotVoted(_electionId)\n        isWithinPollDate(_electionId)\n    {\n        electionsMap[_electionId].voted[msg.sender] = Vote({\n            user: msg.sender,\n            candidate: _candidateId,\n            voted: true\n        });\n        _voteCandidate(_electionId, _candidateId);\n    }\n}\n",
  "sourcePath": "/Users/ghostffcode/Documents/UpkitStudio/vhota/contracts/Vhota.sol",
  "compiler": {
    "name": "solc",
    "version": "0.8.0+commit.c7dfd78e.Emscripten.clang"
  },
  "schemaVersion": "3.4.1",
  "updatedAt": "2021-06-24T15:41:14.318Z",
  "networkType": "ethereum",
  "devdoc": {
    "kind": "dev",
    "methods": {},
    "version": 1
  },
  "userdoc": {
    "kind": "user",
    "methods": {},
    "version": 1
  }
}