{
  "contractName": "Vhota",
  "abi": [
    {
      "anonymous": false,
      "inputs": [
        {
          "indexed": true,
          "internalType": "bytes32",
          "name": "election",
          "type": "bytes32"
        },
        {
          "indexed": true,
          "internalType": "address",
          "name": "newAdmin",
          "type": "address"
        },
        {
          "indexed": true,
          "internalType": "address",
          "name": "sender",
          "type": "address"
        }
      ],
      "name": "AdminAdded",
      "type": "event"
    },
    {
      "anonymous": false,
      "inputs": [
        {
          "indexed": true,
          "internalType": "bytes32",
          "name": "id",
          "type": "bytes32"
        },
        {
          "indexed": true,
          "internalType": "string",
          "name": "name",
          "type": "string"
        },
        {
          "indexed": true,
          "internalType": "string",
          "name": "party",
          "type": "string"
        },
        {
          "indexed": false,
          "internalType": "string",
          "name": "manifesto",
          "type": "string"
        },
        {
          "indexed": false,
          "internalType": "address",
          "name": "admin",
          "type": "address"
        }
      ],
      "name": "CandidateAdded",
      "type": "event"
    },
    {
      "anonymous": false,
      "inputs": [
        {
          "indexed": false,
          "internalType": "bytes32",
          "name": "id",
          "type": "bytes32"
        },
        {
          "indexed": false,
          "internalType": "address",
          "name": "sender",
          "type": "address"
        }
      ],
      "name": "ElectionCreated",
      "type": "event"
    },
    {
      "anonymous": false,
      "inputs": [
        {
          "indexed": false,
          "internalType": "bytes32",
          "name": "election",
          "type": "bytes32"
        },
        {
          "indexed": false,
          "internalType": "bytes32",
          "name": "requestId",
          "type": "bytes32"
        },
        {
          "indexed": false,
          "internalType": "address",
          "name": "approver",
          "type": "address"
        }
      ],
      "name": "RoleRequestApproved",
      "type": "event"
    },
    {
      "inputs": [
        {
          "internalType": "bytes32",
          "name": "electionId",
          "type": "bytes32"
        },
        {
          "internalType": "bytes32",
          "name": "requestId",
          "type": "bytes32"
        }
      ],
      "name": "approveRoleRequest",
      "outputs": [],
      "stateMutability": "nonpayable",
      "type": "function"
    },
    {
      "inputs": [
        {
          "internalType": "bytes32",
          "name": "electionId",
          "type": "bytes32"
        },
        {
          "internalType": "bytes32",
          "name": "candidateId",
          "type": "bytes32"
        }
      ],
      "name": "getCandidateById",
      "outputs": [
        {
          "internalType": "bytes32",
          "name": "id",
          "type": "bytes32"
        },
        {
          "internalType": "string",
          "name": "name",
          "type": "string"
        },
        {
          "internalType": "string",
          "name": "party",
          "type": "string"
        },
        {
          "internalType": "string",
          "name": "manifesto",
          "type": "string"
        },
        {
          "internalType": "uint256",
          "name": "votes",
          "type": "uint256"
        },
        {
          "internalType": "bool",
          "name": "disqualified",
          "type": "bool"
        }
      ],
      "stateMutability": "view",
      "type": "function",
      "constant": true
    },
    {
      "inputs": [
        {
          "internalType": "bytes32",
          "name": "electionId",
          "type": "bytes32"
        }
      ],
      "name": "getCandidatesForElection",
      "outputs": [
        {
          "internalType": "bytes32[]",
          "name": "",
          "type": "bytes32[]"
        }
      ],
      "stateMutability": "view",
      "type": "function",
      "constant": true
    },
    {
      "inputs": [
        {
          "internalType": "bytes32",
          "name": "electionId",
          "type": "bytes32"
        }
      ],
      "name": "getRoleForElection",
      "outputs": [
        {
          "internalType": "uint256",
          "name": "role",
          "type": "uint256"
        }
      ],
      "stateMutability": "view",
      "type": "function",
      "constant": true
    },
    {
      "inputs": [
        {
          "internalType": "bytes32",
          "name": "electionId",
          "type": "bytes32"
        }
      ],
      "name": "getRoleRequest",
      "outputs": [
        {
          "internalType": "bytes32",
          "name": "id",
          "type": "bytes32"
        },
        {
          "internalType": "uint256",
          "name": "role",
          "type": "uint256"
        }
      ],
      "stateMutability": "view",
      "type": "function",
      "constant": true
    },
    {
      "inputs": [
        {
          "internalType": "bytes32",
          "name": "electionId",
          "type": "bytes32"
        }
      ],
      "name": "requestStateValidatorRole",
      "outputs": [
        {
          "internalType": "bytes32",
          "name": "id",
          "type": "bytes32"
        }
      ],
      "stateMutability": "nonpayable",
      "type": "function"
    },
    {
      "inputs": [
        {
          "internalType": "bytes32",
          "name": "electionId",
          "type": "bytes32"
        }
      ],
      "name": "requestVoterRole",
      "outputs": [
        {
          "internalType": "bytes32",
          "name": "id",
          "type": "bytes32"
        }
      ],
      "stateMutability": "nonpayable",
      "type": "function"
    },
    {
      "inputs": [
        {
          "internalType": "bytes32",
          "name": "electionId",
          "type": "bytes32"
        }
      ],
      "name": "requestZoneValidatorRole",
      "outputs": [
        {
          "internalType": "bytes32",
          "name": "id",
          "type": "bytes32"
        }
      ],
      "stateMutability": "nonpayable",
      "type": "function"
    },
    {
      "inputs": [
        {
          "internalType": "bytes32",
          "name": "electionId",
          "type": "bytes32"
        }
      ],
      "name": "revokeRoleRequest",
      "outputs": [],
      "stateMutability": "nonpayable",
      "type": "function"
    },
    {
      "inputs": [
        {
          "internalType": "string",
          "name": "_name",
          "type": "string"
        },
        {
          "internalType": "string",
          "name": "_description",
          "type": "string"
        },
        {
          "internalType": "uint256",
          "name": "start",
          "type": "uint256"
        },
        {
          "internalType": "uint256",
          "name": "end",
          "type": "uint256"
        },
        {
          "internalType": "uint256",
          "name": "_adminLimit",
          "type": "uint256"
        }
      ],
      "name": "createElection",
      "outputs": [
        {
          "internalType": "bytes32",
          "name": "id",
          "type": "bytes32"
        }
      ],
      "stateMutability": "nonpayable",
      "type": "function"
    },
    {
      "inputs": [
        {
          "internalType": "bytes32",
          "name": "electionId",
          "type": "bytes32"
        },
        {
          "internalType": "address",
          "name": "_newAdmin",
          "type": "address"
        }
      ],
      "name": "addElectionAdmin",
      "outputs": [],
      "stateMutability": "nonpayable",
      "type": "function"
    },
    {
      "inputs": [
        {
          "internalType": "bytes32",
          "name": "id",
          "type": "bytes32"
        }
      ],
      "name": "getElectionById",
      "outputs": [
        {
          "internalType": "bytes32",
          "name": "_id",
          "type": "bytes32"
        },
        {
          "internalType": "string",
          "name": "name",
          "type": "string"
        },
        {
          "internalType": "string",
          "name": "description",
          "type": "string"
        },
        {
          "internalType": "uint256",
          "name": "pollStart",
          "type": "uint256"
        },
        {
          "internalType": "uint256",
          "name": "pollEnd",
          "type": "uint256"
        },
        {
          "internalType": "address",
          "name": "creator",
          "type": "address"
        }
      ],
      "stateMutability": "view",
      "type": "function",
      "constant": true
    },
    {
      "inputs": [
        {
          "internalType": "bytes32",
          "name": "electionId",
          "type": "bytes32"
        },
        {
          "internalType": "string",
          "name": "name",
          "type": "string"
        },
        {
          "internalType": "string",
          "name": "manifesto",
          "type": "string"
        },
        {
          "internalType": "string",
          "name": "party",
          "type": "string"
        }
      ],
      "name": "addCandidateToElection",
      "outputs": [],
      "stateMutability": "nonpayable",
      "type": "function"
    },
    {
      "inputs": [
        {
          "internalType": "bytes32",
          "name": "electionId",
          "type": "bytes32"
        }
      ],
      "name": "userHasVotedForElection",
      "outputs": [
        {
          "internalType": "bool",
          "name": "",
          "type": "bool"
        }
      ],
      "stateMutability": "view",
      "type": "function",
      "constant": true
    },
    {
      "inputs": [
        {
          "internalType": "bytes32",
          "name": "_electionId",
          "type": "bytes32"
        },
        {
          "internalType": "bytes32",
          "name": "_candidateId",
          "type": "bytes32"
        }
      ],
      "name": "voteElectionCandidate",
      "outputs": [],
      "stateMutability": "nonpayable",
      "type": "function"
    }
  ],
  "bytecode": "0x6080604052600060045534801561001557600080fd5b50612fdc806100256000396000f3fe608060405234801561001057600080fd5b50600436106100f55760003560e01c8063a7cd35f511610097578063bca5bd7811610066578063bca5bd78146102d4578063f2578fd8146102f0578063fef4f3d71461030c578063ff50e12f14610341576100f5565b8063a7cd35f514610227578063ab7c734314610258578063b5c7919b14610288578063bc5c419f146102b8576100f5565b80635b9f2f92116100d35780635b9f2f92146101765780635fa14578146101ab578063910dcf71146101db578063a27116be146101f7576100f5565b8063033c2857146100fa57806339b476081461011657806348b24c9c14610146575b600080fd5b610114600480360381019061010f91906122eb565b610371565b005b610130600480360381019061012b91906122c2565b6103d9565b60405161013d9190612c86565b60405180910390f35b610160600480360381019061015b91906122c2565b61047e565b60405161016d91906129cd565b60405180910390f35b610190600480360381019061018b9190612327565b61049c565b6040516101a296959493929190612a48565b60405180910390f35b6101c560048036038101906101c091906122c2565b6107be565b6040516101d291906129cd565b60405180910390f35b6101f560048036038101906101f091906122c2565b6107dc565b005b610211600480360381019061020c91906122c2565b61090a565b60405161021e9190612990565b60405180910390f35b610241600480360381019061023c91906122c2565b610975565b60405161024f929190612b2d565b60405180910390f35b610272600480360381019061026d91906122c2565b6109f6565b60405161027f91906129cd565b60405180910390f35b6102a2600480360381019061029d91906122c2565b610a14565b6040516102af91906129b2565b60405180910390f35b6102d260048036038101906102cd9190612327565b610adb565b005b6102ee60048036038101906102e99190612327565b610fef565b005b61030a60048036038101906103059190612363565b6111a4565b005b610326600480360381019061032191906122c2565b611381565b60405161033896959493929190612abe565b60405180910390f35b61035b6004803603810190610356919061240e565b611544565b60405161036891906129cd565b60405180910390f35b81806005600083815260200190815260200160002060000154146103ca576040517f08c379a00000000000000000000000000000000000000000000000000000000081526004016103c190612bc6565b60405180910390fd5b6103d48383611805565b505050565b60006001600083815260200190815260200160002060050160003373ffffffffffffffffffffffffffffffffffffffff1673ffffffffffffffffffffffffffffffffffffffff16815260200190815260200160002060010160149054906101000a900460ff166004811115610477577f4e487b7100000000000000000000000000000000000000000000000000000000600052602160045260246000fd5b9050919050565b600061048982611b5d565b905061049782826002611b8f565b919050565b600060608060606000808787806002600084815260200190815260200160002060008381526020019081526020016000206000015414610511576040517f08c379a000000000000000000000000000000000000000000000000000000000815260040161050890612c06565b60405180910390fd5b600260008b815260200190815260200160002060008a8152602001908152602001600020600001549750600260008b815260200190815260200160002060008a8152602001908152602001600020600101805461056d90612e4c565b80601f016020809104026020016040519081016040528092919081815260200182805461059990612e4c565b80156105e65780601f106105bb576101008083540402835291602001916105e6565b820191906000526020600020905b8154815290600101906020018083116105c957829003601f168201915b50505050509650600260008b815260200190815260200160002060008a8152602001908152602001600020600201805461061f90612e4c565b80601f016020809104026020016040519081016040528092919081815260200182805461064b90612e4c565b80156106985780601f1061066d57610100808354040283529160200191610698565b820191906000526020600020905b81548152906001019060200180831161067b57829003601f168201915b50505050509550600260008b815260200190815260200160002060008a815260200190815260200160002060030180546106d190612e4c565b80601f01602080910402602001604051908101604052809291908181526020018280546106fd90612e4c565b801561074a5780601f1061071f5761010080835404028352916020019161074a565b820191906000526020600020905b81548152906001019060200180831161072d57829003601f168201915b50505050509450600260008b815260200190815260200160002060008a8152602001908152602001600020600401549350600260008b815260200190815260200160002060008a815260200190815260200160002060050160009054906101000a900460ff16925050509295509295509295565b60006107c982611b5d565b90506107d782826001611b8f565b919050565b60006107e782611b5d565b90503373ffffffffffffffffffffffffffffffffffffffff16600080848152602001908152602001600020600083815260200190815260200160002060010160009054906101000a900473ffffffffffffffffffffffffffffffffffffffff1673ffffffffffffffffffffffffffffffffffffffff161461089d576040517f08c379a000000000000000000000000000000000000000000000000000000000815260040161089490612c66565b60405180910390fd5b60008083815260200190815260200160002060008281526020019081526020016000206000808201600090556001820160006101000a81549073ffffffffffffffffffffffffffffffffffffffff02191690556001820160146101000a81549060ff021916905550505050565b60606003600083815260200190815260200160002080548060200260200160405190810160405280929190818152602001828054801561096957602002820191906000526020600020905b815481526020019060010190808311610955575b50505050509050919050565b60008061098183611b5d565b9150600080848152602001908152602001600020600083815260200190815260200160002060010160149054906101000a900460ff1660048111156109ef577f4e487b7100000000000000000000000000000000000000000000000000000000600052602160045260246000fd5b9050915091565b6000610a0182611b5d565b9050610a0f82826003611b8f565b919050565b60008180600560008381526020019081526020016000206000015414610a6f576040517f08c379a0000000000000000000000000000000000000000000000000000000008152600401610a6690612bc6565b60405180910390fd5b6005600084815260200190815260200160002060070160003373ffffffffffffffffffffffffffffffffffffffff1673ffffffffffffffffffffffffffffffffffffffff16815260200190815260200160002060020160009054906101000a900460ff16915050919050565b81816000806000848152602001908152602001600020600083815260200190815260200160002060010160149054906101000a900460ff166004811115610b4b577f4e487b7100000000000000000000000000000000000000000000000000000000600052602160045260246000fd5b90506000600182610b5c9190612d62565b9050806001600086815260200190815260200160002060050160003373ffffffffffffffffffffffffffffffffffffffff1673ffffffffffffffffffffffffffffffffffffffff16815260200190815260200160002060010160149054906101000a900460ff166004811115610bfb577f4e487b7100000000000000000000000000000000000000000000000000000000600052602160045260246000fd5b14610c3b576040517f08c379a0000000000000000000000000000000000000000000000000000000008152600401610c3290612c26565b60405180910390fd5b60008060008881526020019081526020016000206000878152602001908152602001600020604051806060016040529081600082015481526020016001820160009054906101000a900473ffffffffffffffffffffffffffffffffffffffff1673ffffffffffffffffffffffffffffffffffffffff1673ffffffffffffffffffffffffffffffffffffffff1681526020016001820160149054906101000a900460ff166004811115610d16577f4e487b7100000000000000000000000000000000000000000000000000000000600052602160045260246000fd5b6004811115610d4e577f4e487b7100000000000000000000000000000000000000000000000000000000600052602160045260246000fd5b8152505090506040518060800160405280826020015173ffffffffffffffffffffffffffffffffffffffff1681526020016001151581526020013373ffffffffffffffffffffffffffffffffffffffff16815260200182604001516004811115610de1577f4e487b7100000000000000000000000000000000000000000000000000000000600052602160045260246000fd5b815250600160008981526020019081526020016000206005016000836020015173ffffffffffffffffffffffffffffffffffffffff1673ffffffffffffffffffffffffffffffffffffffff16815260200190815260200160002060008201518160000160006101000a81548173ffffffffffffffffffffffffffffffffffffffff021916908373ffffffffffffffffffffffffffffffffffffffff16021790555060208201518160000160146101000a81548160ff02191690831515021790555060408201518160010160006101000a81548173ffffffffffffffffffffffffffffffffffffffff021916908373ffffffffffffffffffffffffffffffffffffffff16021790555060608201518160010160146101000a81548160ff02191690836004811115610f3a577f4e487b7100000000000000000000000000000000000000000000000000000000600052602160045260246000fd5b021790555090505060008088815260200190815260200160002060008781526020019081526020016000206000808201600090556001820160006101000a81549073ffffffffffffffffffffffffffffffffffffffff02191690556001820160146101000a81549060ff021916905550507f07a86bec772f80c85af9f5b3a3828575039ed0dff22ac50306c72c2fdfbc1251878733604051610fde93929190612a11565b60405180910390a150505050505050565b81600015156005600083815260200190815260200160002060070160003373ffffffffffffffffffffffffffffffffffffffff1673ffffffffffffffffffffffffffffffffffffffff16815260200190815260200160002060020160009054906101000a900460ff1615151461109a576040517f08c379a000000000000000000000000000000000000000000000000000000000815260040161109190612b86565b60405180910390fd5b60405180606001604052803373ffffffffffffffffffffffffffffffffffffffff168152602001838152602001600115158152506005600085815260200190815260200160002060070160003373ffffffffffffffffffffffffffffffffffffffff1673ffffffffffffffffffffffffffffffffffffffff16815260200190815260200160002060008201518160000160006101000a81548173ffffffffffffffffffffffffffffffffffffffff021916908373ffffffffffffffffffffffffffffffffffffffff1602179055506020820151816001015560408201518160020160006101000a81548160ff02191690831515021790555090505061119f8383611cca565b505050565b83806005600083815260200190815260200160002060000154146111fd576040517f08c379a00000000000000000000000000000000000000000000000000000000081526004016111f490612bc6565b60405180910390fd5b8442600560008381526020019081526020016000206004015411611256576040517f08c379a000000000000000000000000000000000000000000000000000000000815260040161124d90612c46565b60405180910390fd5b85600480811115611290577f4e487b7100000000000000000000000000000000000000000000000000000000600052602160045260246000fd5b6001600083815260200190815260200160002060050160003373ffffffffffffffffffffffffffffffffffffffff1673ffffffffffffffffffffffffffffffffffffffff16815260200190815260200160002060010160149054906101000a900460ff16600481111561132c577f4e487b7100000000000000000000000000000000000000000000000000000000600052602160045260246000fd5b1461136c576040517f08c379a000000000000000000000000000000000000000000000000000000000815260040161136390612ba6565b60405180910390fd5b61137887878787611d8c565b50505050505050565b600060608060008060008695506005600088815260200190815260200160002060020180546113af90612e4c565b80601f01602080910402602001604051908101604052809291908181526020018280546113db90612e4c565b80156114285780601f106113fd57610100808354040283529160200191611428565b820191906000526020600020905b81548152906001019060200180831161140b57829003601f168201915b5050505050945060056000888152602001908152602001600020600301805461145090612e4c565b80601f016020809104026020016040519081016040528092919081815260200182805461147c90612e4c565b80156114c95780601f1061149e576101008083540402835291602001916114c9565b820191906000526020600020905b8154815290600101906020018083116114ac57829003601f168201915b5050505050935060056000888152602001908152602001600020600401549250600560008881526020019081526020016000206005015491506005600088815260200190815260200160002060060160009054906101000a900473ffffffffffffffffffffffffffffffffffffffff16905091939550919395565b60006001600460008282546115599190612d62565b92505081905550858533600454604051602001611579949392919061294a565b6040516020818303038152906040528051906020012090508060056000838152602001908152602001600020600001819055506004546005600083815260200190815260200160002060010181905550856005600083815260200190815260200160002060020190805190602001906115f3929190612178565b508460056000838152602001908152602001600020600301908051906020019061161e929190612178565b50836005600083815260200190815260200160002060040181905550826005600083815260200190815260200160002060050181905550336005600083815260200190815260200160002060060160006101000a81548173ffffffffffffffffffffffffffffffffffffffff021916908373ffffffffffffffffffffffffffffffffffffffff160217905550600660405180604001604052803373ffffffffffffffffffffffffffffffffffffffff16815260200183815250908060018154018082558091505060019003906000526020600020906002020160009091909190915060008201518160000160006101000a81548173ffffffffffffffffffffffffffffffffffffffff021916908373ffffffffffffffffffffffffffffffffffffffff160217905550602082015181600101555050600760003373ffffffffffffffffffffffffffffffffffffffff1673ffffffffffffffffffffffffffffffffffffffff1681526020019081526020016000208190806001815401808255809150506001900390600052602060002001600090919091909150556117c38183611f49565b7f159534d44b7c1bfbdf7a96279a1568348c83a4ac59986f77bff620465adec7e681336040516117f49291906129e8565b60405180910390a195945050505050565b8160048081111561183f577f4e487b7100000000000000000000000000000000000000000000000000000000600052602160045260246000fd5b6001600083815260200190815260200160002060050160003373ffffffffffffffffffffffffffffffffffffffff1673ffffffffffffffffffffffffffffffffffffffff16815260200190815260200160002060010160149054906101000a900460ff1660048111156118db577f4e487b7100000000000000000000000000000000000000000000000000000000600052602160045260246000fd5b1461191b576040517f08c379a000000000000000000000000000000000000000000000000000000000815260040161191290612ba6565b60405180910390fd5b60405180608001604052808373ffffffffffffffffffffffffffffffffffffffff1681526020016001151581526020013373ffffffffffffffffffffffffffffffffffffffff1681526020016004808111156119a0577f4e487b7100000000000000000000000000000000000000000000000000000000600052602160045260246000fd5b8152506001600085815260200190815260200160002060050160008473ffffffffffffffffffffffffffffffffffffffff1673ffffffffffffffffffffffffffffffffffffffff16815260200190815260200160002060008201518160000160006101000a81548173ffffffffffffffffffffffffffffffffffffffff021916908373ffffffffffffffffffffffffffffffffffffffff16021790555060208201518160000160146101000a81548160ff02191690831515021790555060408201518160010160006101000a81548173ffffffffffffffffffffffffffffffffffffffff021916908373ffffffffffffffffffffffffffffffffffffffff16021790555060608201518160010160146101000a81548160ff02191690836004811115611af5577f4e487b7100000000000000000000000000000000000000000000000000000000600052602160045260246000fd5b02179055509050503373ffffffffffffffffffffffffffffffffffffffff168273ffffffffffffffffffffffffffffffffffffffff16847fd2cc3869a0e939546bd9d2ee07f7ec4521c404a0949b04f5105668e282e1522460405160405180910390a4505050565b60008133604051602001611b729291906128e3565b604051602081830303815290604052805190602001209050919050565b60405180606001604052808381526020013373ffffffffffffffffffffffffffffffffffffffff168152602001826004811115611bf5577f4e487b7100000000000000000000000000000000000000000000000000000000600052602160045260246000fd5b81525060008085815260200190815260200160002060008481526020019081526020016000206000820151816000015560208201518160010160006101000a81548173ffffffffffffffffffffffffffffffffffffffff021916908373ffffffffffffffffffffffffffffffffffffffff16021790555060408201518160010160146101000a81548160ff02191690836004811115611cbd577f4e487b7100000000000000000000000000000000000000000000000000000000600052602160045260246000fd5b0217905550905050505050565b81816000151560026000848152602001908152602001600020600083815260200190815260200160002060050160009054906101000a900460ff16151514611d47576040517f08c379a0000000000000000000000000000000000000000000000000000000008152600401611d3e90612be6565b60405180910390fd5b60016002600086815260200190815260200160002060008581526020019081526020016000206004016000828254611d7f9190612d62565b9250508190555050505050565b60008382604051602001611da1929190612926565b60405160208183030381529060405280519060200120905060006040518060c001604052808381526020018681526020018481526020018581526020016000815260200160001515815250905080600260008881526020019081526020016000206000848152602001908152602001600020600082015181600001556020820151816001019080519060200190611e39929190612178565b506040820151816002019080519060200190611e56929190612178565b506060820151816003019080519060200190611e73929190612178565b506080820151816004015560a08201518160050160006101000a81548160ff0219169083151502179055509050506003600087815260200190815260200160002082908060018154018082558091505060019003906000526020600020016000909190919091505582604051611ee9919061290f565b604051809103902085604051611eff919061290f565b6040518091039020837f04298c5512631ee205d05a28c5771d775e13286906989f78f4f5bc7e841813dd8733604051611f39929190612b56565b60405180910390a4505050505050565b60405180608001604052803373ffffffffffffffffffffffffffffffffffffffff168152602001600115158152602001600073ffffffffffffffffffffffffffffffffffffffff168152602001600480811115611fcf577f4e487b7100000000000000000000000000000000000000000000000000000000600052602160045260246000fd5b8152506001600084815260200190815260200160002060050160003373ffffffffffffffffffffffffffffffffffffffff1673ffffffffffffffffffffffffffffffffffffffff16815260200190815260200160002060008201518160000160006101000a81548173ffffffffffffffffffffffffffffffffffffffff021916908373ffffffffffffffffffffffffffffffffffffffff16021790555060208201518160000160146101000a81548160ff02191690831515021790555060408201518160010160006101000a81548173ffffffffffffffffffffffffffffffffffffffff021916908373ffffffffffffffffffffffffffffffffffffffff16021790555060608201518160010160146101000a81548160ff02191690836004811115612124577f4e487b7100000000000000000000000000000000000000000000000000000000600052602160045260246000fd5b02179055509050508060016000848152602001908152602001600020600401819055506001806000848152602001908152602001600020600001600082825461216d9190612d62565b925050819055505050565b82805461218490612e4c565b90600052602060002090601f0160209004810192826121a657600085556121ed565b82601f106121bf57805160ff19168380011785556121ed565b828001600101855582156121ed579182015b828111156121ec5782518255916020019190600101906121d1565b5b5090506121fa91906121fe565b5090565b5b808211156122175760008160009055506001016121ff565b5090565b600061222e61222984612cd2565b612ca1565b90508281526020810184848401111561224657600080fd5b612251848285612e0a565b509392505050565b60008135905061226881612f61565b92915050565b60008135905061227d81612f78565b92915050565b600082601f83011261229457600080fd5b81356122a484826020860161221b565b91505092915050565b6000813590506122bc81612f8f565b92915050565b6000602082840312156122d457600080fd5b60006122e28482850161226e565b91505092915050565b600080604083850312156122fe57600080fd5b600061230c8582860161226e565b925050602061231d85828601612259565b9150509250929050565b6000806040838503121561233a57600080fd5b60006123488582860161226e565b92505060206123598582860161226e565b9150509250929050565b6000806000806080858703121561237957600080fd5b60006123878782880161226e565b945050602085013567ffffffffffffffff8111156123a457600080fd5b6123b087828801612283565b935050604085013567ffffffffffffffff8111156123cd57600080fd5b6123d987828801612283565b925050606085013567ffffffffffffffff8111156123f657600080fd5b61240287828801612283565b91505092959194509250565b600080600080600060a0868803121561242657600080fd5b600086013567ffffffffffffffff81111561244057600080fd5b61244c88828901612283565b955050602086013567ffffffffffffffff81111561246957600080fd5b61247588828901612283565b9450506040612486888289016122ad565b9350506060612497888289016122ad565b92505060806124a8888289016122ad565b9150509295509295909350565b60006124c18383612560565b60208301905092915050565b6124d681612db8565b82525050565b6124ed6124e882612db8565b612e7e565b82525050565b60006124fe82612d12565b6125088185612d35565b935061251383612d02565b8060005b8381101561254457815161252b88826124b5565b975061253683612d28565b925050600181019050612517565b5085935050505092915050565b61255a81612dca565b82525050565b61256981612dd6565b82525050565b61257881612dd6565b82525050565b61258f61258a82612dd6565b612e90565b82525050565b60006125a082612d1d565b6125aa8185612d46565b93506125ba818560208601612e19565b6125c381612f43565b840191505092915050565b60006125d982612d1d565b6125e38185612d57565b93506125f3818560208601612e19565b80840191505092915050565b600061260c602783612d46565b91507f596f75206861766520616c726561647920766f74656420696e2074686973206560008301527f6c656374696f6e000000000000000000000000000000000000000000000000006020830152604082019050919050565b6000612672602283612d46565b91507f596f75277265206e6f742061646d696e20666f72207468697320656c6563746960008301527f6f6e0000000000000000000000000000000000000000000000000000000000006020830152604082019050919050565b60006126d8601a83612d46565b91507f496e76616c696420656c656374696f6e2073656c656374696f6e0000000000006000830152602082019050919050565b6000612718601f83612d46565b91507f546869732063616e64696461746520776173206469737175616c6966696564006000830152602082019050919050565b6000612758601183612d46565b91507f496e76616c69642043616e6469646174650000000000000000000000000000006000830152602082019050919050565b6000612798603983612d46565b91507f596f7520646f6e277420686176652074686520726571756972656420726f6c6560008301527f20746f20617070726f7665207468697320726571756573742e000000000000006020830152604082019050919050565b60006127fe603083612d46565b91507f596f752063616e27742061646420612063616e64696461746520746f20616e2060008301527f6f6e676f696e6720656c656374696f6e000000000000000000000000000000006020830152604082019050919050565b6000612864603383612d46565b91507f596f752063616e2774207265766f6b65206120726f6c6520726571756573742060008301527f796f7520646f6e27742068617665207965742e000000000000000000000000006020830152604082019050919050565b6128c681612e00565b82525050565b6128dd6128d882612e00565b612eac565b82525050565b60006128ef828561257e565b6020820191506128ff82846124dc565b6014820191508190509392505050565b600061291b82846125ce565b915081905092915050565b600061293282856125ce565b915061293e82846125ce565b91508190509392505050565b600061295682876125ce565b915061296282866125ce565b915061296e82856124dc565b60148201915061297e82846128cc565b60208201915081905095945050505050565b600060208201905081810360008301526129aa81846124f3565b905092915050565b60006020820190506129c76000830184612551565b92915050565b60006020820190506129e2600083018461256f565b92915050565b60006040820190506129fd600083018561256f565b612a0a60208301846124cd565b9392505050565b6000606082019050612a26600083018661256f565b612a33602083018561256f565b612a4060408301846124cd565b949350505050565b600060c082019050612a5d600083018961256f565b8181036020830152612a6f8188612595565b90508181036040830152612a838187612595565b90508181036060830152612a978186612595565b9050612aa660808301856128bd565b612ab360a0830184612551565b979650505050505050565b600060c082019050612ad3600083018961256f565b8181036020830152612ae58188612595565b90508181036040830152612af98187612595565b9050612b0860608301866128bd565b612b1560808301856128bd565b612b2260a08301846124cd565b979650505050505050565b6000604082019050612b42600083018561256f565b612b4f60208301846128bd565b9392505050565b60006040820190508181036000830152612b708185612595565b9050612b7f60208301846124cd565b9392505050565b60006020820190508181036000830152612b9f816125ff565b9050919050565b60006020820190508181036000830152612bbf81612665565b9050919050565b60006020820190508181036000830152612bdf816126cb565b9050919050565b60006020820190508181036000830152612bff8161270b565b9050919050565b60006020820190508181036000830152612c1f8161274b565b9050919050565b60006020820190508181036000830152612c3f8161278b565b9050919050565b60006020820190508181036000830152612c5f816127f1565b9050919050565b60006020820190508181036000830152612c7f81612857565b9050919050565b6000602082019050612c9b60008301846128bd565b92915050565b6000604051905081810181811067ffffffffffffffff82111715612cc857612cc7612f14565b5b8060405250919050565b600067ffffffffffffffff821115612ced57612cec612f14565b5b601f19601f8301169050602081019050919050565b6000819050602082019050919050565b600081519050919050565b600081519050919050565b6000602082019050919050565b600082825260208201905092915050565b600082825260208201905092915050565b600081905092915050565b6000612d6d82612e00565b9150612d7883612e00565b9250827fffffffffffffffffffffffffffffffffffffffffffffffffffffffffffffffff03821115612dad57612dac612eb6565b5b828201905092915050565b6000612dc382612de0565b9050919050565b60008115159050919050565b6000819050919050565b600073ffffffffffffffffffffffffffffffffffffffff82169050919050565b6000819050919050565b82818337600083830152505050565b60005b83811015612e37578082015181840152602081019050612e1c565b83811115612e46576000848401525b50505050565b60006002820490506001821680612e6457607f821691505b60208210811415612e7857612e77612ee5565b5b50919050565b6000612e8982612e9a565b9050919050565b6000819050919050565b6000612ea582612f54565b9050919050565b6000819050919050565b7f4e487b7100000000000000000000000000000000000000000000000000000000600052601160045260246000fd5b7f4e487b7100000000000000000000000000000000000000000000000000000000600052602260045260246000fd5b7f4e487b7100000000000000000000000000000000000000000000000000000000600052604160045260246000fd5b6000601f19601f8301169050919050565b60008160601b9050919050565b612f6a81612db8565b8114612f7557600080fd5b50565b612f8181612dd6565b8114612f8c57600080fd5b50565b612f9881612e00565b8114612fa357600080fd5b5056fea2646970667358221220adb9622ca3ea25e29f31998d55760521804294677daab3766219eb7314930b5364736f6c63430008000033",
  "immutableReferences": {},
  "source": "// SPDX-License-Identifier: UNLICENSED\npragma solidity ^0.8.0;\n\nimport \"./subcontracts/Candidates.sol\";\nimport \"./subcontracts/Roles.sol\";\n\ncontract Vhota is Roles, Candidates {\n    struct Vote {\n        address user;\n        bytes32 candidate;\n        bool voted;\n    }\n\n    struct Election {\n        bytes32 id;\n        uint256 index;\n        string name;\n        string description;\n        uint256 pollStart;\n        uint256 pollEnd;\n        address creator;\n        mapping(address => Vote) voted;\n    }\n\n    struct ElectionMeta {\n        address creator;\n        bytes32 id;\n    }\n\n    // variables\n    uint256 elections = 0;\n    mapping(bytes32 => Election) electionsMap;\n    ElectionMeta[] electionsList;\n    mapping(address => bytes32[]) electionsByUsers;\n    // mapping(address => bytes32[]) associatedElections;\n\n    event ElectionCreated(bytes32 id, address sender);\n\n    modifier isValidElection(bytes32 electionId) {\n        require(\n            electionsMap[electionId].id == electionId,\n            \"Invalid election selection\"\n        );\n        _;\n    }\n\n    modifier isBeforeElectionStart(bytes32 _electionId) {\n        require(\n            electionsMap[_electionId].pollStart > block.timestamp,\n            \"You can't add a candidate to an ongoing election\"\n        );\n        _;\n    }\n\n    modifier isWithinPollDate(bytes32 _electionId) {\n        uint256 currentTime = block.timestamp;\n        require(\n            electionsMap[_electionId].pollStart < currentTime,\n            \"The polls are not yet open for this election\"\n        );\n        require(\n            currentTime > electionsMap[_electionId].pollEnd,\n            \"The polls have closed for this election\"\n        );\n        _;\n    }\n\n    modifier hasNotVoted(bytes32 _electionId) {\n        require(\n            electionsMap[_electionId].voted[msg.sender].voted == false,\n            \"You have already voted in this election\"\n        );\n        _;\n    }\n\n    function createElection(\n        string memory _name,\n        string memory _description,\n        uint256 start,\n        uint256 end,\n        uint256 _adminLimit\n    ) public returns (bytes32 id) {\n        elections += 1;\n        id = keccak256(\n            abi.encodePacked(_name, _description, msg.sender, elections)\n        );\n        electionsMap[id].id = id;\n        electionsMap[id].index = elections;\n        electionsMap[id].name = _name;\n        electionsMap[id].description = _description;\n        electionsMap[id].pollStart = start;\n        electionsMap[id].pollEnd = end;\n        electionsMap[id].creator = msg.sender;\n        electionsList.push(ElectionMeta({creator: msg.sender, id: id}));\n        electionsByUsers[msg.sender].push(id);\n        // add admin roles as needed\n        _setupRolesForElection(id, _adminLimit);\n\n        emit ElectionCreated(id, msg.sender);\n    }\n\n    function addElectionAdmin(bytes32 electionId, address _newAdmin)\n        public\n        isValidElection(electionId)\n    {\n        _addElectionAdmin(electionId, _newAdmin);\n    }\n\n    function getElectionById(bytes32 id)\n        public\n        view\n        returns (\n            bytes32 _id,\n            string memory name,\n            string memory description,\n            uint256 pollStart,\n            uint256 pollEnd,\n            address creator\n        )\n    {\n        _id = id;\n        name = electionsMap[id].name;\n        description = electionsMap[id].description;\n        pollStart = electionsMap[id].pollStart;\n        pollEnd = electionsMap[id].pollEnd;\n        creator = electionsMap[id].creator;\n    }\n\n    function addCandidateToElection(\n        bytes32 electionId,\n        string memory name,\n        string memory manifesto,\n        string memory party\n    )\n        public\n        isValidElection(electionId)\n        isBeforeElectionStart(electionId)\n        isElectionAdmin(electionId)\n    {\n        _addCandidate(electionId, name, manifesto, party);\n    }\n\n    function userHasVotedForElection(bytes32 electionId)\n        public\n        view\n        isValidElection(electionId)\n        returns (bool)\n    {\n        return electionsMap[electionId].voted[msg.sender].voted;\n    }\n\n    function voteElectionCandidate(bytes32 _electionId, bytes32 _candidateId)\n        public\n        hasNotVoted(_electionId)\n    {\n        electionsMap[_electionId].voted[msg.sender] = Vote({\n            user: msg.sender,\n            candidate: _candidateId,\n            voted: true\n        });\n        _voteCandidate(_electionId, _candidateId);\n    }\n}\n",
  "sourcePath": "/Users/ghostffcode/Documents/UpkitStudio/vhota/contracts/Vhota.sol",
  "compiler": {
    "name": "solc",
    "version": "0.8.0+commit.c7dfd78e.Emscripten.clang"
  },
  "schemaVersion": "3.4.1",
  "updatedAt": "2021-06-24T11:52:38.083Z",
  "networkType": "ethereum",
  "devdoc": {
    "kind": "dev",
    "methods": {},
    "version": 1
  },
  "userdoc": {
    "kind": "user",
    "methods": {},
    "version": 1
  }
}