{
  "contractName": "Vhota",
  "abi": [
    {
      "anonymous": false,
      "inputs": [
        {
          "indexed": true,
          "internalType": "bytes32",
          "name": "election",
          "type": "bytes32"
        },
        {
          "indexed": true,
          "internalType": "address",
          "name": "newAdmin",
          "type": "address"
        },
        {
          "indexed": true,
          "internalType": "address",
          "name": "sender",
          "type": "address"
        }
      ],
      "name": "AdminAdded",
      "type": "event"
    },
    {
      "anonymous": false,
      "inputs": [
        {
          "indexed": true,
          "internalType": "bytes32",
          "name": "id",
          "type": "bytes32"
        },
        {
          "indexed": true,
          "internalType": "string",
          "name": "name",
          "type": "string"
        },
        {
          "indexed": true,
          "internalType": "string",
          "name": "party",
          "type": "string"
        },
        {
          "indexed": false,
          "internalType": "string",
          "name": "manifesto",
          "type": "string"
        },
        {
          "indexed": false,
          "internalType": "address",
          "name": "admin",
          "type": "address"
        }
      ],
      "name": "CandidateAdded",
      "type": "event"
    },
    {
      "anonymous": false,
      "inputs": [
        {
          "indexed": false,
          "internalType": "bytes32",
          "name": "id",
          "type": "bytes32"
        },
        {
          "indexed": false,
          "internalType": "address",
          "name": "sender",
          "type": "address"
        }
      ],
      "name": "ElectionCreated",
      "type": "event"
    },
    {
      "inputs": [
        {
          "internalType": "bytes32",
          "name": "electionId",
          "type": "bytes32"
        },
        {
          "internalType": "bytes32",
          "name": "candidateId",
          "type": "bytes32"
        }
      ],
      "name": "getCandidateById",
      "outputs": [
        {
          "internalType": "bytes32",
          "name": "id",
          "type": "bytes32"
        },
        {
          "internalType": "string",
          "name": "name",
          "type": "string"
        },
        {
          "internalType": "string",
          "name": "party",
          "type": "string"
        },
        {
          "internalType": "string",
          "name": "manifesto",
          "type": "string"
        },
        {
          "internalType": "uint256",
          "name": "votes",
          "type": "uint256"
        },
        {
          "internalType": "bool",
          "name": "disqualified",
          "type": "bool"
        }
      ],
      "stateMutability": "view",
      "type": "function",
      "constant": true
    },
    {
      "inputs": [
        {
          "internalType": "bytes32",
          "name": "electionId",
          "type": "bytes32"
        }
      ],
      "name": "getCandidatesForElection",
      "outputs": [
        {
          "internalType": "bytes32[]",
          "name": "",
          "type": "bytes32[]"
        }
      ],
      "stateMutability": "view",
      "type": "function",
      "constant": true
    },
    {
      "inputs": [
        {
          "internalType": "bytes32",
          "name": "electionId",
          "type": "bytes32"
        }
      ],
      "name": "getRoleForElection",
      "outputs": [
        {
          "internalType": "uint256",
          "name": "role",
          "type": "uint256"
        }
      ],
      "stateMutability": "view",
      "type": "function",
      "constant": true
    },
    {
      "inputs": [
        {
          "internalType": "bytes32",
          "name": "electionId",
          "type": "bytes32"
        }
      ],
      "name": "getRoleRequest",
      "outputs": [
        {
          "internalType": "uint256",
          "name": "role",
          "type": "uint256"
        }
      ],
      "stateMutability": "view",
      "type": "function",
      "constant": true
    },
    {
      "inputs": [
        {
          "internalType": "bytes32",
          "name": "electionId",
          "type": "bytes32"
        }
      ],
      "name": "requestStateValidatorRole",
      "outputs": [
        {
          "internalType": "bytes32",
          "name": "id",
          "type": "bytes32"
        }
      ],
      "stateMutability": "nonpayable",
      "type": "function"
    },
    {
      "inputs": [
        {
          "internalType": "bytes32",
          "name": "electionId",
          "type": "bytes32"
        }
      ],
      "name": "requestVoterRole",
      "outputs": [
        {
          "internalType": "bytes32",
          "name": "id",
          "type": "bytes32"
        }
      ],
      "stateMutability": "nonpayable",
      "type": "function"
    },
    {
      "inputs": [
        {
          "internalType": "bytes32",
          "name": "electionId",
          "type": "bytes32"
        }
      ],
      "name": "requestZoneValidatorRole",
      "outputs": [
        {
          "internalType": "bytes32",
          "name": "id",
          "type": "bytes32"
        }
      ],
      "stateMutability": "nonpayable",
      "type": "function"
    },
    {
      "inputs": [
        {
          "internalType": "bytes32",
          "name": "electionId",
          "type": "bytes32"
        }
      ],
      "name": "revokeRoleRequest",
      "outputs": [],
      "stateMutability": "nonpayable",
      "type": "function"
    },
    {
      "inputs": [
        {
          "internalType": "string",
          "name": "_name",
          "type": "string"
        },
        {
          "internalType": "string",
          "name": "_description",
          "type": "string"
        },
        {
          "internalType": "uint256",
          "name": "start",
          "type": "uint256"
        },
        {
          "internalType": "uint256",
          "name": "end",
          "type": "uint256"
        },
        {
          "internalType": "uint256",
          "name": "_adminLimit",
          "type": "uint256"
        }
      ],
      "name": "createElection",
      "outputs": [
        {
          "internalType": "bytes32",
          "name": "id",
          "type": "bytes32"
        }
      ],
      "stateMutability": "nonpayable",
      "type": "function"
    },
    {
      "inputs": [
        {
          "internalType": "bytes32",
          "name": "electionId",
          "type": "bytes32"
        },
        {
          "internalType": "address",
          "name": "_newAdmin",
          "type": "address"
        }
      ],
      "name": "addElectionAdmin",
      "outputs": [],
      "stateMutability": "nonpayable",
      "type": "function"
    },
    {
      "inputs": [
        {
          "internalType": "bytes32",
          "name": "id",
          "type": "bytes32"
        }
      ],
      "name": "getElectionById",
      "outputs": [
        {
          "internalType": "bytes32",
          "name": "_id",
          "type": "bytes32"
        },
        {
          "internalType": "string",
          "name": "name",
          "type": "string"
        },
        {
          "internalType": "string",
          "name": "description",
          "type": "string"
        },
        {
          "internalType": "uint256",
          "name": "pollStart",
          "type": "uint256"
        },
        {
          "internalType": "uint256",
          "name": "pollEnd",
          "type": "uint256"
        },
        {
          "internalType": "address",
          "name": "creator",
          "type": "address"
        }
      ],
      "stateMutability": "view",
      "type": "function",
      "constant": true
    },
    {
      "inputs": [
        {
          "internalType": "bytes32",
          "name": "electionId",
          "type": "bytes32"
        },
        {
          "internalType": "string",
          "name": "name",
          "type": "string"
        },
        {
          "internalType": "string",
          "name": "manifesto",
          "type": "string"
        },
        {
          "internalType": "string",
          "name": "party",
          "type": "string"
        }
      ],
      "name": "addCandidateToElection",
      "outputs": [],
      "stateMutability": "nonpayable",
      "type": "function"
    }
  ],
  "bytecode": "0x6080604052600060045534801561001557600080fd5b506123b1806100256000396000f3fe608060405234801561001057600080fd5b50600436106100b45760003560e01c8063a27116be11610071578063a27116be146101b6578063a7cd35f5146101e6578063ab7c734314610216578063f2578fd814610246578063fef4f3d714610262578063ff50e12f14610297576100b4565b8063033c2857146100b957806339b47608146100d557806348b24c9c146101055780635b9f2f92146101355780635fa145781461016a578063910dcf711461019a575b600080fd5b6100d360048036038101906100ce919061192d565b6102c7565b005b6100ef60048036038101906100ea9190611904565b61032f565b6040516100fc919061205b565b60405180910390f35b61011f600480360381019061011a9190611904565b6103d4565b60405161012c9190611e82565b60405180910390f35b61014f600480360381019061014a9190611969565b6103f2565b60405161016196959493929190611ec6565b60405180910390f35b610184600480360381019061017f9190611904565b610714565b6040516101919190611e82565b60405180910390f35b6101b460048036038101906101af9190611904565b610732565b005b6101d060048036038101906101cb9190611904565b6107ac565b6040516101dd9190611e60565b60405180910390f35b61020060048036038101906101fb9190611904565b610817565b60405161020d919061205b565b60405180910390f35b610230600480360381019061022b9190611904565b610899565b60405161023d9190611e82565b60405180910390f35b610260600480360381019061025b91906119a5565b6108b7565b005b61027c60048036038101906102779190611904565b610a94565b60405161028e96959493929190611f3c565b60405180910390f35b6102b160048036038101906102ac9190611a50565b610c57565b6040516102be9190611e82565b60405180910390f35b8180600560008381526020019081526020016000206000015414610320576040517f08c379a000000000000000000000000000000000000000000000000000000000815260040161031790611ffb565b60405180910390fd5b61032a8383610f09565b505050565b60006001600083815260200190815260200160002060050160003373ffffffffffffffffffffffffffffffffffffffff1673ffffffffffffffffffffffffffffffffffffffff16815260200190815260200160002060010160149054906101000a900460ff1660048111156103cd577f4e487b7100000000000000000000000000000000000000000000000000000000600052602160045260246000fd5b9050919050565b60006103df82611261565b90506103ed82826002611293565b919050565b600060608060606000808787806002600084815260200190815260200160002060008381526020019081526020016000206000015414610467576040517f08c379a000000000000000000000000000000000000000000000000000000000815260040161045e9061201b565b60405180910390fd5b600260008b815260200190815260200160002060008a8152602001908152602001600020600001549750600260008b815260200190815260200160002060008a815260200190815260200160002060010180546104c390612221565b80601f01602080910402602001604051908101604052809291908181526020018280546104ef90612221565b801561053c5780601f106105115761010080835404028352916020019161053c565b820191906000526020600020905b81548152906001019060200180831161051f57829003601f168201915b50505050509650600260008b815260200190815260200160002060008a8152602001908152602001600020600201805461057590612221565b80601f01602080910402602001604051908101604052809291908181526020018280546105a190612221565b80156105ee5780601f106105c3576101008083540402835291602001916105ee565b820191906000526020600020905b8154815290600101906020018083116105d157829003601f168201915b50505050509550600260008b815260200190815260200160002060008a8152602001908152602001600020600301805461062790612221565b80601f016020809104026020016040519081016040528092919081815260200182805461065390612221565b80156106a05780601f10610675576101008083540402835291602001916106a0565b820191906000526020600020905b81548152906001019060200180831161068357829003601f168201915b50505050509450600260008b815260200190815260200160002060008a8152602001908152602001600020600401549350600260008b815260200190815260200160002060008a815260200190815260200160002060050160009054906101000a900460ff16925050509295509295509295565b600061071f82611261565b905061072d82826001611293565b919050565b600061073d82611261565b905060008083815260200190815260200160002060008281526020019081526020016000206000808201600090556001820160006101000a81549073ffffffffffffffffffffffffffffffffffffffff02191690556001820160146101000a81549060ff021916905550505050565b60606003600083815260200190815260200160002080548060200260200160405190810160405280929190818152602001828054801561080b57602002820191906000526020600020905b8154815260200190600101908083116107f7575b50505050509050919050565b60008061082383611261565b9050600080848152602001908152602001600020600082815260200190815260200160002060010160149054906101000a900460ff166004811115610891577f4e487b7100000000000000000000000000000000000000000000000000000000600052602160045260246000fd5b915050919050565b60006108a482611261565b90506108b282826003611293565b919050565b8380600560008381526020019081526020016000206000015414610910576040517f08c379a000000000000000000000000000000000000000000000000000000000815260040161090790611ffb565b60405180910390fd5b8442600560008381526020019081526020016000206004015411610969576040517f08c379a00000000000000000000000000000000000000000000000000000000081526004016109609061203b565b60405180910390fd5b856004808111156109a3577f4e487b7100000000000000000000000000000000000000000000000000000000600052602160045260246000fd5b6001600083815260200190815260200160002060050160003373ffffffffffffffffffffffffffffffffffffffff1673ffffffffffffffffffffffffffffffffffffffff16815260200190815260200160002060010160149054906101000a900460ff166004811115610a3f577f4e487b7100000000000000000000000000000000000000000000000000000000600052602160045260246000fd5b14610a7f576040517f08c379a0000000000000000000000000000000000000000000000000000000008152600401610a7690611fdb565b60405180910390fd5b610a8b878787876113ce565b50505050505050565b60006060806000806000869550600560008881526020019081526020016000206002018054610ac290612221565b80601f0160208091040260200160405190810160405280929190818152602001828054610aee90612221565b8015610b3b5780601f10610b1057610100808354040283529160200191610b3b565b820191906000526020600020905b815481529060010190602001808311610b1e57829003601f168201915b50505050509450600560008881526020019081526020016000206003018054610b6390612221565b80601f0160208091040260200160405190810160405280929190818152602001828054610b8f90612221565b8015610bdc5780601f10610bb157610100808354040283529160200191610bdc565b820191906000526020600020905b815481529060010190602001808311610bbf57829003601f168201915b5050505050935060056000888152602001908152602001600020600401549250600560008881526020019081526020016000206005015491506005600088815260200190815260200160002060060160009054906101000a900473ffffffffffffffffffffffffffffffffffffffff16905091939550919395565b6000600160046000828254610c6c9190612137565b92505081905550858533600454604051602001610c8c9493929190611e1a565b6040516020818303038152906040528051906020012090506040518060e0016040528082815260200160045481526020018781526020018681526020018581526020018481526020013373ffffffffffffffffffffffffffffffffffffffff168152506005600083815260200190815260200160002060008201518160000155602082015181600101556040820151816002019080519060200190610d329291906117ba565b506060820151816003019080519060200190610d4f9291906117ba565b506080820151816004015560a0820151816005015560c08201518160060160006101000a81548173ffffffffffffffffffffffffffffffffffffffff021916908373ffffffffffffffffffffffffffffffffffffffff160217905550905050600660405180604001604052803373ffffffffffffffffffffffffffffffffffffffff16815260200183815250908060018154018082558091505060019003906000526020600020906002020160009091909190915060008201518160000160006101000a81548173ffffffffffffffffffffffffffffffffffffffff021916908373ffffffffffffffffffffffffffffffffffffffff160217905550602082015181600101555050600760003373ffffffffffffffffffffffffffffffffffffffff1673ffffffffffffffffffffffffffffffffffffffff168152602001908152602001600020819080600181540180825580915050600190039060005260206000200160009091909190915055610ec7818361158b565b7f159534d44b7c1bfbdf7a96279a1568348c83a4ac59986f77bff620465adec7e68133604051610ef8929190611e9d565b60405180910390a195945050505050565b81600480811115610f43577f4e487b7100000000000000000000000000000000000000000000000000000000600052602160045260246000fd5b6001600083815260200190815260200160002060050160003373ffffffffffffffffffffffffffffffffffffffff1673ffffffffffffffffffffffffffffffffffffffff16815260200190815260200160002060010160149054906101000a900460ff166004811115610fdf577f4e487b7100000000000000000000000000000000000000000000000000000000600052602160045260246000fd5b1461101f576040517f08c379a000000000000000000000000000000000000000000000000000000000815260040161101690611fdb565b60405180910390fd5b60405180608001604052808373ffffffffffffffffffffffffffffffffffffffff1681526020016001151581526020013373ffffffffffffffffffffffffffffffffffffffff1681526020016004808111156110a4577f4e487b7100000000000000000000000000000000000000000000000000000000600052602160045260246000fd5b8152506001600085815260200190815260200160002060050160008473ffffffffffffffffffffffffffffffffffffffff1673ffffffffffffffffffffffffffffffffffffffff16815260200190815260200160002060008201518160000160006101000a81548173ffffffffffffffffffffffffffffffffffffffff021916908373ffffffffffffffffffffffffffffffffffffffff16021790555060208201518160000160146101000a81548160ff02191690831515021790555060408201518160010160006101000a81548173ffffffffffffffffffffffffffffffffffffffff021916908373ffffffffffffffffffffffffffffffffffffffff16021790555060608201518160010160146101000a81548160ff021916908360048111156111f9577f4e487b7100000000000000000000000000000000000000000000000000000000600052602160045260246000fd5b02179055509050503373ffffffffffffffffffffffffffffffffffffffff168273ffffffffffffffffffffffffffffffffffffffff16847fd2cc3869a0e939546bd9d2ee07f7ec4521c404a0949b04f5105668e282e1522460405160405180910390a4505050565b60008133604051602001611276929190611db3565b604051602081830303815290604052805190602001209050919050565b60405180606001604052808381526020013373ffffffffffffffffffffffffffffffffffffffff1681526020018260048111156112f9577f4e487b7100000000000000000000000000000000000000000000000000000000600052602160045260246000fd5b81525060008085815260200190815260200160002060008481526020019081526020016000206000820151816000015560208201518160010160006101000a81548173ffffffffffffffffffffffffffffffffffffffff021916908373ffffffffffffffffffffffffffffffffffffffff16021790555060408201518160010160146101000a81548160ff021916908360048111156113c1577f4e487b7100000000000000000000000000000000000000000000000000000000600052602160045260246000fd5b0217905550905050505050565b600083826040516020016113e3929190611df6565b60405160208183030381529060405280519060200120905060006040518060c00160405280838152602001868152602001848152602001858152602001600081526020016000151581525090508060026000888152602001908152602001600020600084815260200190815260200160002060008201518160000155602082015181600101908051906020019061147b9291906117ba565b5060408201518160020190805190602001906114989291906117ba565b5060608201518160030190805190602001906114b59291906117ba565b506080820151816004015560a08201518160050160006101000a81548160ff021916908315150217905550905050600360008781526020019081526020016000208290806001815401808255809150506001900390600052602060002001600090919091909150558260405161152b9190611ddf565b6040518091039020856040516115419190611ddf565b6040518091039020837f04298c5512631ee205d05a28c5771d775e13286906989f78f4f5bc7e841813dd873360405161157b929190611fab565b60405180910390a4505050505050565b60405180608001604052803373ffffffffffffffffffffffffffffffffffffffff168152602001600115158152602001600073ffffffffffffffffffffffffffffffffffffffff168152602001600480811115611611577f4e487b7100000000000000000000000000000000000000000000000000000000600052602160045260246000fd5b8152506001600084815260200190815260200160002060050160003373ffffffffffffffffffffffffffffffffffffffff1673ffffffffffffffffffffffffffffffffffffffff16815260200190815260200160002060008201518160000160006101000a81548173ffffffffffffffffffffffffffffffffffffffff021916908373ffffffffffffffffffffffffffffffffffffffff16021790555060208201518160000160146101000a81548160ff02191690831515021790555060408201518160010160006101000a81548173ffffffffffffffffffffffffffffffffffffffff021916908373ffffffffffffffffffffffffffffffffffffffff16021790555060608201518160010160146101000a81548160ff02191690836004811115611766577f4e487b7100000000000000000000000000000000000000000000000000000000600052602160045260246000fd5b0217905550905050806001600084815260200190815260200160002060040181905550600180600084815260200190815260200160002060000160008282546117af9190612137565b925050819055505050565b8280546117c690612221565b90600052602060002090601f0160209004810192826117e8576000855561182f565b82601f1061180157805160ff191683800117855561182f565b8280016001018555821561182f579182015b8281111561182e578251825591602001919060010190611813565b5b50905061183c9190611840565b5090565b5b80821115611859576000816000905550600101611841565b5090565b600061187061186b846120a7565b612076565b90508281526020810184848401111561188857600080fd5b6118938482856121df565b509392505050565b6000813590506118aa81612336565b92915050565b6000813590506118bf8161234d565b92915050565b600082601f8301126118d657600080fd5b81356118e684826020860161185d565b91505092915050565b6000813590506118fe81612364565b92915050565b60006020828403121561191657600080fd5b6000611924848285016118b0565b91505092915050565b6000806040838503121561194057600080fd5b600061194e858286016118b0565b925050602061195f8582860161189b565b9150509250929050565b6000806040838503121561197c57600080fd5b600061198a858286016118b0565b925050602061199b858286016118b0565b9150509250929050565b600080600080608085870312156119bb57600080fd5b60006119c9878288016118b0565b945050602085013567ffffffffffffffff8111156119e657600080fd5b6119f2878288016118c5565b935050604085013567ffffffffffffffff811115611a0f57600080fd5b611a1b878288016118c5565b925050606085013567ffffffffffffffff811115611a3857600080fd5b611a44878288016118c5565b91505092959194509250565b600080600080600060a08688031215611a6857600080fd5b600086013567ffffffffffffffff811115611a8257600080fd5b611a8e888289016118c5565b955050602086013567ffffffffffffffff811115611aab57600080fd5b611ab7888289016118c5565b9450506040611ac8888289016118ef565b9350506060611ad9888289016118ef565b9250506080611aea888289016118ef565b9150509295509295909350565b6000611b038383611ba2565b60208301905092915050565b611b188161218d565b82525050565b611b2f611b2a8261218d565b612253565b82525050565b6000611b40826120e7565b611b4a818561210a565b9350611b55836120d7565b8060005b83811015611b86578151611b6d8882611af7565b9750611b78836120fd565b925050600181019050611b59565b5085935050505092915050565b611b9c8161219f565b82525050565b611bab816121ab565b82525050565b611bba816121ab565b82525050565b611bd1611bcc826121ab565b612265565b82525050565b6000611be2826120f2565b611bec818561211b565b9350611bfc8185602086016121ee565b611c0581612318565b840191505092915050565b6000611c1b826120f2565b611c25818561212c565b9350611c358185602086016121ee565b80840191505092915050565b6000611c4e60228361211b565b91507f596f75277265206e6f742061646d696e20666f72207468697320656c6563746960008301527f6f6e0000000000000000000000000000000000000000000000000000000000006020830152604082019050919050565b6000611cb4601a8361211b565b91507f496e76616c696420656c656374696f6e2073656c656374696f6e0000000000006000830152602082019050919050565b6000611cf460118361211b565b91507f496e76616c69642043616e6469646174650000000000000000000000000000006000830152602082019050919050565b6000611d3460308361211b565b91507f596f752063616e27742061646420612063616e64696461746520746f20616e2060008301527f6f6e676f696e6720656c656374696f6e000000000000000000000000000000006020830152604082019050919050565b611d96816121d5565b82525050565b611dad611da8826121d5565b612281565b82525050565b6000611dbf8285611bc0565b602082019150611dcf8284611b1e565b6014820191508190509392505050565b6000611deb8284611c10565b915081905092915050565b6000611e028285611c10565b9150611e0e8284611c10565b91508190509392505050565b6000611e268287611c10565b9150611e328286611c10565b9150611e3e8285611b1e565b601482019150611e4e8284611d9c565b60208201915081905095945050505050565b60006020820190508181036000830152611e7a8184611b35565b905092915050565b6000602082019050611e976000830184611bb1565b92915050565b6000604082019050611eb26000830185611bb1565b611ebf6020830184611b0f565b9392505050565b600060c082019050611edb6000830189611bb1565b8181036020830152611eed8188611bd7565b90508181036040830152611f018187611bd7565b90508181036060830152611f158186611bd7565b9050611f246080830185611d8d565b611f3160a0830184611b93565b979650505050505050565b600060c082019050611f516000830189611bb1565b8181036020830152611f638188611bd7565b90508181036040830152611f778187611bd7565b9050611f866060830186611d8d565b611f936080830185611d8d565b611fa060a0830184611b0f565b979650505050505050565b60006040820190508181036000830152611fc58185611bd7565b9050611fd46020830184611b0f565b9392505050565b60006020820190508181036000830152611ff481611c41565b9050919050565b6000602082019050818103600083015261201481611ca7565b9050919050565b6000602082019050818103600083015261203481611ce7565b9050919050565b6000602082019050818103600083015261205481611d27565b9050919050565b60006020820190506120706000830184611d8d565b92915050565b6000604051905081810181811067ffffffffffffffff8211171561209d5761209c6122e9565b5b8060405250919050565b600067ffffffffffffffff8211156120c2576120c16122e9565b5b601f19601f8301169050602081019050919050565b6000819050602082019050919050565b600081519050919050565b600081519050919050565b6000602082019050919050565b600082825260208201905092915050565b600082825260208201905092915050565b600081905092915050565b6000612142826121d5565b915061214d836121d5565b9250827fffffffffffffffffffffffffffffffffffffffffffffffffffffffffffffffff038211156121825761218161228b565b5b828201905092915050565b6000612198826121b5565b9050919050565b60008115159050919050565b6000819050919050565b600073ffffffffffffffffffffffffffffffffffffffff82169050919050565b6000819050919050565b82818337600083830152505050565b60005b8381101561220c5780820151818401526020810190506121f1565b8381111561221b576000848401525b50505050565b6000600282049050600182168061223957607f821691505b6020821081141561224d5761224c6122ba565b5b50919050565b600061225e8261226f565b9050919050565b6000819050919050565b600061227a82612329565b9050919050565b6000819050919050565b7f4e487b7100000000000000000000000000000000000000000000000000000000600052601160045260246000fd5b7f4e487b7100000000000000000000000000000000000000000000000000000000600052602260045260246000fd5b7f4e487b7100000000000000000000000000000000000000000000000000000000600052604160045260246000fd5b6000601f19601f8301169050919050565b60008160601b9050919050565b61233f8161218d565b811461234a57600080fd5b50565b612356816121ab565b811461236157600080fd5b50565b61236d816121d5565b811461237857600080fd5b5056fea26469706673582212207a2ea79fa74385292f91b04daa81dbc24fe8efeec67cb4f6590972116480b9a364736f6c63430008000033",
  "immutableReferences": {},
  "source": "// SPDX-License-Identifier: UNLICENSED\npragma solidity ^0.8.0;\n\nimport \"./subcontracts/Candidates.sol\";\nimport \"./subcontracts/Roles.sol\";\n\ncontract Vhota is Roles, Candidates {\n    struct Election {\n        bytes32 id;\n        uint256 index;\n        string name;\n        string description;\n        uint256 pollStart;\n        uint256 pollEnd;\n        address creator;\n    }\n\n    struct ElectionMeta {\n        address creator;\n        bytes32 id;\n    }\n\n    // variables\n    uint256 elections = 0;\n    mapping(bytes32 => Election) electionsMap;\n    ElectionMeta[] electionsList;\n    mapping(address => bytes32[]) electionsByUsers;\n    // mapping(address => bytes32[]) associatedElections;\n\n    event ElectionCreated(bytes32 id, address sender);\n\n    modifier isValidElection(bytes32 electionId) {\n        require(\n            electionsMap[electionId].id == electionId,\n            \"Invalid election selection\"\n        );\n        _;\n    }\n\n    modifier isBeforeElectionStart(bytes32 _electionId) {\n        require(\n            electionsMap[_electionId].pollStart > block.timestamp,\n            \"You can't add a candidate to an ongoing election\"\n        );\n        _;\n    }\n\n    modifier isWithinPollDate(bytes32 _electionId) {\n        uint256 currentTime = block.timestamp;\n        require(\n            electionsMap[_electionId].pollStart < currentTime,\n            \"The polls are not yet open for this election\"\n        );\n        require(\n            currentTime > electionsMap[_electionId].pollEnd,\n            \"The polls have closed for this election\"\n        );\n        _;\n    }\n\n    function createElection(\n        string memory _name,\n        string memory _description,\n        uint256 start,\n        uint256 end,\n        uint256 _adminLimit\n    ) public returns (bytes32 id) {\n        elections += 1;\n        // generate unique ID for election\n        // use ID to setup candidate\n        // use ID to setup voters\n        // set poll start and end date\n        id = keccak256(\n            abi.encodePacked(_name, _description, msg.sender, elections)\n        );\n        electionsMap[id] = Election({\n            id: id,\n            index: elections,\n            name: _name,\n            description: _description,\n            pollStart: start,\n            pollEnd: end,\n            creator: msg.sender\n        });\n        electionsList.push(ElectionMeta({creator: msg.sender, id: id}));\n        electionsByUsers[msg.sender].push(id);\n        // add admin roles as needed\n        _setupRolesForElection(id, _adminLimit);\n\n        emit ElectionCreated(id, msg.sender);\n    }\n\n    function addElectionAdmin(bytes32 electionId, address _newAdmin)\n        public\n        isValidElection(electionId)\n    {\n        _addElectionAdmin(electionId, _newAdmin);\n    }\n\n    function getElectionById(bytes32 id)\n        public\n        view\n        returns (\n            bytes32 _id,\n            string memory name,\n            string memory description,\n            uint256 pollStart,\n            uint256 pollEnd,\n            address creator\n        )\n    {\n        _id = id;\n        name = electionsMap[id].name;\n        description = electionsMap[id].description;\n        pollStart = electionsMap[id].pollStart;\n        pollEnd = electionsMap[id].pollEnd;\n        creator = electionsMap[id].creator;\n    }\n\n    function addCandidateToElection(\n        bytes32 electionId,\n        string memory name,\n        string memory manifesto,\n        string memory party\n    )\n        public\n        isValidElection(electionId)\n        isBeforeElectionStart(electionId)\n        isElectionAdmin(electionId)\n    {\n        _addCandidate(electionId, name, manifesto, party);\n    }\n\n    // function fetchMyElections()\n    //     public\n    //     view\n    //     returns (bytes32[] memory ownedElections)\n    // {\n    //     ownedElections = electionsByUsers[msg.sender];\n    // }\n\n    // function fetchMyAssociatedElections()\n    //     public\n    //     view\n    //     returns (bytes32[] memory myElections)\n    // {\n    //     myElections = associatedElections[msg.sender];\n    // }\n\n    // fetch candidates\n\n    // addVote\n}\n",
  "sourcePath": "/Users/ghostffcode/Documents/UpkitStudio/vhota/contracts/Vhota.sol",
  "compiler": {
    "name": "solc",
    "version": "0.8.0+commit.c7dfd78e.Emscripten.clang"
  },
  "schemaVersion": "3.4.1",
  "updatedAt": "2021-06-23T17:16:37.736Z",
  "networkType": "ethereum",
  "devdoc": {
    "kind": "dev",
    "methods": {},
    "version": 1
  },
  "userdoc": {
    "kind": "user",
    "methods": {},
    "version": 1
  }
}